{
	"contracts/TokenLock.sol": {
		"EVM_side": {
			"abi": [
				{
					"anonymous": false,
					"inputs": [
						{
							"indexed": true,
							"internalType": "address",
							"name": "sender",
							"type": "address"
						},
						{
							"indexed": true,
							"internalType": "address",
							"name": "targetChain",
							"type": "address"
						},
						{
							"indexed": true,
							"internalType": "address",
							"name": "receiver",
							"type": "address"
						},
						{
							"indexed": false,
							"internalType": "uint256",
							"name": "amount",
							"type": "uint256"
						}
					],
					"name": "TokensLocked",
					"type": "event"
				},
				{
					"inputs": [
						{
							"internalType": "address",
							"name": "tokenAddress",
							"type": "address"
						},
						{
							"internalType": "uint256",
							"name": "amount",
							"type": "uint256"
						},
						{
							"internalType": "address",
							"name": "targetChain",
							"type": "address"
						},
						{
							"internalType": "address",
							"name": "receiver",
							"type": "address"
						}
					],
					"name": "lockERC20",
					"outputs": [],
					"stateMutability": "nonpayable",
					"type": "function"
				},
				{
					"inputs": [
						{
							"internalType": "address",
							"name": "targetChain",
							"type": "address"
						},
						{
							"internalType": "address",
							"name": "receiver",
							"type": "address"
						}
					],
					"name": "lockETH",
					"outputs": [],
					"stateMutability": "payable",
					"type": "function"
				}
			],
			"devdoc": {
				"kind": "dev",
				"methods": {},
				"version": 1
			},
			"evm": {
				"assembly": "    /* \"contracts/TokenLock.sol\":120:1841  contract EVM_side {... */\n  mstore(0x40, 0x80)\n  callvalue\n  dup1\n  iszero\n  tag_1\n  jumpi\n  0x00\n  dup1\n  revert\ntag_1:\n  pop\n  dataSize(sub_0)\n  dup1\n  dataOffset(sub_0)\n  0x00\n  codecopy\n  0x00\n  return\nstop\n\nsub_0: assembly {\n        /* \"contracts/TokenLock.sol\":120:1841  contract EVM_side {... */\n      mstore(0x40, 0x80)\n      jumpi(tag_1, lt(calldatasize, 0x04))\n      shr(0xe0, calldataload(0x00))\n      dup1\n      0x1bf07ad9\n      eq\n      tag_2\n      jumpi\n      dup1\n      0x20ac0642\n      eq\n      tag_3\n      jumpi\n    tag_1:\n      0x00\n      dup1\n      revert\n        /* \"contracts/TokenLock.sol\":627:1225  function lockERC20(address tokenAddress, uint256 amount, address targetChain, address receiver) external {... */\n    tag_2:\n      callvalue\n      dup1\n      iszero\n      tag_4\n      jumpi\n      0x00\n      dup1\n      revert\n    tag_4:\n      pop\n      tag_5\n      0x04\n      dup1\n      calldatasize\n      sub\n      dup2\n      add\n      swap1\n      tag_6\n      swap2\n      swap1\n      tag_7\n      jump\t// in\n    tag_6:\n      tag_8\n      jump\t// in\n    tag_5:\n      stop\n        /* \"contracts/TokenLock.sol\":1479:1838  function lockETH(address targetChain, address receiver) external payable {... */\n    tag_3:\n      tag_9\n      0x04\n      dup1\n      calldatasize\n      sub\n      dup2\n      add\n      swap1\n      tag_10\n      swap2\n      swap1\n      tag_11\n      jump\t// in\n    tag_10:\n      tag_12\n      jump\t// in\n    tag_9:\n      stop\n        /* \"contracts/TokenLock.sol\":627:1225  function lockERC20(address tokenAddress, uint256 amount, address targetChain, address receiver) external {... */\n    tag_8:\n        /* \"contracts/TokenLock.sol\":775:776  0 */\n      0x00\n        /* \"contracts/TokenLock.sol\":751:777  tokenAddress != address(0) */\n      0xffffffffffffffffffffffffffffffffffffffff\n      and\n        /* \"contracts/TokenLock.sol\":751:763  tokenAddress */\n      dup5\n        /* \"contracts/TokenLock.sol\":751:777  tokenAddress != address(0) */\n      0xffffffffffffffffffffffffffffffffffffffff\n      and\n      sub\n        /* \"contracts/TokenLock.sol\":743:803  require(tokenAddress != address(0), \"Invalid token address\") */\n      tag_14\n      jumpi\n      mload(0x40)\n      0x08c379a000000000000000000000000000000000000000000000000000000000\n      dup2\n      mstore\n      0x04\n      add\n      tag_15\n      swap1\n      tag_16\n      jump\t// in\n    tag_15:\n      mload(0x40)\n      dup1\n      swap2\n      sub\n      swap1\n      revert\n    tag_14:\n        /* \"contracts/TokenLock.sol\":831:832  0 */\n      0x00\n        /* \"contracts/TokenLock.sol\":822:828  amount */\n      dup4\n        /* \"contracts/TokenLock.sol\":822:832  amount > 0 */\n      gt\n        /* \"contracts/TokenLock.sol\":814:851  require(amount > 0, \"Invalid amount\") */\n      tag_17\n      jumpi\n      mload(0x40)\n      0x08c379a000000000000000000000000000000000000000000000000000000000\n      dup2\n      mstore\n      0x04\n      add\n      tag_18\n      swap1\n      tag_19\n      jump\t// in\n    tag_18:\n      mload(0x40)\n      dup1\n      swap2\n      sub\n      swap1\n      revert\n    tag_17:\n        /* \"contracts/TokenLock.sol\":893:894  0 */\n      0x00\n        /* \"contracts/TokenLock.sol\":870:895  targetChain != address(0) */\n      0xffffffffffffffffffffffffffffffffffffffff\n      and\n        /* \"contracts/TokenLock.sol\":870:881  targetChain */\n      dup3\n        /* \"contracts/TokenLock.sol\":870:895  targetChain != address(0) */\n      0xffffffffffffffffffffffffffffffffffffffff\n      and\n      sub\n        /* \"contracts/TokenLock.sol\":862:928  require(targetChain != address(0), \"Invalid target chain address\") */\n      tag_20\n      jumpi\n      mload(0x40)\n      0x08c379a000000000000000000000000000000000000000000000000000000000\n      dup2\n      mstore\n      0x04\n      add\n      tag_21\n      swap1\n      tag_22\n      jump\t// in\n    tag_21:\n      mload(0x40)\n      dup1\n      swap2\n      sub\n      swap1\n      revert\n    tag_20:\n        /* \"contracts/TokenLock.sol\":967:968  0 */\n      0x00\n        /* \"contracts/TokenLock.sol\":947:969  receiver != address(0) */\n      0xffffffffffffffffffffffffffffffffffffffff\n      and\n        /* \"contracts/TokenLock.sol\":947:955  receiver */\n      dup2\n        /* \"contracts/TokenLock.sol\":947:969  receiver != address(0) */\n      0xffffffffffffffffffffffffffffffffffffffff\n      and\n      sub\n        /* \"contracts/TokenLock.sol\":939:998  require(receiver != address(0), \"Invalid receiver address\") */\n      tag_23\n      jumpi\n      mload(0x40)\n      0x08c379a000000000000000000000000000000000000000000000000000000000\n      dup2\n      mstore\n      0x04\n      add\n      tag_24\n      swap1\n      tag_25\n      jump\t// in\n    tag_24:\n      mload(0x40)\n      dup1\n      swap2\n      sub\n      swap1\n      revert\n    tag_23:\n        /* \"contracts/TokenLock.sol\":1011:1023  IERC20 token */\n      0x00\n        /* \"contracts/TokenLock.sol\":1033:1045  tokenAddress */\n      dup5\n        /* \"contracts/TokenLock.sol\":1011:1046  IERC20 token = IERC20(tokenAddress) */\n      swap1\n      pop\n        /* \"contracts/TokenLock.sol\":1065:1070  token */\n      dup1\n        /* \"contracts/TokenLock.sol\":1065:1083  token.transferFrom */\n      0xffffffffffffffffffffffffffffffffffffffff\n      and\n      0x23b872dd\n        /* \"contracts/TokenLock.sol\":1084:1094  msg.sender */\n      caller\n        /* \"contracts/TokenLock.sol\":1104:1108  this */\n      address\n        /* \"contracts/TokenLock.sol\":1111:1117  amount */\n      dup8\n        /* \"contracts/TokenLock.sol\":1065:1118  token.transferFrom(msg.sender, address(this), amount) */\n      mload(0x40)\n      dup5\n      0xffffffff\n      and\n      0xe0\n      shl\n      dup2\n      mstore\n      0x04\n      add\n      tag_26\n      swap4\n      swap3\n      swap2\n      swap1\n      tag_27\n      jump\t// in\n    tag_26:\n      0x20\n      mload(0x40)\n      dup1\n      dup4\n      sub\n      dup2\n      0x00\n      dup8\n      gas\n      call\n      iszero\n      dup1\n      iszero\n      tag_29\n      jumpi\n      returndatasize\n      0x00\n      dup1\n      returndatacopy\n      revert(0x00, returndatasize)\n    tag_29:\n      pop\n      pop\n      pop\n      pop\n      mload(0x40)\n      returndatasize\n      not(0x1f)\n      0x1f\n      dup3\n      add\n      and\n      dup3\n      add\n      dup1\n      0x40\n      mstore\n      pop\n      dup2\n      add\n      swap1\n      tag_30\n      swap2\n      swap1\n      tag_31\n      jump\t// in\n    tag_30:\n        /* \"contracts/TokenLock.sol\":1057:1144  require(token.transferFrom(msg.sender, address(this), amount), \"Token transfer failed\") */\n      tag_32\n      jumpi\n      mload(0x40)\n      0x08c379a000000000000000000000000000000000000000000000000000000000\n      dup2\n      mstore\n      0x04\n      add\n      tag_33\n      swap1\n      tag_34\n      jump\t// in\n    tag_33:\n      mload(0x40)\n      dup1\n      swap2\n      sub\n      swap1\n      revert\n    tag_32:\n        /* \"contracts/TokenLock.sol\":1200:1208  receiver */\n      dup2\n        /* \"contracts/TokenLock.sol\":1162:1217  TokensLocked(msg.sender, targetChain, receiver, amount) */\n      0xffffffffffffffffffffffffffffffffffffffff\n      and\n        /* \"contracts/TokenLock.sol\":1187:1198  targetChain */\n      dup4\n        /* \"contracts/TokenLock.sol\":1162:1217  TokensLocked(msg.sender, targetChain, receiver, amount) */\n      0xffffffffffffffffffffffffffffffffffffffff\n      and\n        /* \"contracts/TokenLock.sol\":1175:1185  msg.sender */\n      caller\n        /* \"contracts/TokenLock.sol\":1162:1217  TokensLocked(msg.sender, targetChain, receiver, amount) */\n      0xffffffffffffffffffffffffffffffffffffffff\n      and\n      0x4a060e13dfcf0a43583fc42ed986145b0b079e634722659e51d94f8ffeda8c71\n        /* \"contracts/TokenLock.sol\":1210:1216  amount */\n      dup8\n        /* \"contracts/TokenLock.sol\":1162:1217  TokensLocked(msg.sender, targetChain, receiver, amount) */\n      mload(0x40)\n      tag_35\n      swap2\n      swap1\n      tag_36\n      jump\t// in\n    tag_35:\n      mload(0x40)\n      dup1\n      swap2\n      sub\n      swap1\n      log4\n        /* \"contracts/TokenLock.sol\":732:1225  {... */\n      pop\n        /* \"contracts/TokenLock.sol\":627:1225  function lockERC20(address tokenAddress, uint256 amount, address targetChain, address receiver) external {... */\n      pop\n      pop\n      pop\n      pop\n      jump\t// out\n        /* \"contracts/TokenLock.sol\":1479:1838  function lockETH(address targetChain, address receiver) external payable {... */\n    tag_12:\n        /* \"contracts/TokenLock.sol\":1583:1584  0 */\n      0x00\n        /* \"contracts/TokenLock.sol\":1571:1580  msg.value */\n      callvalue\n        /* \"contracts/TokenLock.sol\":1571:1584  msg.value > 0 */\n      gt\n        /* \"contracts/TokenLock.sol\":1563:1607  require(msg.value > 0, \"Invalid ETH amount\") */\n      tag_38\n      jumpi\n      mload(0x40)\n      0x08c379a000000000000000000000000000000000000000000000000000000000\n      dup2\n      mstore\n      0x04\n      add\n      tag_39\n      swap1\n      tag_40\n      jump\t// in\n    tag_39:\n      mload(0x40)\n      dup1\n      swap2\n      sub\n      swap1\n      revert\n    tag_38:\n        /* \"contracts/TokenLock.sol\":1649:1650  0 */\n      0x00\n        /* \"contracts/TokenLock.sol\":1626:1651  targetChain != address(0) */\n      0xffffffffffffffffffffffffffffffffffffffff\n      and\n        /* \"contracts/TokenLock.sol\":1626:1637  targetChain */\n      dup3\n        /* \"contracts/TokenLock.sol\":1626:1651  targetChain != address(0) */\n      0xffffffffffffffffffffffffffffffffffffffff\n      and\n      sub\n        /* \"contracts/TokenLock.sol\":1618:1684  require(targetChain != address(0), \"Invalid target chain address\") */\n      tag_41\n      jumpi\n      mload(0x40)\n      0x08c379a000000000000000000000000000000000000000000000000000000000\n      dup2\n      mstore\n      0x04\n      add\n      tag_42\n      swap1\n      tag_22\n      jump\t// in\n    tag_42:\n      mload(0x40)\n      dup1\n      swap2\n      sub\n      swap1\n      revert\n    tag_41:\n        /* \"contracts/TokenLock.sol\":1723:1724  0 */\n      0x00\n        /* \"contracts/TokenLock.sol\":1703:1725  receiver != address(0) */\n      0xffffffffffffffffffffffffffffffffffffffff\n      and\n        /* \"contracts/TokenLock.sol\":1703:1711  receiver */\n      dup2\n        /* \"contracts/TokenLock.sol\":1703:1725  receiver != address(0) */\n      0xffffffffffffffffffffffffffffffffffffffff\n      and\n      sub\n        /* \"contracts/TokenLock.sol\":1695:1754  require(receiver != address(0), \"Invalid receiver address\") */\n      tag_43\n      jumpi\n      mload(0x40)\n      0x08c379a000000000000000000000000000000000000000000000000000000000\n      dup2\n      mstore\n      0x04\n      add\n      tag_44\n      swap1\n      tag_25\n      jump\t// in\n    tag_44:\n      mload(0x40)\n      dup1\n      swap2\n      sub\n      swap1\n      revert\n    tag_43:\n        /* \"contracts/TokenLock.sol\":1810:1818  receiver */\n      dup1\n        /* \"contracts/TokenLock.sol\":1772:1830  TokensLocked(msg.sender, targetChain, receiver, msg.value) */\n      0xffffffffffffffffffffffffffffffffffffffff\n      and\n        /* \"contracts/TokenLock.sol\":1797:1808  targetChain */\n      dup3\n        /* \"contracts/TokenLock.sol\":1772:1830  TokensLocked(msg.sender, targetChain, receiver, msg.value) */\n      0xffffffffffffffffffffffffffffffffffffffff\n      and\n        /* \"contracts/TokenLock.sol\":1785:1795  msg.sender */\n      caller\n        /* \"contracts/TokenLock.sol\":1772:1830  TokensLocked(msg.sender, targetChain, receiver, msg.value) */\n      0xffffffffffffffffffffffffffffffffffffffff\n      and\n      0x4a060e13dfcf0a43583fc42ed986145b0b079e634722659e51d94f8ffeda8c71\n        /* \"contracts/TokenLock.sol\":1820:1829  msg.value */\n      callvalue\n        /* \"contracts/TokenLock.sol\":1772:1830  TokensLocked(msg.sender, targetChain, receiver, msg.value) */\n      mload(0x40)\n      tag_45\n      swap2\n      swap1\n      tag_36\n      jump\t// in\n    tag_45:\n      mload(0x40)\n      dup1\n      swap2\n      sub\n      swap1\n      log4\n        /* \"contracts/TokenLock.sol\":1479:1838  function lockETH(address targetChain, address receiver) external payable {... */\n      pop\n      pop\n      jump\t// out\n        /* \"#utility.yul\":88:205   */\n    tag_47:\n        /* \"#utility.yul\":197:198   */\n      0x00\n        /* \"#utility.yul\":194:195   */\n      dup1\n        /* \"#utility.yul\":187:199   */\n      revert\n        /* \"#utility.yul\":334:460   */\n    tag_49:\n        /* \"#utility.yul\":371:378   */\n      0x00\n        /* \"#utility.yul\":411:453   */\n      0xffffffffffffffffffffffffffffffffffffffff\n        /* \"#utility.yul\":404:409   */\n      dup3\n        /* \"#utility.yul\":400:454   */\n      and\n        /* \"#utility.yul\":389:454   */\n      swap1\n      pop\n        /* \"#utility.yul\":334:460   */\n      swap2\n      swap1\n      pop\n      jump\t// out\n        /* \"#utility.yul\":466:562   */\n    tag_50:\n        /* \"#utility.yul\":503:510   */\n      0x00\n        /* \"#utility.yul\":532:556   */\n      tag_80\n        /* \"#utility.yul\":550:555   */\n      dup3\n        /* \"#utility.yul\":532:556   */\n      tag_49\n      jump\t// in\n    tag_80:\n        /* \"#utility.yul\":521:556   */\n      swap1\n      pop\n        /* \"#utility.yul\":466:562   */\n      swap2\n      swap1\n      pop\n      jump\t// out\n        /* \"#utility.yul\":568:690   */\n    tag_51:\n        /* \"#utility.yul\":641:665   */\n      tag_82\n        /* \"#utility.yul\":659:664   */\n      dup2\n        /* \"#utility.yul\":641:665   */\n      tag_50\n      jump\t// in\n    tag_82:\n        /* \"#utility.yul\":634:639   */\n      dup2\n        /* \"#utility.yul\":631:666   */\n      eq\n        /* \"#utility.yul\":621:684   */\n      tag_83\n      jumpi\n        /* \"#utility.yul\":680:681   */\n      0x00\n        /* \"#utility.yul\":677:678   */\n      dup1\n        /* \"#utility.yul\":670:682   */\n      revert\n        /* \"#utility.yul\":621:684   */\n    tag_83:\n        /* \"#utility.yul\":568:690   */\n      pop\n      jump\t// out\n        /* \"#utility.yul\":696:835   */\n    tag_52:\n        /* \"#utility.yul\":742:747   */\n      0x00\n        /* \"#utility.yul\":780:786   */\n      dup2\n        /* \"#utility.yul\":767:787   */\n      calldataload\n        /* \"#utility.yul\":758:787   */\n      swap1\n      pop\n        /* \"#utility.yul\":796:829   */\n      tag_85\n        /* \"#utility.yul\":823:828   */\n      dup2\n        /* \"#utility.yul\":796:829   */\n      tag_51\n      jump\t// in\n    tag_85:\n        /* \"#utility.yul\":696:835   */\n      swap3\n      swap2\n      pop\n      pop\n      jump\t// out\n        /* \"#utility.yul\":841:918   */\n    tag_53:\n        /* \"#utility.yul\":878:885   */\n      0x00\n        /* \"#utility.yul\":907:912   */\n      dup2\n        /* \"#utility.yul\":896:912   */\n      swap1\n      pop\n        /* \"#utility.yul\":841:918   */\n      swap2\n      swap1\n      pop\n      jump\t// out\n        /* \"#utility.yul\":924:1046   */\n    tag_54:\n        /* \"#utility.yul\":997:1021   */\n      tag_88\n        /* \"#utility.yul\":1015:1020   */\n      dup2\n        /* \"#utility.yul\":997:1021   */\n      tag_53\n      jump\t// in\n    tag_88:\n        /* \"#utility.yul\":990:995   */\n      dup2\n        /* \"#utility.yul\":987:1022   */\n      eq\n        /* \"#utility.yul\":977:1040   */\n      tag_89\n      jumpi\n        /* \"#utility.yul\":1036:1037   */\n      0x00\n        /* \"#utility.yul\":1033:1034   */\n      dup1\n        /* \"#utility.yul\":1026:1038   */\n      revert\n        /* \"#utility.yul\":977:1040   */\n    tag_89:\n        /* \"#utility.yul\":924:1046   */\n      pop\n      jump\t// out\n        /* \"#utility.yul\":1052:1191   */\n    tag_55:\n        /* \"#utility.yul\":1098:1103   */\n      0x00\n        /* \"#utility.yul\":1136:1142   */\n      dup2\n        /* \"#utility.yul\":1123:1143   */\n      calldataload\n        /* \"#utility.yul\":1114:1143   */\n      swap1\n      pop\n        /* \"#utility.yul\":1152:1185   */\n      tag_91\n        /* \"#utility.yul\":1179:1184   */\n      dup2\n        /* \"#utility.yul\":1152:1185   */\n      tag_54\n      jump\t// in\n    tag_91:\n        /* \"#utility.yul\":1052:1191   */\n      swap3\n      swap2\n      pop\n      pop\n      jump\t// out\n        /* \"#utility.yul\":1197:1962   */\n    tag_7:\n        /* \"#utility.yul\":1283:1289   */\n      0x00\n        /* \"#utility.yul\":1291:1297   */\n      dup1\n        /* \"#utility.yul\":1299:1305   */\n      0x00\n        /* \"#utility.yul\":1307:1313   */\n      dup1\n        /* \"#utility.yul\":1356:1359   */\n      0x80\n        /* \"#utility.yul\":1344:1353   */\n      dup6\n        /* \"#utility.yul\":1335:1342   */\n      dup8\n        /* \"#utility.yul\":1331:1354   */\n      sub\n        /* \"#utility.yul\":1327:1360   */\n      slt\n        /* \"#utility.yul\":1324:1444   */\n      iszero\n      tag_93\n      jumpi\n        /* \"#utility.yul\":1363:1442   */\n      tag_94\n      tag_47\n      jump\t// in\n    tag_94:\n        /* \"#utility.yul\":1324:1444   */\n    tag_93:\n        /* \"#utility.yul\":1483:1484   */\n      0x00\n        /* \"#utility.yul\":1508:1561   */\n      tag_95\n        /* \"#utility.yul\":1553:1560   */\n      dup8\n        /* \"#utility.yul\":1544:1550   */\n      dup3\n        /* \"#utility.yul\":1533:1542   */\n      dup9\n        /* \"#utility.yul\":1529:1551   */\n      add\n        /* \"#utility.yul\":1508:1561   */\n      tag_52\n      jump\t// in\n    tag_95:\n        /* \"#utility.yul\":1498:1561   */\n      swap5\n      pop\n        /* \"#utility.yul\":1454:1571   */\n      pop\n        /* \"#utility.yul\":1610:1612   */\n      0x20\n        /* \"#utility.yul\":1636:1689   */\n      tag_96\n        /* \"#utility.yul\":1681:1688   */\n      dup8\n        /* \"#utility.yul\":1672:1678   */\n      dup3\n        /* \"#utility.yul\":1661:1670   */\n      dup9\n        /* \"#utility.yul\":1657:1679   */\n      add\n        /* \"#utility.yul\":1636:1689   */\n      tag_55\n      jump\t// in\n    tag_96:\n        /* \"#utility.yul\":1626:1689   */\n      swap4\n      pop\n        /* \"#utility.yul\":1581:1699   */\n      pop\n        /* \"#utility.yul\":1738:1740   */\n      0x40\n        /* \"#utility.yul\":1764:1817   */\n      tag_97\n        /* \"#utility.yul\":1809:1816   */\n      dup8\n        /* \"#utility.yul\":1800:1806   */\n      dup3\n        /* \"#utility.yul\":1789:1798   */\n      dup9\n        /* \"#utility.yul\":1785:1807   */\n      add\n        /* \"#utility.yul\":1764:1817   */\n      tag_52\n      jump\t// in\n    tag_97:\n        /* \"#utility.yul\":1754:1817   */\n      swap3\n      pop\n        /* \"#utility.yul\":1709:1827   */\n      pop\n        /* \"#utility.yul\":1866:1868   */\n      0x60\n        /* \"#utility.yul\":1892:1945   */\n      tag_98\n        /* \"#utility.yul\":1937:1944   */\n      dup8\n        /* \"#utility.yul\":1928:1934   */\n      dup3\n        /* \"#utility.yul\":1917:1926   */\n      dup9\n        /* \"#utility.yul\":1913:1935   */\n      add\n        /* \"#utility.yul\":1892:1945   */\n      tag_52\n      jump\t// in\n    tag_98:\n        /* \"#utility.yul\":1882:1945   */\n      swap2\n      pop\n        /* \"#utility.yul\":1837:1955   */\n      pop\n        /* \"#utility.yul\":1197:1962   */\n      swap3\n      swap6\n      swap2\n      swap5\n      pop\n      swap3\n      pop\n      jump\t// out\n        /* \"#utility.yul\":1968:2442   */\n    tag_11:\n        /* \"#utility.yul\":2036:2042   */\n      0x00\n        /* \"#utility.yul\":2044:2050   */\n      dup1\n        /* \"#utility.yul\":2093:2095   */\n      0x40\n        /* \"#utility.yul\":2081:2090   */\n      dup4\n        /* \"#utility.yul\":2072:2079   */\n      dup6\n        /* \"#utility.yul\":2068:2091   */\n      sub\n        /* \"#utility.yul\":2064:2096   */\n      slt\n        /* \"#utility.yul\":2061:2180   */\n      iszero\n      tag_100\n      jumpi\n        /* \"#utility.yul\":2099:2178   */\n      tag_101\n      tag_47\n      jump\t// in\n    tag_101:\n        /* \"#utility.yul\":2061:2180   */\n    tag_100:\n        /* \"#utility.yul\":2219:2220   */\n      0x00\n        /* \"#utility.yul\":2244:2297   */\n      tag_102\n        /* \"#utility.yul\":2289:2296   */\n      dup6\n        /* \"#utility.yul\":2280:2286   */\n      dup3\n        /* \"#utility.yul\":2269:2278   */\n      dup7\n        /* \"#utility.yul\":2265:2287   */\n      add\n        /* \"#utility.yul\":2244:2297   */\n      tag_52\n      jump\t// in\n    tag_102:\n        /* \"#utility.yul\":2234:2297   */\n      swap3\n      pop\n        /* \"#utility.yul\":2190:2307   */\n      pop\n        /* \"#utility.yul\":2346:2348   */\n      0x20\n        /* \"#utility.yul\":2372:2425   */\n      tag_103\n        /* \"#utility.yul\":2417:2424   */\n      dup6\n        /* \"#utility.yul\":2408:2414   */\n      dup3\n        /* \"#utility.yul\":2397:2406   */\n      dup7\n        /* \"#utility.yul\":2393:2415   */\n      add\n        /* \"#utility.yul\":2372:2425   */\n      tag_52\n      jump\t// in\n    tag_103:\n        /* \"#utility.yul\":2362:2425   */\n      swap2\n      pop\n        /* \"#utility.yul\":2317:2435   */\n      pop\n        /* \"#utility.yul\":1968:2442   */\n      swap3\n      pop\n      swap3\n      swap1\n      pop\n      jump\t// out\n        /* \"#utility.yul\":2448:2617   */\n    tag_56:\n        /* \"#utility.yul\":2532:2543   */\n      0x00\n        /* \"#utility.yul\":2566:2572   */\n      dup3\n        /* \"#utility.yul\":2561:2564   */\n      dup3\n        /* \"#utility.yul\":2554:2573   */\n      mstore\n        /* \"#utility.yul\":2606:2610   */\n      0x20\n        /* \"#utility.yul\":2601:2604   */\n      dup3\n        /* \"#utility.yul\":2597:2611   */\n      add\n        /* \"#utility.yul\":2582:2611   */\n      swap1\n      pop\n        /* \"#utility.yul\":2448:2617   */\n      swap3\n      swap2\n      pop\n      pop\n      jump\t// out\n        /* \"#utility.yul\":2623:2794   */\n    tag_57:\n        /* \"#utility.yul\":2763:2786   */\n      0x496e76616c696420746f6b656e20616464726573730000000000000000000000\n        /* \"#utility.yul\":2759:2760   */\n      0x00\n        /* \"#utility.yul\":2751:2757   */\n      dup3\n        /* \"#utility.yul\":2747:2761   */\n      add\n        /* \"#utility.yul\":2740:2787   */\n      mstore\n        /* \"#utility.yul\":2623:2794   */\n      pop\n      jump\t// out\n        /* \"#utility.yul\":2800:3166   */\n    tag_58:\n        /* \"#utility.yul\":2942:2945   */\n      0x00\n        /* \"#utility.yul\":2963:3030   */\n      tag_107\n        /* \"#utility.yul\":3027:3029   */\n      0x15\n        /* \"#utility.yul\":3022:3025   */\n      dup4\n        /* \"#utility.yul\":2963:3030   */\n      tag_56\n      jump\t// in\n    tag_107:\n        /* \"#utility.yul\":2956:3030   */\n      swap2\n      pop\n        /* \"#utility.yul\":3039:3132   */\n      tag_108\n        /* \"#utility.yul\":3128:3131   */\n      dup3\n        /* \"#utility.yul\":3039:3132   */\n      tag_57\n      jump\t// in\n    tag_108:\n        /* \"#utility.yul\":3157:3159   */\n      0x20\n        /* \"#utility.yul\":3152:3155   */\n      dup3\n        /* \"#utility.yul\":3148:3160   */\n      add\n        /* \"#utility.yul\":3141:3160   */\n      swap1\n      pop\n        /* \"#utility.yul\":2800:3166   */\n      swap2\n      swap1\n      pop\n      jump\t// out\n        /* \"#utility.yul\":3172:3591   */\n    tag_16:\n        /* \"#utility.yul\":3338:3342   */\n      0x00\n        /* \"#utility.yul\":3376:3378   */\n      0x20\n        /* \"#utility.yul\":3365:3374   */\n      dup3\n        /* \"#utility.yul\":3361:3379   */\n      add\n        /* \"#utility.yul\":3353:3379   */\n      swap1\n      pop\n        /* \"#utility.yul\":3425:3434   */\n      dup2\n        /* \"#utility.yul\":3419:3423   */\n      dup2\n        /* \"#utility.yul\":3415:3435   */\n      sub\n        /* \"#utility.yul\":3411:3412   */\n      0x00\n        /* \"#utility.yul\":3400:3409   */\n      dup4\n        /* \"#utility.yul\":3396:3413   */\n      add\n        /* \"#utility.yul\":3389:3436   */\n      mstore\n        /* \"#utility.yul\":3453:3584   */\n      tag_110\n        /* \"#utility.yul\":3579:3583   */\n      dup2\n        /* \"#utility.yul\":3453:3584   */\n      tag_58\n      jump\t// in\n    tag_110:\n        /* \"#utility.yul\":3445:3584   */\n      swap1\n      pop\n        /* \"#utility.yul\":3172:3591   */\n      swap2\n      swap1\n      pop\n      jump\t// out\n        /* \"#utility.yul\":3597:3761   */\n    tag_59:\n        /* \"#utility.yul\":3737:3753   */\n      0x496e76616c696420616d6f756e74000000000000000000000000000000000000\n        /* \"#utility.yul\":3733:3734   */\n      0x00\n        /* \"#utility.yul\":3725:3731   */\n      dup3\n        /* \"#utility.yul\":3721:3735   */\n      add\n        /* \"#utility.yul\":3714:3754   */\n      mstore\n        /* \"#utility.yul\":3597:3761   */\n      pop\n      jump\t// out\n        /* \"#utility.yul\":3767:4133   */\n    tag_60:\n        /* \"#utility.yul\":3909:3912   */\n      0x00\n        /* \"#utility.yul\":3930:3997   */\n      tag_113\n        /* \"#utility.yul\":3994:3996   */\n      0x0e\n        /* \"#utility.yul\":3989:3992   */\n      dup4\n        /* \"#utility.yul\":3930:3997   */\n      tag_56\n      jump\t// in\n    tag_113:\n        /* \"#utility.yul\":3923:3997   */\n      swap2\n      pop\n        /* \"#utility.yul\":4006:4099   */\n      tag_114\n        /* \"#utility.yul\":4095:4098   */\n      dup3\n        /* \"#utility.yul\":4006:4099   */\n      tag_59\n      jump\t// in\n    tag_114:\n        /* \"#utility.yul\":4124:4126   */\n      0x20\n        /* \"#utility.yul\":4119:4122   */\n      dup3\n        /* \"#utility.yul\":4115:4127   */\n      add\n        /* \"#utility.yul\":4108:4127   */\n      swap1\n      pop\n        /* \"#utility.yul\":3767:4133   */\n      swap2\n      swap1\n      pop\n      jump\t// out\n        /* \"#utility.yul\":4139:4558   */\n    tag_19:\n        /* \"#utility.yul\":4305:4309   */\n      0x00\n        /* \"#utility.yul\":4343:4345   */\n      0x20\n        /* \"#utility.yul\":4332:4341   */\n      dup3\n        /* \"#utility.yul\":4328:4346   */\n      add\n        /* \"#utility.yul\":4320:4346   */\n      swap1\n      pop\n        /* \"#utility.yul\":4392:4401   */\n      dup2\n        /* \"#utility.yul\":4386:4390   */\n      dup2\n        /* \"#utility.yul\":4382:4402   */\n      sub\n        /* \"#utility.yul\":4378:4379   */\n      0x00\n        /* \"#utility.yul\":4367:4376   */\n      dup4\n        /* \"#utility.yul\":4363:4380   */\n      add\n        /* \"#utility.yul\":4356:4403   */\n      mstore\n        /* \"#utility.yul\":4420:4551   */\n      tag_116\n        /* \"#utility.yul\":4546:4550   */\n      dup2\n        /* \"#utility.yul\":4420:4551   */\n      tag_60\n      jump\t// in\n    tag_116:\n        /* \"#utility.yul\":4412:4551   */\n      swap1\n      pop\n        /* \"#utility.yul\":4139:4558   */\n      swap2\n      swap1\n      pop\n      jump\t// out\n        /* \"#utility.yul\":4564:4742   */\n    tag_61:\n        /* \"#utility.yul\":4704:4734   */\n      0x496e76616c69642074617267657420636861696e206164647265737300000000\n        /* \"#utility.yul\":4700:4701   */\n      0x00\n        /* \"#utility.yul\":4692:4698   */\n      dup3\n        /* \"#utility.yul\":4688:4702   */\n      add\n        /* \"#utility.yul\":4681:4735   */\n      mstore\n        /* \"#utility.yul\":4564:4742   */\n      pop\n      jump\t// out\n        /* \"#utility.yul\":4748:5114   */\n    tag_62:\n        /* \"#utility.yul\":4890:4893   */\n      0x00\n        /* \"#utility.yul\":4911:4978   */\n      tag_119\n        /* \"#utility.yul\":4975:4977   */\n      0x1c\n        /* \"#utility.yul\":4970:4973   */\n      dup4\n        /* \"#utility.yul\":4911:4978   */\n      tag_56\n      jump\t// in\n    tag_119:\n        /* \"#utility.yul\":4904:4978   */\n      swap2\n      pop\n        /* \"#utility.yul\":4987:5080   */\n      tag_120\n        /* \"#utility.yul\":5076:5079   */\n      dup3\n        /* \"#utility.yul\":4987:5080   */\n      tag_61\n      jump\t// in\n    tag_120:\n        /* \"#utility.yul\":5105:5107   */\n      0x20\n        /* \"#utility.yul\":5100:5103   */\n      dup3\n        /* \"#utility.yul\":5096:5108   */\n      add\n        /* \"#utility.yul\":5089:5108   */\n      swap1\n      pop\n        /* \"#utility.yul\":4748:5114   */\n      swap2\n      swap1\n      pop\n      jump\t// out\n        /* \"#utility.yul\":5120:5539   */\n    tag_22:\n        /* \"#utility.yul\":5286:5290   */\n      0x00\n        /* \"#utility.yul\":5324:5326   */\n      0x20\n        /* \"#utility.yul\":5313:5322   */\n      dup3\n        /* \"#utility.yul\":5309:5327   */\n      add\n        /* \"#utility.yul\":5301:5327   */\n      swap1\n      pop\n        /* \"#utility.yul\":5373:5382   */\n      dup2\n        /* \"#utility.yul\":5367:5371   */\n      dup2\n        /* \"#utility.yul\":5363:5383   */\n      sub\n        /* \"#utility.yul\":5359:5360   */\n      0x00\n        /* \"#utility.yul\":5348:5357   */\n      dup4\n        /* \"#utility.yul\":5344:5361   */\n      add\n        /* \"#utility.yul\":5337:5384   */\n      mstore\n        /* \"#utility.yul\":5401:5532   */\n      tag_122\n        /* \"#utility.yul\":5527:5531   */\n      dup2\n        /* \"#utility.yul\":5401:5532   */\n      tag_62\n      jump\t// in\n    tag_122:\n        /* \"#utility.yul\":5393:5532   */\n      swap1\n      pop\n        /* \"#utility.yul\":5120:5539   */\n      swap2\n      swap1\n      pop\n      jump\t// out\n        /* \"#utility.yul\":5545:5719   */\n    tag_63:\n        /* \"#utility.yul\":5685:5711   */\n      0x496e76616c696420726563656976657220616464726573730000000000000000\n        /* \"#utility.yul\":5681:5682   */\n      0x00\n        /* \"#utility.yul\":5673:5679   */\n      dup3\n        /* \"#utility.yul\":5669:5683   */\n      add\n        /* \"#utility.yul\":5662:5712   */\n      mstore\n        /* \"#utility.yul\":5545:5719   */\n      pop\n      jump\t// out\n        /* \"#utility.yul\":5725:6091   */\n    tag_64:\n        /* \"#utility.yul\":5867:5870   */\n      0x00\n        /* \"#utility.yul\":5888:5955   */\n      tag_125\n        /* \"#utility.yul\":5952:5954   */\n      0x18\n        /* \"#utility.yul\":5947:5950   */\n      dup4\n        /* \"#utility.yul\":5888:5955   */\n      tag_56\n      jump\t// in\n    tag_125:\n        /* \"#utility.yul\":5881:5955   */\n      swap2\n      pop\n        /* \"#utility.yul\":5964:6057   */\n      tag_126\n        /* \"#utility.yul\":6053:6056   */\n      dup3\n        /* \"#utility.yul\":5964:6057   */\n      tag_63\n      jump\t// in\n    tag_126:\n        /* \"#utility.yul\":6082:6084   */\n      0x20\n        /* \"#utility.yul\":6077:6080   */\n      dup3\n        /* \"#utility.yul\":6073:6085   */\n      add\n        /* \"#utility.yul\":6066:6085   */\n      swap1\n      pop\n        /* \"#utility.yul\":5725:6091   */\n      swap2\n      swap1\n      pop\n      jump\t// out\n        /* \"#utility.yul\":6097:6516   */\n    tag_25:\n        /* \"#utility.yul\":6263:6267   */\n      0x00\n        /* \"#utility.yul\":6301:6303   */\n      0x20\n        /* \"#utility.yul\":6290:6299   */\n      dup3\n        /* \"#utility.yul\":6286:6304   */\n      add\n        /* \"#utility.yul\":6278:6304   */\n      swap1\n      pop\n        /* \"#utility.yul\":6350:6359   */\n      dup2\n        /* \"#utility.yul\":6344:6348   */\n      dup2\n        /* \"#utility.yul\":6340:6360   */\n      sub\n        /* \"#utility.yul\":6336:6337   */\n      0x00\n        /* \"#utility.yul\":6325:6334   */\n      dup4\n        /* \"#utility.yul\":6321:6338   */\n      add\n        /* \"#utility.yul\":6314:6361   */\n      mstore\n        /* \"#utility.yul\":6378:6509   */\n      tag_128\n        /* \"#utility.yul\":6504:6508   */\n      dup2\n        /* \"#utility.yul\":6378:6509   */\n      tag_64\n      jump\t// in\n    tag_128:\n        /* \"#utility.yul\":6370:6509   */\n      swap1\n      pop\n        /* \"#utility.yul\":6097:6516   */\n      swap2\n      swap1\n      pop\n      jump\t// out\n        /* \"#utility.yul\":6522:6640   */\n    tag_65:\n        /* \"#utility.yul\":6609:6633   */\n      tag_130\n        /* \"#utility.yul\":6627:6632   */\n      dup2\n        /* \"#utility.yul\":6609:6633   */\n      tag_50\n      jump\t// in\n    tag_130:\n        /* \"#utility.yul\":6604:6607   */\n      dup3\n        /* \"#utility.yul\":6597:6634   */\n      mstore\n        /* \"#utility.yul\":6522:6640   */\n      pop\n      pop\n      jump\t// out\n        /* \"#utility.yul\":6646:6764   */\n    tag_66:\n        /* \"#utility.yul\":6733:6757   */\n      tag_132\n        /* \"#utility.yul\":6751:6756   */\n      dup2\n        /* \"#utility.yul\":6733:6757   */\n      tag_53\n      jump\t// in\n    tag_132:\n        /* \"#utility.yul\":6728:6731   */\n      dup3\n        /* \"#utility.yul\":6721:6758   */\n      mstore\n        /* \"#utility.yul\":6646:6764   */\n      pop\n      pop\n      jump\t// out\n        /* \"#utility.yul\":6770:7212   */\n    tag_27:\n        /* \"#utility.yul\":6919:6923   */\n      0x00\n        /* \"#utility.yul\":6957:6959   */\n      0x60\n        /* \"#utility.yul\":6946:6955   */\n      dup3\n        /* \"#utility.yul\":6942:6960   */\n      add\n        /* \"#utility.yul\":6934:6960   */\n      swap1\n      pop\n        /* \"#utility.yul\":6970:7041   */\n      tag_134\n        /* \"#utility.yul\":7038:7039   */\n      0x00\n        /* \"#utility.yul\":7027:7036   */\n      dup4\n        /* \"#utility.yul\":7023:7040   */\n      add\n        /* \"#utility.yul\":7014:7020   */\n      dup7\n        /* \"#utility.yul\":6970:7041   */\n      tag_65\n      jump\t// in\n    tag_134:\n        /* \"#utility.yul\":7051:7123   */\n      tag_135\n        /* \"#utility.yul\":7119:7121   */\n      0x20\n        /* \"#utility.yul\":7108:7117   */\n      dup4\n        /* \"#utility.yul\":7104:7122   */\n      add\n        /* \"#utility.yul\":7095:7101   */\n      dup6\n        /* \"#utility.yul\":7051:7123   */\n      tag_65\n      jump\t// in\n    tag_135:\n        /* \"#utility.yul\":7133:7205   */\n      tag_136\n        /* \"#utility.yul\":7201:7203   */\n      0x40\n        /* \"#utility.yul\":7190:7199   */\n      dup4\n        /* \"#utility.yul\":7186:7204   */\n      add\n        /* \"#utility.yul\":7177:7183   */\n      dup5\n        /* \"#utility.yul\":7133:7205   */\n      tag_66\n      jump\t// in\n    tag_136:\n        /* \"#utility.yul\":6770:7212   */\n      swap5\n      swap4\n      pop\n      pop\n      pop\n      pop\n      jump\t// out\n        /* \"#utility.yul\":7218:7308   */\n    tag_67:\n        /* \"#utility.yul\":7252:7259   */\n      0x00\n        /* \"#utility.yul\":7295:7300   */\n      dup2\n        /* \"#utility.yul\":7288:7301   */\n      iszero\n        /* \"#utility.yul\":7281:7302   */\n      iszero\n        /* \"#utility.yul\":7270:7302   */\n      swap1\n      pop\n        /* \"#utility.yul\":7218:7308   */\n      swap2\n      swap1\n      pop\n      jump\t// out\n        /* \"#utility.yul\":7314:7430   */\n    tag_68:\n        /* \"#utility.yul\":7384:7405   */\n      tag_139\n        /* \"#utility.yul\":7399:7404   */\n      dup2\n        /* \"#utility.yul\":7384:7405   */\n      tag_67\n      jump\t// in\n    tag_139:\n        /* \"#utility.yul\":7377:7382   */\n      dup2\n        /* \"#utility.yul\":7374:7406   */\n      eq\n        /* \"#utility.yul\":7364:7424   */\n      tag_140\n      jumpi\n        /* \"#utility.yul\":7420:7421   */\n      0x00\n        /* \"#utility.yul\":7417:7418   */\n      dup1\n        /* \"#utility.yul\":7410:7422   */\n      revert\n        /* \"#utility.yul\":7364:7424   */\n    tag_140:\n        /* \"#utility.yul\":7314:7430   */\n      pop\n      jump\t// out\n        /* \"#utility.yul\":7436:7573   */\n    tag_69:\n        /* \"#utility.yul\":7490:7495   */\n      0x00\n        /* \"#utility.yul\":7521:7527   */\n      dup2\n        /* \"#utility.yul\":7515:7528   */\n      mload\n        /* \"#utility.yul\":7506:7528   */\n      swap1\n      pop\n        /* \"#utility.yul\":7537:7567   */\n      tag_142\n        /* \"#utility.yul\":7561:7566   */\n      dup2\n        /* \"#utility.yul\":7537:7567   */\n      tag_68\n      jump\t// in\n    tag_142:\n        /* \"#utility.yul\":7436:7573   */\n      swap3\n      swap2\n      pop\n      pop\n      jump\t// out\n        /* \"#utility.yul\":7579:7924   */\n    tag_31:\n        /* \"#utility.yul\":7646:7652   */\n      0x00\n        /* \"#utility.yul\":7695:7697   */\n      0x20\n        /* \"#utility.yul\":7683:7692   */\n      dup3\n        /* \"#utility.yul\":7674:7681   */\n      dup5\n        /* \"#utility.yul\":7670:7693   */\n      sub\n        /* \"#utility.yul\":7666:7698   */\n      slt\n        /* \"#utility.yul\":7663:7782   */\n      iszero\n      tag_144\n      jumpi\n        /* \"#utility.yul\":7701:7780   */\n      tag_145\n      tag_47\n      jump\t// in\n    tag_145:\n        /* \"#utility.yul\":7663:7782   */\n    tag_144:\n        /* \"#utility.yul\":7821:7822   */\n      0x00\n        /* \"#utility.yul\":7846:7907   */\n      tag_146\n        /* \"#utility.yul\":7899:7906   */\n      dup5\n        /* \"#utility.yul\":7890:7896   */\n      dup3\n        /* \"#utility.yul\":7879:7888   */\n      dup6\n        /* \"#utility.yul\":7875:7897   */\n      add\n        /* \"#utility.yul\":7846:7907   */\n      tag_69\n      jump\t// in\n    tag_146:\n        /* \"#utility.yul\":7836:7907   */\n      swap2\n      pop\n        /* \"#utility.yul\":7792:7917   */\n      pop\n        /* \"#utility.yul\":7579:7924   */\n      swap3\n      swap2\n      pop\n      pop\n      jump\t// out\n        /* \"#utility.yul\":7930:8101   */\n    tag_70:\n        /* \"#utility.yul\":8070:8093   */\n      0x546f6b656e207472616e73666572206661696c65640000000000000000000000\n        /* \"#utility.yul\":8066:8067   */\n      0x00\n        /* \"#utility.yul\":8058:8064   */\n      dup3\n        /* \"#utility.yul\":8054:8068   */\n      add\n        /* \"#utility.yul\":8047:8094   */\n      mstore\n        /* \"#utility.yul\":7930:8101   */\n      pop\n      jump\t// out\n        /* \"#utility.yul\":8107:8473   */\n    tag_71:\n        /* \"#utility.yul\":8249:8252   */\n      0x00\n        /* \"#utility.yul\":8270:8337   */\n      tag_149\n        /* \"#utility.yul\":8334:8336   */\n      0x15\n        /* \"#utility.yul\":8329:8332   */\n      dup4\n        /* \"#utility.yul\":8270:8337   */\n      tag_56\n      jump\t// in\n    tag_149:\n        /* \"#utility.yul\":8263:8337   */\n      swap2\n      pop\n        /* \"#utility.yul\":8346:8439   */\n      tag_150\n        /* \"#utility.yul\":8435:8438   */\n      dup3\n        /* \"#utility.yul\":8346:8439   */\n      tag_70\n      jump\t// in\n    tag_150:\n        /* \"#utility.yul\":8464:8466   */\n      0x20\n        /* \"#utility.yul\":8459:8462   */\n      dup3\n        /* \"#utility.yul\":8455:8467   */\n      add\n        /* \"#utility.yul\":8448:8467   */\n      swap1\n      pop\n        /* \"#utility.yul\":8107:8473   */\n      swap2\n      swap1\n      pop\n      jump\t// out\n        /* \"#utility.yul\":8479:8898   */\n    tag_34:\n        /* \"#utility.yul\":8645:8649   */\n      0x00\n        /* \"#utility.yul\":8683:8685   */\n      0x20\n        /* \"#utility.yul\":8672:8681   */\n      dup3\n        /* \"#utility.yul\":8668:8686   */\n      add\n        /* \"#utility.yul\":8660:8686   */\n      swap1\n      pop\n        /* \"#utility.yul\":8732:8741   */\n      dup2\n        /* \"#utility.yul\":8726:8730   */\n      dup2\n        /* \"#utility.yul\":8722:8742   */\n      sub\n        /* \"#utility.yul\":8718:8719   */\n      0x00\n        /* \"#utility.yul\":8707:8716   */\n      dup4\n        /* \"#utility.yul\":8703:8720   */\n      add\n        /* \"#utility.yul\":8696:8743   */\n      mstore\n        /* \"#utility.yul\":8760:8891   */\n      tag_152\n        /* \"#utility.yul\":8886:8890   */\n      dup2\n        /* \"#utility.yul\":8760:8891   */\n      tag_71\n      jump\t// in\n    tag_152:\n        /* \"#utility.yul\":8752:8891   */\n      swap1\n      pop\n        /* \"#utility.yul\":8479:8898   */\n      swap2\n      swap1\n      pop\n      jump\t// out\n        /* \"#utility.yul\":8904:9126   */\n    tag_36:\n        /* \"#utility.yul\":8997:9001   */\n      0x00\n        /* \"#utility.yul\":9035:9037   */\n      0x20\n        /* \"#utility.yul\":9024:9033   */\n      dup3\n        /* \"#utility.yul\":9020:9038   */\n      add\n        /* \"#utility.yul\":9012:9038   */\n      swap1\n      pop\n        /* \"#utility.yul\":9048:9119   */\n      tag_154\n        /* \"#utility.yul\":9116:9117   */\n      0x00\n        /* \"#utility.yul\":9105:9114   */\n      dup4\n        /* \"#utility.yul\":9101:9118   */\n      add\n        /* \"#utility.yul\":9092:9098   */\n      dup5\n        /* \"#utility.yul\":9048:9119   */\n      tag_66\n      jump\t// in\n    tag_154:\n        /* \"#utility.yul\":8904:9126   */\n      swap3\n      swap2\n      pop\n      pop\n      jump\t// out\n        /* \"#utility.yul\":9132:9300   */\n    tag_72:\n        /* \"#utility.yul\":9272:9292   */\n      0x496e76616c69642045544820616d6f756e740000000000000000000000000000\n        /* \"#utility.yul\":9268:9269   */\n      0x00\n        /* \"#utility.yul\":9260:9266   */\n      dup3\n        /* \"#utility.yul\":9256:9270   */\n      add\n        /* \"#utility.yul\":9249:9293   */\n      mstore\n        /* \"#utility.yul\":9132:9300   */\n      pop\n      jump\t// out\n        /* \"#utility.yul\":9306:9672   */\n    tag_73:\n        /* \"#utility.yul\":9448:9451   */\n      0x00\n        /* \"#utility.yul\":9469:9536   */\n      tag_157\n        /* \"#utility.yul\":9533:9535   */\n      0x12\n        /* \"#utility.yul\":9528:9531   */\n      dup4\n        /* \"#utility.yul\":9469:9536   */\n      tag_56\n      jump\t// in\n    tag_157:\n        /* \"#utility.yul\":9462:9536   */\n      swap2\n      pop\n        /* \"#utility.yul\":9545:9638   */\n      tag_158\n        /* \"#utility.yul\":9634:9637   */\n      dup3\n        /* \"#utility.yul\":9545:9638   */\n      tag_72\n      jump\t// in\n    tag_158:\n        /* \"#utility.yul\":9663:9665   */\n      0x20\n        /* \"#utility.yul\":9658:9661   */\n      dup3\n        /* \"#utility.yul\":9654:9666   */\n      add\n        /* \"#utility.yul\":9647:9666   */\n      swap1\n      pop\n        /* \"#utility.yul\":9306:9672   */\n      swap2\n      swap1\n      pop\n      jump\t// out\n        /* \"#utility.yul\":9678:10097   */\n    tag_40:\n        /* \"#utility.yul\":9844:9848   */\n      0x00\n        /* \"#utility.yul\":9882:9884   */\n      0x20\n        /* \"#utility.yul\":9871:9880   */\n      dup3\n        /* \"#utility.yul\":9867:9885   */\n      add\n        /* \"#utility.yul\":9859:9885   */\n      swap1\n      pop\n        /* \"#utility.yul\":9931:9940   */\n      dup2\n        /* \"#utility.yul\":9925:9929   */\n      dup2\n        /* \"#utility.yul\":9921:9941   */\n      sub\n        /* \"#utility.yul\":9917:9918   */\n      0x00\n        /* \"#utility.yul\":9906:9915   */\n      dup4\n        /* \"#utility.yul\":9902:9919   */\n      add\n        /* \"#utility.yul\":9895:9942   */\n      mstore\n        /* \"#utility.yul\":9959:10090   */\n      tag_160\n        /* \"#utility.yul\":10085:10089   */\n      dup2\n        /* \"#utility.yul\":9959:10090   */\n      tag_73\n      jump\t// in\n    tag_160:\n        /* \"#utility.yul\":9951:10090   */\n      swap1\n      pop\n        /* \"#utility.yul\":9678:10097   */\n      swap2\n      swap1\n      pop\n      jump\t// out\n\n    auxdata: 0xa264697066735822122071c84cdb14bd561c9002238419fa5cb5e13de1ce3ee7d0d4adf19ec18e89adf564736f6c63430008180033\n}\n",
				"bytecode": {
					"linkReferences": {},
					"object": "608060405234801561000f575f80fd5b506109928061001d5f395ff3fe608060405260043610610028575f3560e01c80631bf07ad91461002c57806320ac064214610054575b5f80fd5b348015610037575f80fd5b50610052600480360381019061004d919061056e565b610070565b005b61006e600480360381019061006991906105d2565b61033f565b005b5f73ffffffffffffffffffffffffffffffffffffffff168473ffffffffffffffffffffffffffffffffffffffff16036100de576040517f08c379a00000000000000000000000000000000000000000000000000000000081526004016100d59061066a565b60405180910390fd5b5f8311610120576040517f08c379a0000000000000000000000000000000000000000000000000000000008152600401610117906106d2565b60405180910390fd5b5f73ffffffffffffffffffffffffffffffffffffffff168273ffffffffffffffffffffffffffffffffffffffff160361018e576040517f08c379a00000000000000000000000000000000000000000000000000000000081526004016101859061073a565b60405180910390fd5b5f73ffffffffffffffffffffffffffffffffffffffff168173ffffffffffffffffffffffffffffffffffffffff16036101fc576040517f08c379a00000000000000000000000000000000000000000000000000000000081526004016101f3906107a2565b60405180910390fd5b5f8490508073ffffffffffffffffffffffffffffffffffffffff166323b872dd3330876040518463ffffffff1660e01b815260040161023d939291906107de565b6020604051808303815f875af1158015610259573d5f803e3d5ffd5b505050506040513d601f19601f8201168201806040525081019061027d9190610848565b6102bc576040517f08c379a00000000000000000000000000000000000000000000000000000000081526004016102b3906108bd565b60405180910390fd5b8173ffffffffffffffffffffffffffffffffffffffff168373ffffffffffffffffffffffffffffffffffffffff163373ffffffffffffffffffffffffffffffffffffffff167f4a060e13dfcf0a43583fc42ed986145b0b079e634722659e51d94f8ffeda8c718760405161033091906108db565b60405180910390a45050505050565b5f3411610381576040517f08c379a00000000000000000000000000000000000000000000000000000000081526004016103789061093e565b60405180910390fd5b5f73ffffffffffffffffffffffffffffffffffffffff168273ffffffffffffffffffffffffffffffffffffffff16036103ef576040517f08c379a00000000000000000000000000000000000000000000000000000000081526004016103e69061073a565b60405180910390fd5b5f73ffffffffffffffffffffffffffffffffffffffff168173ffffffffffffffffffffffffffffffffffffffff160361045d576040517f08c379a0000000000000000000000000000000000000000000000000000000008152600401610454906107a2565b60405180910390fd5b8073ffffffffffffffffffffffffffffffffffffffff168273ffffffffffffffffffffffffffffffffffffffff163373ffffffffffffffffffffffffffffffffffffffff167f4a060e13dfcf0a43583fc42ed986145b0b079e634722659e51d94f8ffeda8c71346040516104d191906108db565b60405180910390a45050565b5f80fd5b5f73ffffffffffffffffffffffffffffffffffffffff82169050919050565b5f61050a826104e1565b9050919050565b61051a81610500565b8114610524575f80fd5b50565b5f8135905061053581610511565b92915050565b5f819050919050565b61054d8161053b565b8114610557575f80fd5b50565b5f8135905061056881610544565b92915050565b5f805f8060808587031215610586576105856104dd565b5b5f61059387828801610527565b94505060206105a48782880161055a565b93505060406105b587828801610527565b92505060606105c687828801610527565b91505092959194509250565b5f80604083850312156105e8576105e76104dd565b5b5f6105f585828601610527565b925050602061060685828601610527565b9150509250929050565b5f82825260208201905092915050565b7f496e76616c696420746f6b656e206164647265737300000000000000000000005f82015250565b5f610654601583610610565b915061065f82610620565b602082019050919050565b5f6020820190508181035f83015261068181610648565b9050919050565b7f496e76616c696420616d6f756e740000000000000000000000000000000000005f82015250565b5f6106bc600e83610610565b91506106c782610688565b602082019050919050565b5f6020820190508181035f8301526106e9816106b0565b9050919050565b7f496e76616c69642074617267657420636861696e2061646472657373000000005f82015250565b5f610724601c83610610565b915061072f826106f0565b602082019050919050565b5f6020820190508181035f83015261075181610718565b9050919050565b7f496e76616c6964207265636569766572206164647265737300000000000000005f82015250565b5f61078c601883610610565b915061079782610758565b602082019050919050565b5f6020820190508181035f8301526107b981610780565b9050919050565b6107c981610500565b82525050565b6107d88161053b565b82525050565b5f6060820190506107f15f8301866107c0565b6107fe60208301856107c0565b61080b60408301846107cf565b949350505050565b5f8115159050919050565b61082781610813565b8114610831575f80fd5b50565b5f815190506108428161081e565b92915050565b5f6020828403121561085d5761085c6104dd565b5b5f61086a84828501610834565b91505092915050565b7f546f6b656e207472616e73666572206661696c656400000000000000000000005f82015250565b5f6108a7601583610610565b91506108b282610873565b602082019050919050565b5f6020820190508181035f8301526108d48161089b565b9050919050565b5f6020820190506108ee5f8301846107cf565b92915050565b7f496e76616c69642045544820616d6f756e7400000000000000000000000000005f82015250565b5f610928601283610610565b9150610933826108f4565b602082019050919050565b5f6020820190508181035f8301526109558161091c565b905091905056fea264697066735822122071c84cdb14bd561c9002238419fa5cb5e13de1ce3ee7d0d4adf19ec18e89adf564736f6c63430008180033",
					"opcodes": "PUSH1 0x80 PUSH1 0x40 MSTORE CALLVALUE DUP1 ISZERO PUSH2 0xF JUMPI PUSH0 DUP1 REVERT JUMPDEST POP PUSH2 0x992 DUP1 PUSH2 0x1D PUSH0 CODECOPY PUSH0 RETURN INVALID PUSH1 0x80 PUSH1 0x40 MSTORE PUSH1 0x4 CALLDATASIZE LT PUSH2 0x28 JUMPI PUSH0 CALLDATALOAD PUSH1 0xE0 SHR DUP1 PUSH4 0x1BF07AD9 EQ PUSH2 0x2C JUMPI DUP1 PUSH4 0x20AC0642 EQ PUSH2 0x54 JUMPI JUMPDEST PUSH0 DUP1 REVERT JUMPDEST CALLVALUE DUP1 ISZERO PUSH2 0x37 JUMPI PUSH0 DUP1 REVERT JUMPDEST POP PUSH2 0x52 PUSH1 0x4 DUP1 CALLDATASIZE SUB DUP2 ADD SWAP1 PUSH2 0x4D SWAP2 SWAP1 PUSH2 0x56E JUMP JUMPDEST PUSH2 0x70 JUMP JUMPDEST STOP JUMPDEST PUSH2 0x6E PUSH1 0x4 DUP1 CALLDATASIZE SUB DUP2 ADD SWAP1 PUSH2 0x69 SWAP2 SWAP1 PUSH2 0x5D2 JUMP JUMPDEST PUSH2 0x33F JUMP JUMPDEST STOP JUMPDEST PUSH0 PUSH20 0xFFFFFFFFFFFFFFFFFFFFFFFFFFFFFFFFFFFFFFFF AND DUP5 PUSH20 0xFFFFFFFFFFFFFFFFFFFFFFFFFFFFFFFFFFFFFFFF AND SUB PUSH2 0xDE JUMPI PUSH1 0x40 MLOAD PUSH32 0x8C379A000000000000000000000000000000000000000000000000000000000 DUP2 MSTORE PUSH1 0x4 ADD PUSH2 0xD5 SWAP1 PUSH2 0x66A JUMP JUMPDEST PUSH1 0x40 MLOAD DUP1 SWAP2 SUB SWAP1 REVERT JUMPDEST PUSH0 DUP4 GT PUSH2 0x120 JUMPI PUSH1 0x40 MLOAD PUSH32 0x8C379A000000000000000000000000000000000000000000000000000000000 DUP2 MSTORE PUSH1 0x4 ADD PUSH2 0x117 SWAP1 PUSH2 0x6D2 JUMP JUMPDEST PUSH1 0x40 MLOAD DUP1 SWAP2 SUB SWAP1 REVERT JUMPDEST PUSH0 PUSH20 0xFFFFFFFFFFFFFFFFFFFFFFFFFFFFFFFFFFFFFFFF AND DUP3 PUSH20 0xFFFFFFFFFFFFFFFFFFFFFFFFFFFFFFFFFFFFFFFF AND SUB PUSH2 0x18E JUMPI PUSH1 0x40 MLOAD PUSH32 0x8C379A000000000000000000000000000000000000000000000000000000000 DUP2 MSTORE PUSH1 0x4 ADD PUSH2 0x185 SWAP1 PUSH2 0x73A JUMP JUMPDEST PUSH1 0x40 MLOAD DUP1 SWAP2 SUB SWAP1 REVERT JUMPDEST PUSH0 PUSH20 0xFFFFFFFFFFFFFFFFFFFFFFFFFFFFFFFFFFFFFFFF AND DUP2 PUSH20 0xFFFFFFFFFFFFFFFFFFFFFFFFFFFFFFFFFFFFFFFF AND SUB PUSH2 0x1FC JUMPI PUSH1 0x40 MLOAD PUSH32 0x8C379A000000000000000000000000000000000000000000000000000000000 DUP2 MSTORE PUSH1 0x4 ADD PUSH2 0x1F3 SWAP1 PUSH2 0x7A2 JUMP JUMPDEST PUSH1 0x40 MLOAD DUP1 SWAP2 SUB SWAP1 REVERT JUMPDEST PUSH0 DUP5 SWAP1 POP DUP1 PUSH20 0xFFFFFFFFFFFFFFFFFFFFFFFFFFFFFFFFFFFFFFFF AND PUSH4 0x23B872DD CALLER ADDRESS DUP8 PUSH1 0x40 MLOAD DUP5 PUSH4 0xFFFFFFFF AND PUSH1 0xE0 SHL DUP2 MSTORE PUSH1 0x4 ADD PUSH2 0x23D SWAP4 SWAP3 SWAP2 SWAP1 PUSH2 0x7DE JUMP JUMPDEST PUSH1 0x20 PUSH1 0x40 MLOAD DUP1 DUP4 SUB DUP2 PUSH0 DUP8 GAS CALL ISZERO DUP1 ISZERO PUSH2 0x259 JUMPI RETURNDATASIZE PUSH0 DUP1 RETURNDATACOPY RETURNDATASIZE PUSH0 REVERT JUMPDEST POP POP POP POP PUSH1 0x40 MLOAD RETURNDATASIZE PUSH1 0x1F NOT PUSH1 0x1F DUP3 ADD AND DUP3 ADD DUP1 PUSH1 0x40 MSTORE POP DUP2 ADD SWAP1 PUSH2 0x27D SWAP2 SWAP1 PUSH2 0x848 JUMP JUMPDEST PUSH2 0x2BC JUMPI PUSH1 0x40 MLOAD PUSH32 0x8C379A000000000000000000000000000000000000000000000000000000000 DUP2 MSTORE PUSH1 0x4 ADD PUSH2 0x2B3 SWAP1 PUSH2 0x8BD JUMP JUMPDEST PUSH1 0x40 MLOAD DUP1 SWAP2 SUB SWAP1 REVERT JUMPDEST DUP2 PUSH20 0xFFFFFFFFFFFFFFFFFFFFFFFFFFFFFFFFFFFFFFFF AND DUP4 PUSH20 0xFFFFFFFFFFFFFFFFFFFFFFFFFFFFFFFFFFFFFFFF AND CALLER PUSH20 0xFFFFFFFFFFFFFFFFFFFFFFFFFFFFFFFFFFFFFFFF AND PUSH32 0x4A060E13DFCF0A43583FC42ED986145B0B079E634722659E51D94F8FFEDA8C71 DUP8 PUSH1 0x40 MLOAD PUSH2 0x330 SWAP2 SWAP1 PUSH2 0x8DB JUMP JUMPDEST PUSH1 0x40 MLOAD DUP1 SWAP2 SUB SWAP1 LOG4 POP POP POP POP POP JUMP JUMPDEST PUSH0 CALLVALUE GT PUSH2 0x381 JUMPI PUSH1 0x40 MLOAD PUSH32 0x8C379A000000000000000000000000000000000000000000000000000000000 DUP2 MSTORE PUSH1 0x4 ADD PUSH2 0x378 SWAP1 PUSH2 0x93E JUMP JUMPDEST PUSH1 0x40 MLOAD DUP1 SWAP2 SUB SWAP1 REVERT JUMPDEST PUSH0 PUSH20 0xFFFFFFFFFFFFFFFFFFFFFFFFFFFFFFFFFFFFFFFF AND DUP3 PUSH20 0xFFFFFFFFFFFFFFFFFFFFFFFFFFFFFFFFFFFFFFFF AND SUB PUSH2 0x3EF JUMPI PUSH1 0x40 MLOAD PUSH32 0x8C379A000000000000000000000000000000000000000000000000000000000 DUP2 MSTORE PUSH1 0x4 ADD PUSH2 0x3E6 SWAP1 PUSH2 0x73A JUMP JUMPDEST PUSH1 0x40 MLOAD DUP1 SWAP2 SUB SWAP1 REVERT JUMPDEST PUSH0 PUSH20 0xFFFFFFFFFFFFFFFFFFFFFFFFFFFFFFFFFFFFFFFF AND DUP2 PUSH20 0xFFFFFFFFFFFFFFFFFFFFFFFFFFFFFFFFFFFFFFFF AND SUB PUSH2 0x45D JUMPI PUSH1 0x40 MLOAD PUSH32 0x8C379A000000000000000000000000000000000000000000000000000000000 DUP2 MSTORE PUSH1 0x4 ADD PUSH2 0x454 SWAP1 PUSH2 0x7A2 JUMP JUMPDEST PUSH1 0x40 MLOAD DUP1 SWAP2 SUB SWAP1 REVERT JUMPDEST DUP1 PUSH20 0xFFFFFFFFFFFFFFFFFFFFFFFFFFFFFFFFFFFFFFFF AND DUP3 PUSH20 0xFFFFFFFFFFFFFFFFFFFFFFFFFFFFFFFFFFFFFFFF AND CALLER PUSH20 0xFFFFFFFFFFFFFFFFFFFFFFFFFFFFFFFFFFFFFFFF AND PUSH32 0x4A060E13DFCF0A43583FC42ED986145B0B079E634722659E51D94F8FFEDA8C71 CALLVALUE PUSH1 0x40 MLOAD PUSH2 0x4D1 SWAP2 SWAP1 PUSH2 0x8DB JUMP JUMPDEST PUSH1 0x40 MLOAD DUP1 SWAP2 SUB SWAP1 LOG4 POP POP JUMP JUMPDEST PUSH0 DUP1 REVERT JUMPDEST PUSH0 PUSH20 0xFFFFFFFFFFFFFFFFFFFFFFFFFFFFFFFFFFFFFFFF DUP3 AND SWAP1 POP SWAP2 SWAP1 POP JUMP JUMPDEST PUSH0 PUSH2 0x50A DUP3 PUSH2 0x4E1 JUMP JUMPDEST SWAP1 POP SWAP2 SWAP1 POP JUMP JUMPDEST PUSH2 0x51A DUP2 PUSH2 0x500 JUMP JUMPDEST DUP2 EQ PUSH2 0x524 JUMPI PUSH0 DUP1 REVERT JUMPDEST POP JUMP JUMPDEST PUSH0 DUP2 CALLDATALOAD SWAP1 POP PUSH2 0x535 DUP2 PUSH2 0x511 JUMP JUMPDEST SWAP3 SWAP2 POP POP JUMP JUMPDEST PUSH0 DUP2 SWAP1 POP SWAP2 SWAP1 POP JUMP JUMPDEST PUSH2 0x54D DUP2 PUSH2 0x53B JUMP JUMPDEST DUP2 EQ PUSH2 0x557 JUMPI PUSH0 DUP1 REVERT JUMPDEST POP JUMP JUMPDEST PUSH0 DUP2 CALLDATALOAD SWAP1 POP PUSH2 0x568 DUP2 PUSH2 0x544 JUMP JUMPDEST SWAP3 SWAP2 POP POP JUMP JUMPDEST PUSH0 DUP1 PUSH0 DUP1 PUSH1 0x80 DUP6 DUP8 SUB SLT ISZERO PUSH2 0x586 JUMPI PUSH2 0x585 PUSH2 0x4DD JUMP JUMPDEST JUMPDEST PUSH0 PUSH2 0x593 DUP8 DUP3 DUP9 ADD PUSH2 0x527 JUMP JUMPDEST SWAP5 POP POP PUSH1 0x20 PUSH2 0x5A4 DUP8 DUP3 DUP9 ADD PUSH2 0x55A JUMP JUMPDEST SWAP4 POP POP PUSH1 0x40 PUSH2 0x5B5 DUP8 DUP3 DUP9 ADD PUSH2 0x527 JUMP JUMPDEST SWAP3 POP POP PUSH1 0x60 PUSH2 0x5C6 DUP8 DUP3 DUP9 ADD PUSH2 0x527 JUMP JUMPDEST SWAP2 POP POP SWAP3 SWAP6 SWAP2 SWAP5 POP SWAP3 POP JUMP JUMPDEST PUSH0 DUP1 PUSH1 0x40 DUP4 DUP6 SUB SLT ISZERO PUSH2 0x5E8 JUMPI PUSH2 0x5E7 PUSH2 0x4DD JUMP JUMPDEST JUMPDEST PUSH0 PUSH2 0x5F5 DUP6 DUP3 DUP7 ADD PUSH2 0x527 JUMP JUMPDEST SWAP3 POP POP PUSH1 0x20 PUSH2 0x606 DUP6 DUP3 DUP7 ADD PUSH2 0x527 JUMP JUMPDEST SWAP2 POP POP SWAP3 POP SWAP3 SWAP1 POP JUMP JUMPDEST PUSH0 DUP3 DUP3 MSTORE PUSH1 0x20 DUP3 ADD SWAP1 POP SWAP3 SWAP2 POP POP JUMP JUMPDEST PUSH32 0x496E76616C696420746F6B656E20616464726573730000000000000000000000 PUSH0 DUP3 ADD MSTORE POP JUMP JUMPDEST PUSH0 PUSH2 0x654 PUSH1 0x15 DUP4 PUSH2 0x610 JUMP JUMPDEST SWAP2 POP PUSH2 0x65F DUP3 PUSH2 0x620 JUMP JUMPDEST PUSH1 0x20 DUP3 ADD SWAP1 POP SWAP2 SWAP1 POP JUMP JUMPDEST PUSH0 PUSH1 0x20 DUP3 ADD SWAP1 POP DUP2 DUP2 SUB PUSH0 DUP4 ADD MSTORE PUSH2 0x681 DUP2 PUSH2 0x648 JUMP JUMPDEST SWAP1 POP SWAP2 SWAP1 POP JUMP JUMPDEST PUSH32 0x496E76616C696420616D6F756E74000000000000000000000000000000000000 PUSH0 DUP3 ADD MSTORE POP JUMP JUMPDEST PUSH0 PUSH2 0x6BC PUSH1 0xE DUP4 PUSH2 0x610 JUMP JUMPDEST SWAP2 POP PUSH2 0x6C7 DUP3 PUSH2 0x688 JUMP JUMPDEST PUSH1 0x20 DUP3 ADD SWAP1 POP SWAP2 SWAP1 POP JUMP JUMPDEST PUSH0 PUSH1 0x20 DUP3 ADD SWAP1 POP DUP2 DUP2 SUB PUSH0 DUP4 ADD MSTORE PUSH2 0x6E9 DUP2 PUSH2 0x6B0 JUMP JUMPDEST SWAP1 POP SWAP2 SWAP1 POP JUMP JUMPDEST PUSH32 0x496E76616C69642074617267657420636861696E206164647265737300000000 PUSH0 DUP3 ADD MSTORE POP JUMP JUMPDEST PUSH0 PUSH2 0x724 PUSH1 0x1C DUP4 PUSH2 0x610 JUMP JUMPDEST SWAP2 POP PUSH2 0x72F DUP3 PUSH2 0x6F0 JUMP JUMPDEST PUSH1 0x20 DUP3 ADD SWAP1 POP SWAP2 SWAP1 POP JUMP JUMPDEST PUSH0 PUSH1 0x20 DUP3 ADD SWAP1 POP DUP2 DUP2 SUB PUSH0 DUP4 ADD MSTORE PUSH2 0x751 DUP2 PUSH2 0x718 JUMP JUMPDEST SWAP1 POP SWAP2 SWAP1 POP JUMP JUMPDEST PUSH32 0x496E76616C696420726563656976657220616464726573730000000000000000 PUSH0 DUP3 ADD MSTORE POP JUMP JUMPDEST PUSH0 PUSH2 0x78C PUSH1 0x18 DUP4 PUSH2 0x610 JUMP JUMPDEST SWAP2 POP PUSH2 0x797 DUP3 PUSH2 0x758 JUMP JUMPDEST PUSH1 0x20 DUP3 ADD SWAP1 POP SWAP2 SWAP1 POP JUMP JUMPDEST PUSH0 PUSH1 0x20 DUP3 ADD SWAP1 POP DUP2 DUP2 SUB PUSH0 DUP4 ADD MSTORE PUSH2 0x7B9 DUP2 PUSH2 0x780 JUMP JUMPDEST SWAP1 POP SWAP2 SWAP1 POP JUMP JUMPDEST PUSH2 0x7C9 DUP2 PUSH2 0x500 JUMP JUMPDEST DUP3 MSTORE POP POP JUMP JUMPDEST PUSH2 0x7D8 DUP2 PUSH2 0x53B JUMP JUMPDEST DUP3 MSTORE POP POP JUMP JUMPDEST PUSH0 PUSH1 0x60 DUP3 ADD SWAP1 POP PUSH2 0x7F1 PUSH0 DUP4 ADD DUP7 PUSH2 0x7C0 JUMP JUMPDEST PUSH2 0x7FE PUSH1 0x20 DUP4 ADD DUP6 PUSH2 0x7C0 JUMP JUMPDEST PUSH2 0x80B PUSH1 0x40 DUP4 ADD DUP5 PUSH2 0x7CF JUMP JUMPDEST SWAP5 SWAP4 POP POP POP POP JUMP JUMPDEST PUSH0 DUP2 ISZERO ISZERO SWAP1 POP SWAP2 SWAP1 POP JUMP JUMPDEST PUSH2 0x827 DUP2 PUSH2 0x813 JUMP JUMPDEST DUP2 EQ PUSH2 0x831 JUMPI PUSH0 DUP1 REVERT JUMPDEST POP JUMP JUMPDEST PUSH0 DUP2 MLOAD SWAP1 POP PUSH2 0x842 DUP2 PUSH2 0x81E JUMP JUMPDEST SWAP3 SWAP2 POP POP JUMP JUMPDEST PUSH0 PUSH1 0x20 DUP3 DUP5 SUB SLT ISZERO PUSH2 0x85D JUMPI PUSH2 0x85C PUSH2 0x4DD JUMP JUMPDEST JUMPDEST PUSH0 PUSH2 0x86A DUP5 DUP3 DUP6 ADD PUSH2 0x834 JUMP JUMPDEST SWAP2 POP POP SWAP3 SWAP2 POP POP JUMP JUMPDEST PUSH32 0x546F6B656E207472616E73666572206661696C65640000000000000000000000 PUSH0 DUP3 ADD MSTORE POP JUMP JUMPDEST PUSH0 PUSH2 0x8A7 PUSH1 0x15 DUP4 PUSH2 0x610 JUMP JUMPDEST SWAP2 POP PUSH2 0x8B2 DUP3 PUSH2 0x873 JUMP JUMPDEST PUSH1 0x20 DUP3 ADD SWAP1 POP SWAP2 SWAP1 POP JUMP JUMPDEST PUSH0 PUSH1 0x20 DUP3 ADD SWAP1 POP DUP2 DUP2 SUB PUSH0 DUP4 ADD MSTORE PUSH2 0x8D4 DUP2 PUSH2 0x89B JUMP JUMPDEST SWAP1 POP SWAP2 SWAP1 POP JUMP JUMPDEST PUSH0 PUSH1 0x20 DUP3 ADD SWAP1 POP PUSH2 0x8EE PUSH0 DUP4 ADD DUP5 PUSH2 0x7CF JUMP JUMPDEST SWAP3 SWAP2 POP POP JUMP JUMPDEST PUSH32 0x496E76616C69642045544820616D6F756E740000000000000000000000000000 PUSH0 DUP3 ADD MSTORE POP JUMP JUMPDEST PUSH0 PUSH2 0x928 PUSH1 0x12 DUP4 PUSH2 0x610 JUMP JUMPDEST SWAP2 POP PUSH2 0x933 DUP3 PUSH2 0x8F4 JUMP JUMPDEST PUSH1 0x20 DUP3 ADD SWAP1 POP SWAP2 SWAP1 POP JUMP JUMPDEST PUSH0 PUSH1 0x20 DUP3 ADD SWAP1 POP DUP2 DUP2 SUB PUSH0 DUP4 ADD MSTORE PUSH2 0x955 DUP2 PUSH2 0x91C JUMP JUMPDEST SWAP1 POP SWAP2 SWAP1 POP JUMP INVALID LOG2 PUSH5 0x6970667358 0x22 SLT KECCAK256 PUSH18 0xC84CDB14BD561C9002238419FA5CB5E13DE1 0xCE RETURNDATACOPY 0xE7 0xD0 0xD4 0xAD CALL SWAP15 0xC1 DUP15 DUP10 0xAD CREATE2 PUSH5 0x736F6C6343 STOP ADDMOD XOR STOP CALLER "
				},
				"gasEstimates": {
					"creation": {
						"codeDepositCost": "490000",
						"executionCost": "522",
						"totalCost": "490522"
					},
					"external": {
						"lockERC20(address,uint256,address,address)": "infinite",
						"lockETH(address,address)": "infinite"
					}
				},
				"methodIdentifiers": {
					"lockERC20(address,uint256,address,address)": "1bf07ad9",
					"lockETH(address,address)": "20ac0642"
				}
			},
			"storageLayout": {
				"storage": [],
				"types": null
			},
			"userdoc": {
				"kind": "user",
				"methods": {
					"lockETH(address,address)": {
						"notice": "Locks native ETH in this contract to be transferred to another chain. targetChain The address of the target chain where the ETH will be moved. receiver The address on the target chain to receive the ETH."
					}
				},
				"version": 1
			}
		}
	}
}