{
	"contracts/Release.sol": {
		"NoEvmRelease": {
			"abi": [
				{
					"inputs": [
						{
							"internalType": "address",
							"name": "_evmBridge",
							"type": "address"
						},
						{
							"internalType": "address",
							"name": "_tokenAddress",
							"type": "address"
						}
					],
					"stateMutability": "nonpayable",
					"type": "constructor"
				},
				{
					"anonymous": false,
					"inputs": [
						{
							"indexed": false,
							"internalType": "address",
							"name": "evmBridge",
							"type": "address"
						},
						{
							"indexed": false,
							"internalType": "address",
							"name": "tokenContract",
							"type": "address"
						}
					],
					"name": "ContractDeployed",
					"type": "event"
				},
				{
					"anonymous": false,
					"inputs": [
						{
							"indexed": true,
							"internalType": "address",
							"name": "sender",
							"type": "address"
						},
						{
							"indexed": true,
							"internalType": "address",
							"name": "targetChain",
							"type": "address"
						},
						{
							"indexed": true,
							"internalType": "address",
							"name": "receiver",
							"type": "address"
						},
						{
							"indexed": false,
							"internalType": "uint256",
							"name": "amount",
							"type": "uint256"
						}
					],
					"name": "TokensLocked",
					"type": "event"
				},
				{
					"anonymous": false,
					"inputs": [
						{
							"indexed": true,
							"internalType": "address",
							"name": "receiver",
							"type": "address"
						},
						{
							"indexed": false,
							"internalType": "uint256",
							"name": "amount",
							"type": "uint256"
						}
					],
					"name": "TokensReleased",
					"type": "event"
				},
				{
					"inputs": [],
					"name": "evmBridge",
					"outputs": [
						{
							"internalType": "address",
							"name": "",
							"type": "address"
						}
					],
					"stateMutability": "view",
					"type": "function"
				},
				{
					"inputs": [
						{
							"internalType": "address",
							"name": "tokenAddress",
							"type": "address"
						},
						{
							"internalType": "uint256",
							"name": "amount",
							"type": "uint256"
						},
						{
							"internalType": "address",
							"name": "targetChain",
							"type": "address"
						},
						{
							"internalType": "address",
							"name": "receiver",
							"type": "address"
						}
					],
					"name": "lockERC20",
					"outputs": [],
					"stateMutability": "nonpayable",
					"type": "function"
				},
				{
					"inputs": [
						{
							"internalType": "address",
							"name": "targetChain",
							"type": "address"
						},
						{
							"internalType": "address",
							"name": "receiver",
							"type": "address"
						}
					],
					"name": "lockETH",
					"outputs": [],
					"stateMutability": "payable",
					"type": "function"
				},
				{
					"inputs": [
						{
							"internalType": "address",
							"name": "receiver",
							"type": "address"
						},
						{
							"internalType": "uint256",
							"name": "amount",
							"type": "uint256"
						}
					],
					"name": "releaseTokens",
					"outputs": [],
					"stateMutability": "nonpayable",
					"type": "function"
				},
				{
					"inputs": [],
					"name": "token",
					"outputs": [
						{
							"internalType": "contract IERC20",
							"name": "",
							"type": "address"
						}
					],
					"stateMutability": "view",
					"type": "function"
				}
			],
			"devdoc": {
				"kind": "dev",
				"methods": {},
				"version": 1
			},
			"evm": {
				"assembly": "    /* \"contracts/Release.sol\":89:2197  contract NoEvmRelease is EVM_side {... */\n  mstore(0x40, 0x80)\n    /* \"contracts/Release.sol\":840:1102  constructor(address _evmBridge, address _tokenAddress) {... */\n  callvalue\n  dup1\n  iszero\n  tag_1\n  jumpi\n  0x00\n  dup1\n  revert\ntag_1:\n  pop\n  mload(0x40)\n  sub(codesize, bytecodeSize)\n  dup1\n  bytecodeSize\n  dup4\n  codecopy\n  dup2\n  dup2\n  add\n  0x40\n  mstore\n  dup2\n  add\n  swap1\n  tag_2\n  swap2\n  swap1\n  tag_3\n  jump\t// in\ntag_2:\n    /* \"contracts/Release.sol\":918:928  _evmBridge */\n  dup2\n    /* \"contracts/Release.sol\":906:915  evmBridge */\n  0x00\n  dup1\n    /* \"contracts/Release.sol\":906:928  evmBridge = _evmBridge */\n  0x0100\n  exp\n  dup2\n  sload\n  dup2\n  0xffffffffffffffffffffffffffffffffffffffff\n  mul\n  not\n  and\n  swap1\n  dup4\n  0xffffffffffffffffffffffffffffffffffffffff\n  and\n  mul\n  or\n  swap1\n  sstore\n  pop\n    /* \"contracts/Release.sol\":954:967  _tokenAddress */\n  dup1\n    /* \"contracts/Release.sol\":939:944  token */\n  0x01\n  0x00\n    /* \"contracts/Release.sol\":939:968  token = IERC20(_tokenAddress) */\n  0x0100\n  exp\n  dup2\n  sload\n  dup2\n  0xffffffffffffffffffffffffffffffffffffffff\n  mul\n  not\n  and\n  swap1\n  dup4\n  0xffffffffffffffffffffffffffffffffffffffff\n  and\n  mul\n  or\n  swap1\n  sstore\n  pop\n    /* \"contracts/Release.sol\":1051:1094  ContractDeployed(_evmBridge, _tokenAddress) */\n  0x33c981baba081f8fd2c52ac6ad1ea95b6814b4376640f55689051f6584729688\n    /* \"contracts/Release.sol\":1068:1078  _evmBridge */\n  dup3\n    /* \"contracts/Release.sol\":1080:1093  _tokenAddress */\n  dup3\n    /* \"contracts/Release.sol\":1051:1094  ContractDeployed(_evmBridge, _tokenAddress) */\n  mload(0x40)\n  tag_6\n  swap3\n  swap2\n  swap1\n  tag_7\n  jump\t// in\ntag_6:\n  mload(0x40)\n  dup1\n  swap2\n  sub\n  swap1\n  log1\n    /* \"contracts/Release.sol\":840:1102  constructor(address _evmBridge, address _tokenAddress) {... */\n  pop\n  pop\n    /* \"contracts/Release.sol\":89:2197  contract NoEvmRelease is EVM_side {... */\n  jump(tag_8)\n    /* \"#utility.yul\":88:205   */\ntag_10:\n    /* \"#utility.yul\":197:198   */\n  0x00\n    /* \"#utility.yul\":194:195   */\n  dup1\n    /* \"#utility.yul\":187:199   */\n  revert\n    /* \"#utility.yul\":334:460   */\ntag_12:\n    /* \"#utility.yul\":371:378   */\n  0x00\n    /* \"#utility.yul\":411:453   */\n  0xffffffffffffffffffffffffffffffffffffffff\n    /* \"#utility.yul\":404:409   */\n  dup3\n    /* \"#utility.yul\":400:454   */\n  and\n    /* \"#utility.yul\":389:454   */\n  swap1\n  pop\n    /* \"#utility.yul\":334:460   */\n  swap2\n  swap1\n  pop\n  jump\t// out\n    /* \"#utility.yul\":466:562   */\ntag_13:\n    /* \"#utility.yul\":503:510   */\n  0x00\n    /* \"#utility.yul\":532:556   */\n  tag_23\n    /* \"#utility.yul\":550:555   */\n  dup3\n    /* \"#utility.yul\":532:556   */\n  tag_12\n  jump\t// in\ntag_23:\n    /* \"#utility.yul\":521:556   */\n  swap1\n  pop\n    /* \"#utility.yul\":466:562   */\n  swap2\n  swap1\n  pop\n  jump\t// out\n    /* \"#utility.yul\":568:690   */\ntag_14:\n    /* \"#utility.yul\":641:665   */\n  tag_25\n    /* \"#utility.yul\":659:664   */\n  dup2\n    /* \"#utility.yul\":641:665   */\n  tag_13\n  jump\t// in\ntag_25:\n    /* \"#utility.yul\":634:639   */\n  dup2\n    /* \"#utility.yul\":631:666   */\n  eq\n    /* \"#utility.yul\":621:684   */\n  tag_26\n  jumpi\n    /* \"#utility.yul\":680:681   */\n  0x00\n    /* \"#utility.yul\":677:678   */\n  dup1\n    /* \"#utility.yul\":670:682   */\n  revert\n    /* \"#utility.yul\":621:684   */\ntag_26:\n    /* \"#utility.yul\":568:690   */\n  pop\n  jump\t// out\n    /* \"#utility.yul\":696:839   */\ntag_15:\n    /* \"#utility.yul\":753:758   */\n  0x00\n    /* \"#utility.yul\":784:790   */\n  dup2\n    /* \"#utility.yul\":778:791   */\n  mload\n    /* \"#utility.yul\":769:791   */\n  swap1\n  pop\n    /* \"#utility.yul\":800:833   */\n  tag_28\n    /* \"#utility.yul\":827:832   */\n  dup2\n    /* \"#utility.yul\":800:833   */\n  tag_14\n  jump\t// in\ntag_28:\n    /* \"#utility.yul\":696:839   */\n  swap3\n  swap2\n  pop\n  pop\n  jump\t// out\n    /* \"#utility.yul\":845:1352   */\ntag_3:\n    /* \"#utility.yul\":924:930   */\n  0x00\n    /* \"#utility.yul\":932:938   */\n  dup1\n    /* \"#utility.yul\":981:983   */\n  0x40\n    /* \"#utility.yul\":969:978   */\n  dup4\n    /* \"#utility.yul\":960:967   */\n  dup6\n    /* \"#utility.yul\":956:979   */\n  sub\n    /* \"#utility.yul\":952:984   */\n  slt\n    /* \"#utility.yul\":949:1068   */\n  iszero\n  tag_30\n  jumpi\n    /* \"#utility.yul\":987:1066   */\n  tag_31\n  tag_10\n  jump\t// in\ntag_31:\n    /* \"#utility.yul\":949:1068   */\ntag_30:\n    /* \"#utility.yul\":1107:1108   */\n  0x00\n    /* \"#utility.yul\":1132:1196   */\n  tag_32\n    /* \"#utility.yul\":1188:1195   */\n  dup6\n    /* \"#utility.yul\":1179:1185   */\n  dup3\n    /* \"#utility.yul\":1168:1177   */\n  dup7\n    /* \"#utility.yul\":1164:1186   */\n  add\n    /* \"#utility.yul\":1132:1196   */\n  tag_15\n  jump\t// in\ntag_32:\n    /* \"#utility.yul\":1122:1196   */\n  swap3\n  pop\n    /* \"#utility.yul\":1078:1206   */\n  pop\n    /* \"#utility.yul\":1245:1247   */\n  0x20\n    /* \"#utility.yul\":1271:1335   */\n  tag_33\n    /* \"#utility.yul\":1327:1334   */\n  dup6\n    /* \"#utility.yul\":1318:1324   */\n  dup3\n    /* \"#utility.yul\":1307:1316   */\n  dup7\n    /* \"#utility.yul\":1303:1325   */\n  add\n    /* \"#utility.yul\":1271:1335   */\n  tag_15\n  jump\t// in\ntag_33:\n    /* \"#utility.yul\":1261:1335   */\n  swap2\n  pop\n    /* \"#utility.yul\":1216:1345   */\n  pop\n    /* \"#utility.yul\":845:1352   */\n  swap3\n  pop\n  swap3\n  swap1\n  pop\n  jump\t// out\n    /* \"#utility.yul\":1358:1476   */\ntag_16:\n    /* \"#utility.yul\":1445:1469   */\n  tag_35\n    /* \"#utility.yul\":1463:1468   */\n  dup2\n    /* \"#utility.yul\":1445:1469   */\n  tag_13\n  jump\t// in\ntag_35:\n    /* \"#utility.yul\":1440:1443   */\n  dup3\n    /* \"#utility.yul\":1433:1470   */\n  mstore\n    /* \"#utility.yul\":1358:1476   */\n  pop\n  pop\n  jump\t// out\n    /* \"#utility.yul\":1482:1814   */\ntag_7:\n    /* \"#utility.yul\":1603:1607   */\n  0x00\n    /* \"#utility.yul\":1641:1643   */\n  0x40\n    /* \"#utility.yul\":1630:1639   */\n  dup3\n    /* \"#utility.yul\":1626:1644   */\n  add\n    /* \"#utility.yul\":1618:1644   */\n  swap1\n  pop\n    /* \"#utility.yul\":1654:1725   */\n  tag_37\n    /* \"#utility.yul\":1722:1723   */\n  0x00\n    /* \"#utility.yul\":1711:1720   */\n  dup4\n    /* \"#utility.yul\":1707:1724   */\n  add\n    /* \"#utility.yul\":1698:1704   */\n  dup6\n    /* \"#utility.yul\":1654:1725   */\n  tag_16\n  jump\t// in\ntag_37:\n    /* \"#utility.yul\":1735:1807   */\n  tag_38\n    /* \"#utility.yul\":1803:1805   */\n  0x20\n    /* \"#utility.yul\":1792:1801   */\n  dup4\n    /* \"#utility.yul\":1788:1806   */\n  add\n    /* \"#utility.yul\":1779:1785   */\n  dup5\n    /* \"#utility.yul\":1735:1807   */\n  tag_16\n  jump\t// in\ntag_38:\n    /* \"#utility.yul\":1482:1814   */\n  swap4\n  swap3\n  pop\n  pop\n  pop\n  jump\t// out\n    /* \"contracts/Release.sol\":89:2197  contract NoEvmRelease is EVM_side {... */\ntag_8:\n  dataSize(sub_0)\n  dup1\n  dataOffset(sub_0)\n  0x00\n  codecopy\n  0x00\n  return\nstop\n\nsub_0: assembly {\n        /* \"contracts/Release.sol\":89:2197  contract NoEvmRelease is EVM_side {... */\n      mstore(0x40, 0x80)\n      jumpi(tag_1, lt(calldatasize, 0x04))\n      shr(0xe0, calldataload(0x00))\n      dup1\n      0x1bf07ad9\n      eq\n      tag_2\n      jumpi\n      dup1\n      0x20ac0642\n      eq\n      tag_3\n      jumpi\n      dup1\n      0x89957c81\n      eq\n      tag_4\n      jumpi\n      dup1\n      0xf40d71f1\n      eq\n      tag_5\n      jumpi\n      dup1\n      0xfc0c546a\n      eq\n      tag_6\n      jumpi\n    tag_1:\n      0x00\n      dup1\n      revert\n        /* \"contracts/TokenLock.sol\":627:1225  function lockERC20(address tokenAddress, uint256 amount, address targetChain, address receiver) external {... */\n    tag_2:\n      callvalue\n      dup1\n      iszero\n      tag_7\n      jumpi\n      0x00\n      dup1\n      revert\n    tag_7:\n      pop\n      tag_8\n      0x04\n      dup1\n      calldatasize\n      sub\n      dup2\n      add\n      swap1\n      tag_9\n      swap2\n      swap1\n      tag_10\n      jump\t// in\n    tag_9:\n      tag_11\n      jump\t// in\n    tag_8:\n      stop\n        /* \"contracts/TokenLock.sol\":1479:1838  function lockETH(address targetChain, address receiver) external payable {... */\n    tag_3:\n      tag_12\n      0x04\n      dup1\n      calldatasize\n      sub\n      dup2\n      add\n      swap1\n      tag_13\n      swap2\n      swap1\n      tag_14\n      jump\t// in\n    tag_13:\n      tag_15\n      jump\t// in\n    tag_12:\n      stop\n        /* \"contracts/Release.sol\":130:154  address public evmBridge */\n    tag_4:\n      callvalue\n      dup1\n      iszero\n      tag_16\n      jumpi\n      0x00\n      dup1\n      revert\n    tag_16:\n      pop\n      tag_17\n      tag_18\n      jump\t// in\n    tag_17:\n      mload(0x40)\n      tag_19\n      swap2\n      swap1\n      tag_20\n      jump\t// in\n    tag_19:\n      mload(0x40)\n      dup1\n      swap2\n      sub\n      swap1\n      return\n        /* \"contracts/Release.sol\":1328:1678  function releaseTokens(address receiver, uint256 amount) external onlyEvmBridge {... */\n    tag_5:\n      callvalue\n      dup1\n      iszero\n      tag_21\n      jumpi\n      0x00\n      dup1\n      revert\n    tag_21:\n      pop\n      tag_22\n      0x04\n      dup1\n      calldatasize\n      sub\n      dup2\n      add\n      swap1\n      tag_23\n      swap2\n      swap1\n      tag_24\n      jump\t// in\n    tag_23:\n      tag_25\n      jump\t// in\n    tag_22:\n      stop\n        /* \"contracts/Release.sol\":199:218  IERC20 public token */\n    tag_6:\n      callvalue\n      dup1\n      iszero\n      tag_26\n      jumpi\n      0x00\n      dup1\n      revert\n    tag_26:\n      pop\n      tag_27\n      tag_28\n      jump\t// in\n    tag_27:\n      mload(0x40)\n      tag_29\n      swap2\n      swap1\n      tag_30\n      jump\t// in\n    tag_29:\n      mload(0x40)\n      dup1\n      swap2\n      sub\n      swap1\n      return\n        /* \"contracts/TokenLock.sol\":627:1225  function lockERC20(address tokenAddress, uint256 amount, address targetChain, address receiver) external {... */\n    tag_11:\n        /* \"contracts/TokenLock.sol\":775:776  0 */\n      0x00\n        /* \"contracts/TokenLock.sol\":751:777  tokenAddress != address(0) */\n      0xffffffffffffffffffffffffffffffffffffffff\n      and\n        /* \"contracts/TokenLock.sol\":751:763  tokenAddress */\n      dup5\n        /* \"contracts/TokenLock.sol\":751:777  tokenAddress != address(0) */\n      0xffffffffffffffffffffffffffffffffffffffff\n      and\n      sub\n        /* \"contracts/TokenLock.sol\":743:803  require(tokenAddress != address(0), \"Invalid token address\") */\n      tag_32\n      jumpi\n      mload(0x40)\n      0x08c379a000000000000000000000000000000000000000000000000000000000\n      dup2\n      mstore\n      0x04\n      add\n      tag_33\n      swap1\n      tag_34\n      jump\t// in\n    tag_33:\n      mload(0x40)\n      dup1\n      swap2\n      sub\n      swap1\n      revert\n    tag_32:\n        /* \"contracts/TokenLock.sol\":831:832  0 */\n      0x00\n        /* \"contracts/TokenLock.sol\":822:828  amount */\n      dup4\n        /* \"contracts/TokenLock.sol\":822:832  amount > 0 */\n      gt\n        /* \"contracts/TokenLock.sol\":814:851  require(amount > 0, \"Invalid amount\") */\n      tag_35\n      jumpi\n      mload(0x40)\n      0x08c379a000000000000000000000000000000000000000000000000000000000\n      dup2\n      mstore\n      0x04\n      add\n      tag_36\n      swap1\n      tag_37\n      jump\t// in\n    tag_36:\n      mload(0x40)\n      dup1\n      swap2\n      sub\n      swap1\n      revert\n    tag_35:\n        /* \"contracts/TokenLock.sol\":893:894  0 */\n      0x00\n        /* \"contracts/TokenLock.sol\":870:895  targetChain != address(0) */\n      0xffffffffffffffffffffffffffffffffffffffff\n      and\n        /* \"contracts/TokenLock.sol\":870:881  targetChain */\n      dup3\n        /* \"contracts/TokenLock.sol\":870:895  targetChain != address(0) */\n      0xffffffffffffffffffffffffffffffffffffffff\n      and\n      sub\n        /* \"contracts/TokenLock.sol\":862:928  require(targetChain != address(0), \"Invalid target chain address\") */\n      tag_38\n      jumpi\n      mload(0x40)\n      0x08c379a000000000000000000000000000000000000000000000000000000000\n      dup2\n      mstore\n      0x04\n      add\n      tag_39\n      swap1\n      tag_40\n      jump\t// in\n    tag_39:\n      mload(0x40)\n      dup1\n      swap2\n      sub\n      swap1\n      revert\n    tag_38:\n        /* \"contracts/TokenLock.sol\":967:968  0 */\n      0x00\n        /* \"contracts/TokenLock.sol\":947:969  receiver != address(0) */\n      0xffffffffffffffffffffffffffffffffffffffff\n      and\n        /* \"contracts/TokenLock.sol\":947:955  receiver */\n      dup2\n        /* \"contracts/TokenLock.sol\":947:969  receiver != address(0) */\n      0xffffffffffffffffffffffffffffffffffffffff\n      and\n      sub\n        /* \"contracts/TokenLock.sol\":939:998  require(receiver != address(0), \"Invalid receiver address\") */\n      tag_41\n      jumpi\n      mload(0x40)\n      0x08c379a000000000000000000000000000000000000000000000000000000000\n      dup2\n      mstore\n      0x04\n      add\n      tag_42\n      swap1\n      tag_43\n      jump\t// in\n    tag_42:\n      mload(0x40)\n      dup1\n      swap2\n      sub\n      swap1\n      revert\n    tag_41:\n        /* \"contracts/TokenLock.sol\":1011:1023  IERC20 token */\n      0x00\n        /* \"contracts/TokenLock.sol\":1033:1045  tokenAddress */\n      dup5\n        /* \"contracts/TokenLock.sol\":1011:1046  IERC20 token = IERC20(tokenAddress) */\n      swap1\n      pop\n        /* \"contracts/TokenLock.sol\":1065:1070  token */\n      dup1\n        /* \"contracts/TokenLock.sol\":1065:1083  token.transferFrom */\n      0xffffffffffffffffffffffffffffffffffffffff\n      and\n      0x23b872dd\n        /* \"contracts/TokenLock.sol\":1084:1094  msg.sender */\n      caller\n        /* \"contracts/TokenLock.sol\":1104:1108  this */\n      address\n        /* \"contracts/TokenLock.sol\":1111:1117  amount */\n      dup8\n        /* \"contracts/TokenLock.sol\":1065:1118  token.transferFrom(msg.sender, address(this), amount) */\n      mload(0x40)\n      dup5\n      0xffffffff\n      and\n      0xe0\n      shl\n      dup2\n      mstore\n      0x04\n      add\n      tag_44\n      swap4\n      swap3\n      swap2\n      swap1\n      tag_45\n      jump\t// in\n    tag_44:\n      0x20\n      mload(0x40)\n      dup1\n      dup4\n      sub\n      dup2\n      0x00\n      dup8\n      gas\n      call\n      iszero\n      dup1\n      iszero\n      tag_47\n      jumpi\n      returndatasize\n      0x00\n      dup1\n      returndatacopy\n      revert(0x00, returndatasize)\n    tag_47:\n      pop\n      pop\n      pop\n      pop\n      mload(0x40)\n      returndatasize\n      not(0x1f)\n      0x1f\n      dup3\n      add\n      and\n      dup3\n      add\n      dup1\n      0x40\n      mstore\n      pop\n      dup2\n      add\n      swap1\n      tag_48\n      swap2\n      swap1\n      tag_49\n      jump\t// in\n    tag_48:\n        /* \"contracts/TokenLock.sol\":1057:1144  require(token.transferFrom(msg.sender, address(this), amount), \"Token transfer failed\") */\n      tag_50\n      jumpi\n      mload(0x40)\n      0x08c379a000000000000000000000000000000000000000000000000000000000\n      dup2\n      mstore\n      0x04\n      add\n      tag_51\n      swap1\n      tag_52\n      jump\t// in\n    tag_51:\n      mload(0x40)\n      dup1\n      swap2\n      sub\n      swap1\n      revert\n    tag_50:\n        /* \"contracts/TokenLock.sol\":1200:1208  receiver */\n      dup2\n        /* \"contracts/TokenLock.sol\":1162:1217  TokensLocked(msg.sender, targetChain, receiver, amount) */\n      0xffffffffffffffffffffffffffffffffffffffff\n      and\n        /* \"contracts/TokenLock.sol\":1187:1198  targetChain */\n      dup4\n        /* \"contracts/TokenLock.sol\":1162:1217  TokensLocked(msg.sender, targetChain, receiver, amount) */\n      0xffffffffffffffffffffffffffffffffffffffff\n      and\n        /* \"contracts/TokenLock.sol\":1175:1185  msg.sender */\n      caller\n        /* \"contracts/TokenLock.sol\":1162:1217  TokensLocked(msg.sender, targetChain, receiver, amount) */\n      0xffffffffffffffffffffffffffffffffffffffff\n      and\n      0x4a060e13dfcf0a43583fc42ed986145b0b079e634722659e51d94f8ffeda8c71\n        /* \"contracts/TokenLock.sol\":1210:1216  amount */\n      dup8\n        /* \"contracts/TokenLock.sol\":1162:1217  TokensLocked(msg.sender, targetChain, receiver, amount) */\n      mload(0x40)\n      tag_53\n      swap2\n      swap1\n      tag_54\n      jump\t// in\n    tag_53:\n      mload(0x40)\n      dup1\n      swap2\n      sub\n      swap1\n      log4\n        /* \"contracts/TokenLock.sol\":732:1225  {... */\n      pop\n        /* \"contracts/TokenLock.sol\":627:1225  function lockERC20(address tokenAddress, uint256 amount, address targetChain, address receiver) external {... */\n      pop\n      pop\n      pop\n      pop\n      jump\t// out\n        /* \"contracts/TokenLock.sol\":1479:1838  function lockETH(address targetChain, address receiver) external payable {... */\n    tag_15:\n        /* \"contracts/TokenLock.sol\":1583:1584  0 */\n      0x00\n        /* \"contracts/TokenLock.sol\":1571:1580  msg.value */\n      callvalue\n        /* \"contracts/TokenLock.sol\":1571:1584  msg.value > 0 */\n      gt\n        /* \"contracts/TokenLock.sol\":1563:1607  require(msg.value > 0, \"Invalid ETH amount\") */\n      tag_56\n      jumpi\n      mload(0x40)\n      0x08c379a000000000000000000000000000000000000000000000000000000000\n      dup2\n      mstore\n      0x04\n      add\n      tag_57\n      swap1\n      tag_58\n      jump\t// in\n    tag_57:\n      mload(0x40)\n      dup1\n      swap2\n      sub\n      swap1\n      revert\n    tag_56:\n        /* \"contracts/TokenLock.sol\":1649:1650  0 */\n      0x00\n        /* \"contracts/TokenLock.sol\":1626:1651  targetChain != address(0) */\n      0xffffffffffffffffffffffffffffffffffffffff\n      and\n        /* \"contracts/TokenLock.sol\":1626:1637  targetChain */\n      dup3\n        /* \"contracts/TokenLock.sol\":1626:1651  targetChain != address(0) */\n      0xffffffffffffffffffffffffffffffffffffffff\n      and\n      sub\n        /* \"contracts/TokenLock.sol\":1618:1684  require(targetChain != address(0), \"Invalid target chain address\") */\n      tag_59\n      jumpi\n      mload(0x40)\n      0x08c379a000000000000000000000000000000000000000000000000000000000\n      dup2\n      mstore\n      0x04\n      add\n      tag_60\n      swap1\n      tag_40\n      jump\t// in\n    tag_60:\n      mload(0x40)\n      dup1\n      swap2\n      sub\n      swap1\n      revert\n    tag_59:\n        /* \"contracts/TokenLock.sol\":1723:1724  0 */\n      0x00\n        /* \"contracts/TokenLock.sol\":1703:1725  receiver != address(0) */\n      0xffffffffffffffffffffffffffffffffffffffff\n      and\n        /* \"contracts/TokenLock.sol\":1703:1711  receiver */\n      dup2\n        /* \"contracts/TokenLock.sol\":1703:1725  receiver != address(0) */\n      0xffffffffffffffffffffffffffffffffffffffff\n      and\n      sub\n        /* \"contracts/TokenLock.sol\":1695:1754  require(receiver != address(0), \"Invalid receiver address\") */\n      tag_61\n      jumpi\n      mload(0x40)\n      0x08c379a000000000000000000000000000000000000000000000000000000000\n      dup2\n      mstore\n      0x04\n      add\n      tag_62\n      swap1\n      tag_43\n      jump\t// in\n    tag_62:\n      mload(0x40)\n      dup1\n      swap2\n      sub\n      swap1\n      revert\n    tag_61:\n        /* \"contracts/TokenLock.sol\":1810:1818  receiver */\n      dup1\n        /* \"contracts/TokenLock.sol\":1772:1830  TokensLocked(msg.sender, targetChain, receiver, msg.value) */\n      0xffffffffffffffffffffffffffffffffffffffff\n      and\n        /* \"contracts/TokenLock.sol\":1797:1808  targetChain */\n      dup3\n        /* \"contracts/TokenLock.sol\":1772:1830  TokensLocked(msg.sender, targetChain, receiver, msg.value) */\n      0xffffffffffffffffffffffffffffffffffffffff\n      and\n        /* \"contracts/TokenLock.sol\":1785:1795  msg.sender */\n      caller\n        /* \"contracts/TokenLock.sol\":1772:1830  TokensLocked(msg.sender, targetChain, receiver, msg.value) */\n      0xffffffffffffffffffffffffffffffffffffffff\n      and\n      0x4a060e13dfcf0a43583fc42ed986145b0b079e634722659e51d94f8ffeda8c71\n        /* \"contracts/TokenLock.sol\":1820:1829  msg.value */\n      callvalue\n        /* \"contracts/TokenLock.sol\":1772:1830  TokensLocked(msg.sender, targetChain, receiver, msg.value) */\n      mload(0x40)\n      tag_63\n      swap2\n      swap1\n      tag_54\n      jump\t// in\n    tag_63:\n      mload(0x40)\n      dup1\n      swap2\n      sub\n      swap1\n      log4\n        /* \"contracts/TokenLock.sol\":1479:1838  function lockETH(address targetChain, address receiver) external payable {... */\n      pop\n      pop\n      jump\t// out\n        /* \"contracts/Release.sol\":130:154  address public evmBridge */\n    tag_18:\n      0x00\n      dup1\n      sload\n      swap1\n      0x0100\n      exp\n      swap1\n      div\n      0xffffffffffffffffffffffffffffffffffffffff\n      and\n      dup2\n      jump\t// out\n        /* \"contracts/Release.sol\":1328:1678  function releaseTokens(address receiver, uint256 amount) external onlyEvmBridge {... */\n    tag_25:\n        /* \"contracts/Release.sol\":544:553  evmBridge */\n      0x00\n      dup1\n      sload\n      swap1\n      0x0100\n      exp\n      swap1\n      div\n      0xffffffffffffffffffffffffffffffffffffffff\n      and\n        /* \"contracts/Release.sol\":530:553  msg.sender == evmBridge */\n      0xffffffffffffffffffffffffffffffffffffffff\n      and\n        /* \"contracts/Release.sol\":530:540  msg.sender */\n      caller\n        /* \"contracts/Release.sol\":530:553  msg.sender == evmBridge */\n      0xffffffffffffffffffffffffffffffffffffffff\n      and\n      eq\n        /* \"contracts/Release.sol\":522:596  require(msg.sender == evmBridge, \"Only EVM bridge can call this function\") */\n      tag_65\n      jumpi\n      mload(0x40)\n      0x08c379a000000000000000000000000000000000000000000000000000000000\n      dup2\n      mstore\n      0x04\n      add\n      tag_66\n      swap1\n      tag_67\n      jump\t// in\n    tag_66:\n      mload(0x40)\n      dup1\n      swap2\n      sub\n      swap1\n      revert\n    tag_65:\n        /* \"contracts/Release.sol\":1427:1480  centralizedVerification(msg.sender, receiver, amount) */\n      tag_69\n        /* \"contracts/Release.sol\":1451:1461  msg.sender */\n      caller\n        /* \"contracts/Release.sol\":1463:1471  receiver */\n      dup4\n        /* \"contracts/Release.sol\":1473:1479  amount */\n      dup4\n        /* \"contracts/Release.sol\":1427:1450  centralizedVerification */\n      tag_70\n        /* \"contracts/Release.sol\":1427:1480  centralizedVerification(msg.sender, receiver, amount) */\n      jump\t// in\n    tag_69:\n        /* \"contracts/Release.sol\":1419:1515  require(centralizedVerification(msg.sender, receiver, amount), \"Lock event verification failed\") */\n      tag_71\n      jumpi\n      mload(0x40)\n      0x08c379a000000000000000000000000000000000000000000000000000000000\n      dup2\n      mstore\n      0x04\n      add\n      tag_72\n      swap1\n      tag_73\n      jump\t// in\n    tag_72:\n      mload(0x40)\n      dup1\n      swap2\n      sub\n      swap1\n      revert\n    tag_71:\n        /* \"contracts/Release.sol\":1528:1533  token */\n      0x01\n      0x00\n      swap1\n      sload\n      swap1\n      0x0100\n      exp\n      swap1\n      div\n      0xffffffffffffffffffffffffffffffffffffffff\n      and\n        /* \"contracts/Release.sol\":1528:1542  token.transfer */\n      0xffffffffffffffffffffffffffffffffffffffff\n      and\n      0xa9059cbb\n        /* \"contracts/Release.sol\":1543:1551  receiver */\n      dup4\n        /* \"contracts/Release.sol\":1553:1559  amount */\n      dup4\n        /* \"contracts/Release.sol\":1528:1560  token.transfer(receiver, amount) */\n      mload(0x40)\n      dup4\n      0xffffffff\n      and\n      0xe0\n      shl\n      dup2\n      mstore\n      0x04\n      add\n      tag_74\n      swap3\n      swap2\n      swap1\n      tag_75\n      jump\t// in\n    tag_74:\n      0x20\n      mload(0x40)\n      dup1\n      dup4\n      sub\n      dup2\n      0x00\n      dup8\n      gas\n      call\n      iszero\n      dup1\n      iszero\n      tag_77\n      jumpi\n      returndatasize\n      0x00\n      dup1\n      returndatacopy\n      revert(0x00, returndatasize)\n    tag_77:\n      pop\n      pop\n      pop\n      pop\n      mload(0x40)\n      returndatasize\n      not(0x1f)\n      0x1f\n      dup3\n      add\n      and\n      dup3\n      add\n      dup1\n      0x40\n      mstore\n      pop\n      dup2\n      add\n      swap1\n      tag_78\n      swap2\n      swap1\n      tag_49\n      jump\t// in\n    tag_78:\n      pop\n        /* \"contracts/Release.sol\":1653:1661  receiver */\n      dup2\n        /* \"contracts/Release.sol\":1638:1670  TokensReleased(receiver, amount) */\n      0xffffffffffffffffffffffffffffffffffffffff\n      and\n      0xc7798891864187665ac6dd119286e44ec13f014527aeeb2b8eb3fd413df93179\n        /* \"contracts/Release.sol\":1663:1669  amount */\n      dup3\n        /* \"contracts/Release.sol\":1638:1670  TokensReleased(receiver, amount) */\n      mload(0x40)\n      tag_79\n      swap2\n      swap1\n      tag_54\n      jump\t// in\n    tag_79:\n      mload(0x40)\n      dup1\n      swap2\n      sub\n      swap1\n      log2\n        /* \"contracts/Release.sol\":1328:1678  function releaseTokens(address receiver, uint256 amount) external onlyEvmBridge {... */\n      pop\n      pop\n      jump\t// out\n        /* \"contracts/Release.sol\":199:218  IERC20 public token */\n    tag_28:\n      0x01\n      0x00\n      swap1\n      sload\n      swap1\n      0x0100\n      exp\n      swap1\n      div\n      0xffffffffffffffffffffffffffffffffffffffff\n      and\n      dup2\n      jump\t// out\n        /* \"contracts/Release.sol\":1958:2194  function centralizedVerification(address sender, address receiver, uint256 amount) internal pure returns (bool) {... */\n    tag_70:\n        /* \"contracts/Release.sol\":2064:2068  bool */\n      0x00\n        /* \"contracts/Release.sol\":2109:2110  0 */\n      dup1\n        /* \"contracts/Release.sol\":2089:2111  receiver != address(0) */\n      0xffffffffffffffffffffffffffffffffffffffff\n      and\n        /* \"contracts/Release.sol\":2089:2097  receiver */\n      dup4\n        /* \"contracts/Release.sol\":2089:2111  receiver != address(0) */\n      0xffffffffffffffffffffffffffffffffffffffff\n      and\n      eq\n      iszero\n        /* \"contracts/Release.sol\":2089:2125  receiver != address(0) && amount > 0 */\n      dup1\n      iszero\n      tag_81\n      jumpi\n      pop\n        /* \"contracts/Release.sol\":2124:2125  0 */\n      0x00\n        /* \"contracts/Release.sol\":2115:2121  amount */\n      dup3\n        /* \"contracts/Release.sol\":2115:2125  amount > 0 */\n      gt\n        /* \"contracts/Release.sol\":2089:2125  receiver != address(0) && amount > 0 */\n    tag_81:\n        /* \"contracts/Release.sol\":2081:2164  require(receiver != address(0) && amount > 0, \"Invalid receiver address or amount\") */\n      tag_82\n      jumpi\n      mload(0x40)\n      0x08c379a000000000000000000000000000000000000000000000000000000000\n      dup2\n      mstore\n      0x04\n      add\n      tag_83\n      swap1\n      tag_84\n      jump\t// in\n    tag_83:\n      mload(0x40)\n      dup1\n      swap2\n      sub\n      swap1\n      revert\n    tag_82:\n        /* \"contracts/Release.sol\":2182:2186  true */\n      0x01\n        /* \"contracts/Release.sol\":2175:2186  return true */\n      swap1\n      pop\n        /* \"contracts/Release.sol\":1958:2194  function centralizedVerification(address sender, address receiver, uint256 amount) internal pure returns (bool) {... */\n      swap4\n      swap3\n      pop\n      pop\n      pop\n      jump\t// out\n        /* \"#utility.yul\":88:205   */\n    tag_86:\n        /* \"#utility.yul\":197:198   */\n      0x00\n        /* \"#utility.yul\":194:195   */\n      dup1\n        /* \"#utility.yul\":187:199   */\n      revert\n        /* \"#utility.yul\":334:460   */\n    tag_88:\n        /* \"#utility.yul\":371:378   */\n      0x00\n        /* \"#utility.yul\":411:453   */\n      0xffffffffffffffffffffffffffffffffffffffff\n        /* \"#utility.yul\":404:409   */\n      dup3\n        /* \"#utility.yul\":400:454   */\n      and\n        /* \"#utility.yul\":389:454   */\n      swap1\n      pop\n        /* \"#utility.yul\":334:460   */\n      swap2\n      swap1\n      pop\n      jump\t// out\n        /* \"#utility.yul\":466:562   */\n    tag_89:\n        /* \"#utility.yul\":503:510   */\n      0x00\n        /* \"#utility.yul\":532:556   */\n      tag_130\n        /* \"#utility.yul\":550:555   */\n      dup3\n        /* \"#utility.yul\":532:556   */\n      tag_88\n      jump\t// in\n    tag_130:\n        /* \"#utility.yul\":521:556   */\n      swap1\n      pop\n        /* \"#utility.yul\":466:562   */\n      swap2\n      swap1\n      pop\n      jump\t// out\n        /* \"#utility.yul\":568:690   */\n    tag_90:\n        /* \"#utility.yul\":641:665   */\n      tag_132\n        /* \"#utility.yul\":659:664   */\n      dup2\n        /* \"#utility.yul\":641:665   */\n      tag_89\n      jump\t// in\n    tag_132:\n        /* \"#utility.yul\":634:639   */\n      dup2\n        /* \"#utility.yul\":631:666   */\n      eq\n        /* \"#utility.yul\":621:684   */\n      tag_133\n      jumpi\n        /* \"#utility.yul\":680:681   */\n      0x00\n        /* \"#utility.yul\":677:678   */\n      dup1\n        /* \"#utility.yul\":670:682   */\n      revert\n        /* \"#utility.yul\":621:684   */\n    tag_133:\n        /* \"#utility.yul\":568:690   */\n      pop\n      jump\t// out\n        /* \"#utility.yul\":696:835   */\n    tag_91:\n        /* \"#utility.yul\":742:747   */\n      0x00\n        /* \"#utility.yul\":780:786   */\n      dup2\n        /* \"#utility.yul\":767:787   */\n      calldataload\n        /* \"#utility.yul\":758:787   */\n      swap1\n      pop\n        /* \"#utility.yul\":796:829   */\n      tag_135\n        /* \"#utility.yul\":823:828   */\n      dup2\n        /* \"#utility.yul\":796:829   */\n      tag_90\n      jump\t// in\n    tag_135:\n        /* \"#utility.yul\":696:835   */\n      swap3\n      swap2\n      pop\n      pop\n      jump\t// out\n        /* \"#utility.yul\":841:918   */\n    tag_92:\n        /* \"#utility.yul\":878:885   */\n      0x00\n        /* \"#utility.yul\":907:912   */\n      dup2\n        /* \"#utility.yul\":896:912   */\n      swap1\n      pop\n        /* \"#utility.yul\":841:918   */\n      swap2\n      swap1\n      pop\n      jump\t// out\n        /* \"#utility.yul\":924:1046   */\n    tag_93:\n        /* \"#utility.yul\":997:1021   */\n      tag_138\n        /* \"#utility.yul\":1015:1020   */\n      dup2\n        /* \"#utility.yul\":997:1021   */\n      tag_92\n      jump\t// in\n    tag_138:\n        /* \"#utility.yul\":990:995   */\n      dup2\n        /* \"#utility.yul\":987:1022   */\n      eq\n        /* \"#utility.yul\":977:1040   */\n      tag_139\n      jumpi\n        /* \"#utility.yul\":1036:1037   */\n      0x00\n        /* \"#utility.yul\":1033:1034   */\n      dup1\n        /* \"#utility.yul\":1026:1038   */\n      revert\n        /* \"#utility.yul\":977:1040   */\n    tag_139:\n        /* \"#utility.yul\":924:1046   */\n      pop\n      jump\t// out\n        /* \"#utility.yul\":1052:1191   */\n    tag_94:\n        /* \"#utility.yul\":1098:1103   */\n      0x00\n        /* \"#utility.yul\":1136:1142   */\n      dup2\n        /* \"#utility.yul\":1123:1143   */\n      calldataload\n        /* \"#utility.yul\":1114:1143   */\n      swap1\n      pop\n        /* \"#utility.yul\":1152:1185   */\n      tag_141\n        /* \"#utility.yul\":1179:1184   */\n      dup2\n        /* \"#utility.yul\":1152:1185   */\n      tag_93\n      jump\t// in\n    tag_141:\n        /* \"#utility.yul\":1052:1191   */\n      swap3\n      swap2\n      pop\n      pop\n      jump\t// out\n        /* \"#utility.yul\":1197:1962   */\n    tag_10:\n        /* \"#utility.yul\":1283:1289   */\n      0x00\n        /* \"#utility.yul\":1291:1297   */\n      dup1\n        /* \"#utility.yul\":1299:1305   */\n      0x00\n        /* \"#utility.yul\":1307:1313   */\n      dup1\n        /* \"#utility.yul\":1356:1359   */\n      0x80\n        /* \"#utility.yul\":1344:1353   */\n      dup6\n        /* \"#utility.yul\":1335:1342   */\n      dup8\n        /* \"#utility.yul\":1331:1354   */\n      sub\n        /* \"#utility.yul\":1327:1360   */\n      slt\n        /* \"#utility.yul\":1324:1444   */\n      iszero\n      tag_143\n      jumpi\n        /* \"#utility.yul\":1363:1442   */\n      tag_144\n      tag_86\n      jump\t// in\n    tag_144:\n        /* \"#utility.yul\":1324:1444   */\n    tag_143:\n        /* \"#utility.yul\":1483:1484   */\n      0x00\n        /* \"#utility.yul\":1508:1561   */\n      tag_145\n        /* \"#utility.yul\":1553:1560   */\n      dup8\n        /* \"#utility.yul\":1544:1550   */\n      dup3\n        /* \"#utility.yul\":1533:1542   */\n      dup9\n        /* \"#utility.yul\":1529:1551   */\n      add\n        /* \"#utility.yul\":1508:1561   */\n      tag_91\n      jump\t// in\n    tag_145:\n        /* \"#utility.yul\":1498:1561   */\n      swap5\n      pop\n        /* \"#utility.yul\":1454:1571   */\n      pop\n        /* \"#utility.yul\":1610:1612   */\n      0x20\n        /* \"#utility.yul\":1636:1689   */\n      tag_146\n        /* \"#utility.yul\":1681:1688   */\n      dup8\n        /* \"#utility.yul\":1672:1678   */\n      dup3\n        /* \"#utility.yul\":1661:1670   */\n      dup9\n        /* \"#utility.yul\":1657:1679   */\n      add\n        /* \"#utility.yul\":1636:1689   */\n      tag_94\n      jump\t// in\n    tag_146:\n        /* \"#utility.yul\":1626:1689   */\n      swap4\n      pop\n        /* \"#utility.yul\":1581:1699   */\n      pop\n        /* \"#utility.yul\":1738:1740   */\n      0x40\n        /* \"#utility.yul\":1764:1817   */\n      tag_147\n        /* \"#utility.yul\":1809:1816   */\n      dup8\n        /* \"#utility.yul\":1800:1806   */\n      dup3\n        /* \"#utility.yul\":1789:1798   */\n      dup9\n        /* \"#utility.yul\":1785:1807   */\n      add\n        /* \"#utility.yul\":1764:1817   */\n      tag_91\n      jump\t// in\n    tag_147:\n        /* \"#utility.yul\":1754:1817   */\n      swap3\n      pop\n        /* \"#utility.yul\":1709:1827   */\n      pop\n        /* \"#utility.yul\":1866:1868   */\n      0x60\n        /* \"#utility.yul\":1892:1945   */\n      tag_148\n        /* \"#utility.yul\":1937:1944   */\n      dup8\n        /* \"#utility.yul\":1928:1934   */\n      dup3\n        /* \"#utility.yul\":1917:1926   */\n      dup9\n        /* \"#utility.yul\":1913:1935   */\n      add\n        /* \"#utility.yul\":1892:1945   */\n      tag_91\n      jump\t// in\n    tag_148:\n        /* \"#utility.yul\":1882:1945   */\n      swap2\n      pop\n        /* \"#utility.yul\":1837:1955   */\n      pop\n        /* \"#utility.yul\":1197:1962   */\n      swap3\n      swap6\n      swap2\n      swap5\n      pop\n      swap3\n      pop\n      jump\t// out\n        /* \"#utility.yul\":1968:2442   */\n    tag_14:\n        /* \"#utility.yul\":2036:2042   */\n      0x00\n        /* \"#utility.yul\":2044:2050   */\n      dup1\n        /* \"#utility.yul\":2093:2095   */\n      0x40\n        /* \"#utility.yul\":2081:2090   */\n      dup4\n        /* \"#utility.yul\":2072:2079   */\n      dup6\n        /* \"#utility.yul\":2068:2091   */\n      sub\n        /* \"#utility.yul\":2064:2096   */\n      slt\n        /* \"#utility.yul\":2061:2180   */\n      iszero\n      tag_150\n      jumpi\n        /* \"#utility.yul\":2099:2178   */\n      tag_151\n      tag_86\n      jump\t// in\n    tag_151:\n        /* \"#utility.yul\":2061:2180   */\n    tag_150:\n        /* \"#utility.yul\":2219:2220   */\n      0x00\n        /* \"#utility.yul\":2244:2297   */\n      tag_152\n        /* \"#utility.yul\":2289:2296   */\n      dup6\n        /* \"#utility.yul\":2280:2286   */\n      dup3\n        /* \"#utility.yul\":2269:2278   */\n      dup7\n        /* \"#utility.yul\":2265:2287   */\n      add\n        /* \"#utility.yul\":2244:2297   */\n      tag_91\n      jump\t// in\n    tag_152:\n        /* \"#utility.yul\":2234:2297   */\n      swap3\n      pop\n        /* \"#utility.yul\":2190:2307   */\n      pop\n        /* \"#utility.yul\":2346:2348   */\n      0x20\n        /* \"#utility.yul\":2372:2425   */\n      tag_153\n        /* \"#utility.yul\":2417:2424   */\n      dup6\n        /* \"#utility.yul\":2408:2414   */\n      dup3\n        /* \"#utility.yul\":2397:2406   */\n      dup7\n        /* \"#utility.yul\":2393:2415   */\n      add\n        /* \"#utility.yul\":2372:2425   */\n      tag_91\n      jump\t// in\n    tag_153:\n        /* \"#utility.yul\":2362:2425   */\n      swap2\n      pop\n        /* \"#utility.yul\":2317:2435   */\n      pop\n        /* \"#utility.yul\":1968:2442   */\n      swap3\n      pop\n      swap3\n      swap1\n      pop\n      jump\t// out\n        /* \"#utility.yul\":2448:2566   */\n    tag_95:\n        /* \"#utility.yul\":2535:2559   */\n      tag_155\n        /* \"#utility.yul\":2553:2558   */\n      dup2\n        /* \"#utility.yul\":2535:2559   */\n      tag_89\n      jump\t// in\n    tag_155:\n        /* \"#utility.yul\":2530:2533   */\n      dup3\n        /* \"#utility.yul\":2523:2560   */\n      mstore\n        /* \"#utility.yul\":2448:2566   */\n      pop\n      pop\n      jump\t// out\n        /* \"#utility.yul\":2572:2794   */\n    tag_20:\n        /* \"#utility.yul\":2665:2669   */\n      0x00\n        /* \"#utility.yul\":2703:2705   */\n      0x20\n        /* \"#utility.yul\":2692:2701   */\n      dup3\n        /* \"#utility.yul\":2688:2706   */\n      add\n        /* \"#utility.yul\":2680:2706   */\n      swap1\n      pop\n        /* \"#utility.yul\":2716:2787   */\n      tag_157\n        /* \"#utility.yul\":2784:2785   */\n      0x00\n        /* \"#utility.yul\":2773:2782   */\n      dup4\n        /* \"#utility.yul\":2769:2786   */\n      add\n        /* \"#utility.yul\":2760:2766   */\n      dup5\n        /* \"#utility.yul\":2716:2787   */\n      tag_95\n      jump\t// in\n    tag_157:\n        /* \"#utility.yul\":2572:2794   */\n      swap3\n      swap2\n      pop\n      pop\n      jump\t// out\n        /* \"#utility.yul\":2800:3274   */\n    tag_24:\n        /* \"#utility.yul\":2868:2874   */\n      0x00\n        /* \"#utility.yul\":2876:2882   */\n      dup1\n        /* \"#utility.yul\":2925:2927   */\n      0x40\n        /* \"#utility.yul\":2913:2922   */\n      dup4\n        /* \"#utility.yul\":2904:2911   */\n      dup6\n        /* \"#utility.yul\":2900:2923   */\n      sub\n        /* \"#utility.yul\":2896:2928   */\n      slt\n        /* \"#utility.yul\":2893:3012   */\n      iszero\n      tag_159\n      jumpi\n        /* \"#utility.yul\":2931:3010   */\n      tag_160\n      tag_86\n      jump\t// in\n    tag_160:\n        /* \"#utility.yul\":2893:3012   */\n    tag_159:\n        /* \"#utility.yul\":3051:3052   */\n      0x00\n        /* \"#utility.yul\":3076:3129   */\n      tag_161\n        /* \"#utility.yul\":3121:3128   */\n      dup6\n        /* \"#utility.yul\":3112:3118   */\n      dup3\n        /* \"#utility.yul\":3101:3110   */\n      dup7\n        /* \"#utility.yul\":3097:3119   */\n      add\n        /* \"#utility.yul\":3076:3129   */\n      tag_91\n      jump\t// in\n    tag_161:\n        /* \"#utility.yul\":3066:3129   */\n      swap3\n      pop\n        /* \"#utility.yul\":3022:3139   */\n      pop\n        /* \"#utility.yul\":3178:3180   */\n      0x20\n        /* \"#utility.yul\":3204:3257   */\n      tag_162\n        /* \"#utility.yul\":3249:3256   */\n      dup6\n        /* \"#utility.yul\":3240:3246   */\n      dup3\n        /* \"#utility.yul\":3229:3238   */\n      dup7\n        /* \"#utility.yul\":3225:3247   */\n      add\n        /* \"#utility.yul\":3204:3257   */\n      tag_94\n      jump\t// in\n    tag_162:\n        /* \"#utility.yul\":3194:3257   */\n      swap2\n      pop\n        /* \"#utility.yul\":3149:3267   */\n      pop\n        /* \"#utility.yul\":2800:3274   */\n      swap3\n      pop\n      swap3\n      swap1\n      pop\n      jump\t// out\n        /* \"#utility.yul\":3280:3340   */\n    tag_96:\n        /* \"#utility.yul\":3308:3311   */\n      0x00\n        /* \"#utility.yul\":3329:3334   */\n      dup2\n        /* \"#utility.yul\":3322:3334   */\n      swap1\n      pop\n        /* \"#utility.yul\":3280:3340   */\n      swap2\n      swap1\n      pop\n      jump\t// out\n        /* \"#utility.yul\":3346:3488   */\n    tag_97:\n        /* \"#utility.yul\":3396:3405   */\n      0x00\n        /* \"#utility.yul\":3429:3482   */\n      tag_165\n        /* \"#utility.yul\":3447:3481   */\n      tag_166\n        /* \"#utility.yul\":3456:3480   */\n      tag_167\n        /* \"#utility.yul\":3474:3479   */\n      dup5\n        /* \"#utility.yul\":3456:3480   */\n      tag_88\n      jump\t// in\n    tag_167:\n        /* \"#utility.yul\":3447:3481   */\n      tag_96\n      jump\t// in\n    tag_166:\n        /* \"#utility.yul\":3429:3482   */\n      tag_88\n      jump\t// in\n    tag_165:\n        /* \"#utility.yul\":3416:3482   */\n      swap1\n      pop\n        /* \"#utility.yul\":3346:3488   */\n      swap2\n      swap1\n      pop\n      jump\t// out\n        /* \"#utility.yul\":3494:3620   */\n    tag_98:\n        /* \"#utility.yul\":3544:3553   */\n      0x00\n        /* \"#utility.yul\":3577:3614   */\n      tag_169\n        /* \"#utility.yul\":3608:3613   */\n      dup3\n        /* \"#utility.yul\":3577:3614   */\n      tag_97\n      jump\t// in\n    tag_169:\n        /* \"#utility.yul\":3564:3614   */\n      swap1\n      pop\n        /* \"#utility.yul\":3494:3620   */\n      swap2\n      swap1\n      pop\n      jump\t// out\n        /* \"#utility.yul\":3626:3765   */\n    tag_99:\n        /* \"#utility.yul\":3689:3698   */\n      0x00\n        /* \"#utility.yul\":3722:3759   */\n      tag_171\n        /* \"#utility.yul\":3753:3758   */\n      dup3\n        /* \"#utility.yul\":3722:3759   */\n      tag_98\n      jump\t// in\n    tag_171:\n        /* \"#utility.yul\":3709:3759   */\n      swap1\n      pop\n        /* \"#utility.yul\":3626:3765   */\n      swap2\n      swap1\n      pop\n      jump\t// out\n        /* \"#utility.yul\":3771:3928   */\n    tag_100:\n        /* \"#utility.yul\":3871:3921   */\n      tag_173\n        /* \"#utility.yul\":3915:3920   */\n      dup2\n        /* \"#utility.yul\":3871:3921   */\n      tag_99\n      jump\t// in\n    tag_173:\n        /* \"#utility.yul\":3866:3869   */\n      dup3\n        /* \"#utility.yul\":3859:3922   */\n      mstore\n        /* \"#utility.yul\":3771:3928   */\n      pop\n      pop\n      jump\t// out\n        /* \"#utility.yul\":3934:4182   */\n    tag_30:\n        /* \"#utility.yul\":4040:4044   */\n      0x00\n        /* \"#utility.yul\":4078:4080   */\n      0x20\n        /* \"#utility.yul\":4067:4076   */\n      dup3\n        /* \"#utility.yul\":4063:4081   */\n      add\n        /* \"#utility.yul\":4055:4081   */\n      swap1\n      pop\n        /* \"#utility.yul\":4091:4175   */\n      tag_175\n        /* \"#utility.yul\":4172:4173   */\n      0x00\n        /* \"#utility.yul\":4161:4170   */\n      dup4\n        /* \"#utility.yul\":4157:4174   */\n      add\n        /* \"#utility.yul\":4148:4154   */\n      dup5\n        /* \"#utility.yul\":4091:4175   */\n      tag_100\n      jump\t// in\n    tag_175:\n        /* \"#utility.yul\":3934:4182   */\n      swap3\n      swap2\n      pop\n      pop\n      jump\t// out\n        /* \"#utility.yul\":4188:4357   */\n    tag_101:\n        /* \"#utility.yul\":4272:4283   */\n      0x00\n        /* \"#utility.yul\":4306:4312   */\n      dup3\n        /* \"#utility.yul\":4301:4304   */\n      dup3\n        /* \"#utility.yul\":4294:4313   */\n      mstore\n        /* \"#utility.yul\":4346:4350   */\n      0x20\n        /* \"#utility.yul\":4341:4344   */\n      dup3\n        /* \"#utility.yul\":4337:4351   */\n      add\n        /* \"#utility.yul\":4322:4351   */\n      swap1\n      pop\n        /* \"#utility.yul\":4188:4357   */\n      swap3\n      swap2\n      pop\n      pop\n      jump\t// out\n        /* \"#utility.yul\":4363:4534   */\n    tag_102:\n        /* \"#utility.yul\":4503:4526   */\n      0x496e76616c696420746f6b656e20616464726573730000000000000000000000\n        /* \"#utility.yul\":4499:4500   */\n      0x00\n        /* \"#utility.yul\":4491:4497   */\n      dup3\n        /* \"#utility.yul\":4487:4501   */\n      add\n        /* \"#utility.yul\":4480:4527   */\n      mstore\n        /* \"#utility.yul\":4363:4534   */\n      pop\n      jump\t// out\n        /* \"#utility.yul\":4540:4906   */\n    tag_103:\n        /* \"#utility.yul\":4682:4685   */\n      0x00\n        /* \"#utility.yul\":4703:4770   */\n      tag_179\n        /* \"#utility.yul\":4767:4769   */\n      0x15\n        /* \"#utility.yul\":4762:4765   */\n      dup4\n        /* \"#utility.yul\":4703:4770   */\n      tag_101\n      jump\t// in\n    tag_179:\n        /* \"#utility.yul\":4696:4770   */\n      swap2\n      pop\n        /* \"#utility.yul\":4779:4872   */\n      tag_180\n        /* \"#utility.yul\":4868:4871   */\n      dup3\n        /* \"#utility.yul\":4779:4872   */\n      tag_102\n      jump\t// in\n    tag_180:\n        /* \"#utility.yul\":4897:4899   */\n      0x20\n        /* \"#utility.yul\":4892:4895   */\n      dup3\n        /* \"#utility.yul\":4888:4900   */\n      add\n        /* \"#utility.yul\":4881:4900   */\n      swap1\n      pop\n        /* \"#utility.yul\":4540:4906   */\n      swap2\n      swap1\n      pop\n      jump\t// out\n        /* \"#utility.yul\":4912:5331   */\n    tag_34:\n        /* \"#utility.yul\":5078:5082   */\n      0x00\n        /* \"#utility.yul\":5116:5118   */\n      0x20\n        /* \"#utility.yul\":5105:5114   */\n      dup3\n        /* \"#utility.yul\":5101:5119   */\n      add\n        /* \"#utility.yul\":5093:5119   */\n      swap1\n      pop\n        /* \"#utility.yul\":5165:5174   */\n      dup2\n        /* \"#utility.yul\":5159:5163   */\n      dup2\n        /* \"#utility.yul\":5155:5175   */\n      sub\n        /* \"#utility.yul\":5151:5152   */\n      0x00\n        /* \"#utility.yul\":5140:5149   */\n      dup4\n        /* \"#utility.yul\":5136:5153   */\n      add\n        /* \"#utility.yul\":5129:5176   */\n      mstore\n        /* \"#utility.yul\":5193:5324   */\n      tag_182\n        /* \"#utility.yul\":5319:5323   */\n      dup2\n        /* \"#utility.yul\":5193:5324   */\n      tag_103\n      jump\t// in\n    tag_182:\n        /* \"#utility.yul\":5185:5324   */\n      swap1\n      pop\n        /* \"#utility.yul\":4912:5331   */\n      swap2\n      swap1\n      pop\n      jump\t// out\n        /* \"#utility.yul\":5337:5501   */\n    tag_104:\n        /* \"#utility.yul\":5477:5493   */\n      0x496e76616c696420616d6f756e74000000000000000000000000000000000000\n        /* \"#utility.yul\":5473:5474   */\n      0x00\n        /* \"#utility.yul\":5465:5471   */\n      dup3\n        /* \"#utility.yul\":5461:5475   */\n      add\n        /* \"#utility.yul\":5454:5494   */\n      mstore\n        /* \"#utility.yul\":5337:5501   */\n      pop\n      jump\t// out\n        /* \"#utility.yul\":5507:5873   */\n    tag_105:\n        /* \"#utility.yul\":5649:5652   */\n      0x00\n        /* \"#utility.yul\":5670:5737   */\n      tag_185\n        /* \"#utility.yul\":5734:5736   */\n      0x0e\n        /* \"#utility.yul\":5729:5732   */\n      dup4\n        /* \"#utility.yul\":5670:5737   */\n      tag_101\n      jump\t// in\n    tag_185:\n        /* \"#utility.yul\":5663:5737   */\n      swap2\n      pop\n        /* \"#utility.yul\":5746:5839   */\n      tag_186\n        /* \"#utility.yul\":5835:5838   */\n      dup3\n        /* \"#utility.yul\":5746:5839   */\n      tag_104\n      jump\t// in\n    tag_186:\n        /* \"#utility.yul\":5864:5866   */\n      0x20\n        /* \"#utility.yul\":5859:5862   */\n      dup3\n        /* \"#utility.yul\":5855:5867   */\n      add\n        /* \"#utility.yul\":5848:5867   */\n      swap1\n      pop\n        /* \"#utility.yul\":5507:5873   */\n      swap2\n      swap1\n      pop\n      jump\t// out\n        /* \"#utility.yul\":5879:6298   */\n    tag_37:\n        /* \"#utility.yul\":6045:6049   */\n      0x00\n        /* \"#utility.yul\":6083:6085   */\n      0x20\n        /* \"#utility.yul\":6072:6081   */\n      dup3\n        /* \"#utility.yul\":6068:6086   */\n      add\n        /* \"#utility.yul\":6060:6086   */\n      swap1\n      pop\n        /* \"#utility.yul\":6132:6141   */\n      dup2\n        /* \"#utility.yul\":6126:6130   */\n      dup2\n        /* \"#utility.yul\":6122:6142   */\n      sub\n        /* \"#utility.yul\":6118:6119   */\n      0x00\n        /* \"#utility.yul\":6107:6116   */\n      dup4\n        /* \"#utility.yul\":6103:6120   */\n      add\n        /* \"#utility.yul\":6096:6143   */\n      mstore\n        /* \"#utility.yul\":6160:6291   */\n      tag_188\n        /* \"#utility.yul\":6286:6290   */\n      dup2\n        /* \"#utility.yul\":6160:6291   */\n      tag_105\n      jump\t// in\n    tag_188:\n        /* \"#utility.yul\":6152:6291   */\n      swap1\n      pop\n        /* \"#utility.yul\":5879:6298   */\n      swap2\n      swap1\n      pop\n      jump\t// out\n        /* \"#utility.yul\":6304:6482   */\n    tag_106:\n        /* \"#utility.yul\":6444:6474   */\n      0x496e76616c69642074617267657420636861696e206164647265737300000000\n        /* \"#utility.yul\":6440:6441   */\n      0x00\n        /* \"#utility.yul\":6432:6438   */\n      dup3\n        /* \"#utility.yul\":6428:6442   */\n      add\n        /* \"#utility.yul\":6421:6475   */\n      mstore\n        /* \"#utility.yul\":6304:6482   */\n      pop\n      jump\t// out\n        /* \"#utility.yul\":6488:6854   */\n    tag_107:\n        /* \"#utility.yul\":6630:6633   */\n      0x00\n        /* \"#utility.yul\":6651:6718   */\n      tag_191\n        /* \"#utility.yul\":6715:6717   */\n      0x1c\n        /* \"#utility.yul\":6710:6713   */\n      dup4\n        /* \"#utility.yul\":6651:6718   */\n      tag_101\n      jump\t// in\n    tag_191:\n        /* \"#utility.yul\":6644:6718   */\n      swap2\n      pop\n        /* \"#utility.yul\":6727:6820   */\n      tag_192\n        /* \"#utility.yul\":6816:6819   */\n      dup3\n        /* \"#utility.yul\":6727:6820   */\n      tag_106\n      jump\t// in\n    tag_192:\n        /* \"#utility.yul\":6845:6847   */\n      0x20\n        /* \"#utility.yul\":6840:6843   */\n      dup3\n        /* \"#utility.yul\":6836:6848   */\n      add\n        /* \"#utility.yul\":6829:6848   */\n      swap1\n      pop\n        /* \"#utility.yul\":6488:6854   */\n      swap2\n      swap1\n      pop\n      jump\t// out\n        /* \"#utility.yul\":6860:7279   */\n    tag_40:\n        /* \"#utility.yul\":7026:7030   */\n      0x00\n        /* \"#utility.yul\":7064:7066   */\n      0x20\n        /* \"#utility.yul\":7053:7062   */\n      dup3\n        /* \"#utility.yul\":7049:7067   */\n      add\n        /* \"#utility.yul\":7041:7067   */\n      swap1\n      pop\n        /* \"#utility.yul\":7113:7122   */\n      dup2\n        /* \"#utility.yul\":7107:7111   */\n      dup2\n        /* \"#utility.yul\":7103:7123   */\n      sub\n        /* \"#utility.yul\":7099:7100   */\n      0x00\n        /* \"#utility.yul\":7088:7097   */\n      dup4\n        /* \"#utility.yul\":7084:7101   */\n      add\n        /* \"#utility.yul\":7077:7124   */\n      mstore\n        /* \"#utility.yul\":7141:7272   */\n      tag_194\n        /* \"#utility.yul\":7267:7271   */\n      dup2\n        /* \"#utility.yul\":7141:7272   */\n      tag_107\n      jump\t// in\n    tag_194:\n        /* \"#utility.yul\":7133:7272   */\n      swap1\n      pop\n        /* \"#utility.yul\":6860:7279   */\n      swap2\n      swap1\n      pop\n      jump\t// out\n        /* \"#utility.yul\":7285:7459   */\n    tag_108:\n        /* \"#utility.yul\":7425:7451   */\n      0x496e76616c696420726563656976657220616464726573730000000000000000\n        /* \"#utility.yul\":7421:7422   */\n      0x00\n        /* \"#utility.yul\":7413:7419   */\n      dup3\n        /* \"#utility.yul\":7409:7423   */\n      add\n        /* \"#utility.yul\":7402:7452   */\n      mstore\n        /* \"#utility.yul\":7285:7459   */\n      pop\n      jump\t// out\n        /* \"#utility.yul\":7465:7831   */\n    tag_109:\n        /* \"#utility.yul\":7607:7610   */\n      0x00\n        /* \"#utility.yul\":7628:7695   */\n      tag_197\n        /* \"#utility.yul\":7692:7694   */\n      0x18\n        /* \"#utility.yul\":7687:7690   */\n      dup4\n        /* \"#utility.yul\":7628:7695   */\n      tag_101\n      jump\t// in\n    tag_197:\n        /* \"#utility.yul\":7621:7695   */\n      swap2\n      pop\n        /* \"#utility.yul\":7704:7797   */\n      tag_198\n        /* \"#utility.yul\":7793:7796   */\n      dup3\n        /* \"#utility.yul\":7704:7797   */\n      tag_108\n      jump\t// in\n    tag_198:\n        /* \"#utility.yul\":7822:7824   */\n      0x20\n        /* \"#utility.yul\":7817:7820   */\n      dup3\n        /* \"#utility.yul\":7813:7825   */\n      add\n        /* \"#utility.yul\":7806:7825   */\n      swap1\n      pop\n        /* \"#utility.yul\":7465:7831   */\n      swap2\n      swap1\n      pop\n      jump\t// out\n        /* \"#utility.yul\":7837:8256   */\n    tag_43:\n        /* \"#utility.yul\":8003:8007   */\n      0x00\n        /* \"#utility.yul\":8041:8043   */\n      0x20\n        /* \"#utility.yul\":8030:8039   */\n      dup3\n        /* \"#utility.yul\":8026:8044   */\n      add\n        /* \"#utility.yul\":8018:8044   */\n      swap1\n      pop\n        /* \"#utility.yul\":8090:8099   */\n      dup2\n        /* \"#utility.yul\":8084:8088   */\n      dup2\n        /* \"#utility.yul\":8080:8100   */\n      sub\n        /* \"#utility.yul\":8076:8077   */\n      0x00\n        /* \"#utility.yul\":8065:8074   */\n      dup4\n        /* \"#utility.yul\":8061:8078   */\n      add\n        /* \"#utility.yul\":8054:8101   */\n      mstore\n        /* \"#utility.yul\":8118:8249   */\n      tag_200\n        /* \"#utility.yul\":8244:8248   */\n      dup2\n        /* \"#utility.yul\":8118:8249   */\n      tag_109\n      jump\t// in\n    tag_200:\n        /* \"#utility.yul\":8110:8249   */\n      swap1\n      pop\n        /* \"#utility.yul\":7837:8256   */\n      swap2\n      swap1\n      pop\n      jump\t// out\n        /* \"#utility.yul\":8262:8380   */\n    tag_110:\n        /* \"#utility.yul\":8349:8373   */\n      tag_202\n        /* \"#utility.yul\":8367:8372   */\n      dup2\n        /* \"#utility.yul\":8349:8373   */\n      tag_92\n      jump\t// in\n    tag_202:\n        /* \"#utility.yul\":8344:8347   */\n      dup3\n        /* \"#utility.yul\":8337:8374   */\n      mstore\n        /* \"#utility.yul\":8262:8380   */\n      pop\n      pop\n      jump\t// out\n        /* \"#utility.yul\":8386:8828   */\n    tag_45:\n        /* \"#utility.yul\":8535:8539   */\n      0x00\n        /* \"#utility.yul\":8573:8575   */\n      0x60\n        /* \"#utility.yul\":8562:8571   */\n      dup3\n        /* \"#utility.yul\":8558:8576   */\n      add\n        /* \"#utility.yul\":8550:8576   */\n      swap1\n      pop\n        /* \"#utility.yul\":8586:8657   */\n      tag_204\n        /* \"#utility.yul\":8654:8655   */\n      0x00\n        /* \"#utility.yul\":8643:8652   */\n      dup4\n        /* \"#utility.yul\":8639:8656   */\n      add\n        /* \"#utility.yul\":8630:8636   */\n      dup7\n        /* \"#utility.yul\":8586:8657   */\n      tag_95\n      jump\t// in\n    tag_204:\n        /* \"#utility.yul\":8667:8739   */\n      tag_205\n        /* \"#utility.yul\":8735:8737   */\n      0x20\n        /* \"#utility.yul\":8724:8733   */\n      dup4\n        /* \"#utility.yul\":8720:8738   */\n      add\n        /* \"#utility.yul\":8711:8717   */\n      dup6\n        /* \"#utility.yul\":8667:8739   */\n      tag_95\n      jump\t// in\n    tag_205:\n        /* \"#utility.yul\":8749:8821   */\n      tag_206\n        /* \"#utility.yul\":8817:8819   */\n      0x40\n        /* \"#utility.yul\":8806:8815   */\n      dup4\n        /* \"#utility.yul\":8802:8820   */\n      add\n        /* \"#utility.yul\":8793:8799   */\n      dup5\n        /* \"#utility.yul\":8749:8821   */\n      tag_110\n      jump\t// in\n    tag_206:\n        /* \"#utility.yul\":8386:8828   */\n      swap5\n      swap4\n      pop\n      pop\n      pop\n      pop\n      jump\t// out\n        /* \"#utility.yul\":8834:8924   */\n    tag_111:\n        /* \"#utility.yul\":8868:8875   */\n      0x00\n        /* \"#utility.yul\":8911:8916   */\n      dup2\n        /* \"#utility.yul\":8904:8917   */\n      iszero\n        /* \"#utility.yul\":8897:8918   */\n      iszero\n        /* \"#utility.yul\":8886:8918   */\n      swap1\n      pop\n        /* \"#utility.yul\":8834:8924   */\n      swap2\n      swap1\n      pop\n      jump\t// out\n        /* \"#utility.yul\":8930:9046   */\n    tag_112:\n        /* \"#utility.yul\":9000:9021   */\n      tag_209\n        /* \"#utility.yul\":9015:9020   */\n      dup2\n        /* \"#utility.yul\":9000:9021   */\n      tag_111\n      jump\t// in\n    tag_209:\n        /* \"#utility.yul\":8993:8998   */\n      dup2\n        /* \"#utility.yul\":8990:9022   */\n      eq\n        /* \"#utility.yul\":8980:9040   */\n      tag_210\n      jumpi\n        /* \"#utility.yul\":9036:9037   */\n      0x00\n        /* \"#utility.yul\":9033:9034   */\n      dup1\n        /* \"#utility.yul\":9026:9038   */\n      revert\n        /* \"#utility.yul\":8980:9040   */\n    tag_210:\n        /* \"#utility.yul\":8930:9046   */\n      pop\n      jump\t// out\n        /* \"#utility.yul\":9052:9189   */\n    tag_113:\n        /* \"#utility.yul\":9106:9111   */\n      0x00\n        /* \"#utility.yul\":9137:9143   */\n      dup2\n        /* \"#utility.yul\":9131:9144   */\n      mload\n        /* \"#utility.yul\":9122:9144   */\n      swap1\n      pop\n        /* \"#utility.yul\":9153:9183   */\n      tag_212\n        /* \"#utility.yul\":9177:9182   */\n      dup2\n        /* \"#utility.yul\":9153:9183   */\n      tag_112\n      jump\t// in\n    tag_212:\n        /* \"#utility.yul\":9052:9189   */\n      swap3\n      swap2\n      pop\n      pop\n      jump\t// out\n        /* \"#utility.yul\":9195:9540   */\n    tag_49:\n        /* \"#utility.yul\":9262:9268   */\n      0x00\n        /* \"#utility.yul\":9311:9313   */\n      0x20\n        /* \"#utility.yul\":9299:9308   */\n      dup3\n        /* \"#utility.yul\":9290:9297   */\n      dup5\n        /* \"#utility.yul\":9286:9309   */\n      sub\n        /* \"#utility.yul\":9282:9314   */\n      slt\n        /* \"#utility.yul\":9279:9398   */\n      iszero\n      tag_214\n      jumpi\n        /* \"#utility.yul\":9317:9396   */\n      tag_215\n      tag_86\n      jump\t// in\n    tag_215:\n        /* \"#utility.yul\":9279:9398   */\n    tag_214:\n        /* \"#utility.yul\":9437:9438   */\n      0x00\n        /* \"#utility.yul\":9462:9523   */\n      tag_216\n        /* \"#utility.yul\":9515:9522   */\n      dup5\n        /* \"#utility.yul\":9506:9512   */\n      dup3\n        /* \"#utility.yul\":9495:9504   */\n      dup6\n        /* \"#utility.yul\":9491:9513   */\n      add\n        /* \"#utility.yul\":9462:9523   */\n      tag_113\n      jump\t// in\n    tag_216:\n        /* \"#utility.yul\":9452:9523   */\n      swap2\n      pop\n        /* \"#utility.yul\":9408:9533   */\n      pop\n        /* \"#utility.yul\":9195:9540   */\n      swap3\n      swap2\n      pop\n      pop\n      jump\t// out\n        /* \"#utility.yul\":9546:9717   */\n    tag_114:\n        /* \"#utility.yul\":9686:9709   */\n      0x546f6b656e207472616e73666572206661696c65640000000000000000000000\n        /* \"#utility.yul\":9682:9683   */\n      0x00\n        /* \"#utility.yul\":9674:9680   */\n      dup3\n        /* \"#utility.yul\":9670:9684   */\n      add\n        /* \"#utility.yul\":9663:9710   */\n      mstore\n        /* \"#utility.yul\":9546:9717   */\n      pop\n      jump\t// out\n        /* \"#utility.yul\":9723:10089   */\n    tag_115:\n        /* \"#utility.yul\":9865:9868   */\n      0x00\n        /* \"#utility.yul\":9886:9953   */\n      tag_219\n        /* \"#utility.yul\":9950:9952   */\n      0x15\n        /* \"#utility.yul\":9945:9948   */\n      dup4\n        /* \"#utility.yul\":9886:9953   */\n      tag_101\n      jump\t// in\n    tag_219:\n        /* \"#utility.yul\":9879:9953   */\n      swap2\n      pop\n        /* \"#utility.yul\":9962:10055   */\n      tag_220\n        /* \"#utility.yul\":10051:10054   */\n      dup3\n        /* \"#utility.yul\":9962:10055   */\n      tag_114\n      jump\t// in\n    tag_220:\n        /* \"#utility.yul\":10080:10082   */\n      0x20\n        /* \"#utility.yul\":10075:10078   */\n      dup3\n        /* \"#utility.yul\":10071:10083   */\n      add\n        /* \"#utility.yul\":10064:10083   */\n      swap1\n      pop\n        /* \"#utility.yul\":9723:10089   */\n      swap2\n      swap1\n      pop\n      jump\t// out\n        /* \"#utility.yul\":10095:10514   */\n    tag_52:\n        /* \"#utility.yul\":10261:10265   */\n      0x00\n        /* \"#utility.yul\":10299:10301   */\n      0x20\n        /* \"#utility.yul\":10288:10297   */\n      dup3\n        /* \"#utility.yul\":10284:10302   */\n      add\n        /* \"#utility.yul\":10276:10302   */\n      swap1\n      pop\n        /* \"#utility.yul\":10348:10357   */\n      dup2\n        /* \"#utility.yul\":10342:10346   */\n      dup2\n        /* \"#utility.yul\":10338:10358   */\n      sub\n        /* \"#utility.yul\":10334:10335   */\n      0x00\n        /* \"#utility.yul\":10323:10332   */\n      dup4\n        /* \"#utility.yul\":10319:10336   */\n      add\n        /* \"#utility.yul\":10312:10359   */\n      mstore\n        /* \"#utility.yul\":10376:10507   */\n      tag_222\n        /* \"#utility.yul\":10502:10506   */\n      dup2\n        /* \"#utility.yul\":10376:10507   */\n      tag_115\n      jump\t// in\n    tag_222:\n        /* \"#utility.yul\":10368:10507   */\n      swap1\n      pop\n        /* \"#utility.yul\":10095:10514   */\n      swap2\n      swap1\n      pop\n      jump\t// out\n        /* \"#utility.yul\":10520:10742   */\n    tag_54:\n        /* \"#utility.yul\":10613:10617   */\n      0x00\n        /* \"#utility.yul\":10651:10653   */\n      0x20\n        /* \"#utility.yul\":10640:10649   */\n      dup3\n        /* \"#utility.yul\":10636:10654   */\n      add\n        /* \"#utility.yul\":10628:10654   */\n      swap1\n      pop\n        /* \"#utility.yul\":10664:10735   */\n      tag_224\n        /* \"#utility.yul\":10732:10733   */\n      0x00\n        /* \"#utility.yul\":10721:10730   */\n      dup4\n        /* \"#utility.yul\":10717:10734   */\n      add\n        /* \"#utility.yul\":10708:10714   */\n      dup5\n        /* \"#utility.yul\":10664:10735   */\n      tag_110\n      jump\t// in\n    tag_224:\n        /* \"#utility.yul\":10520:10742   */\n      swap3\n      swap2\n      pop\n      pop\n      jump\t// out\n        /* \"#utility.yul\":10748:10916   */\n    tag_116:\n        /* \"#utility.yul\":10888:10908   */\n      0x496e76616c69642045544820616d6f756e740000000000000000000000000000\n        /* \"#utility.yul\":10884:10885   */\n      0x00\n        /* \"#utility.yul\":10876:10882   */\n      dup3\n        /* \"#utility.yul\":10872:10886   */\n      add\n        /* \"#utility.yul\":10865:10909   */\n      mstore\n        /* \"#utility.yul\":10748:10916   */\n      pop\n      jump\t// out\n        /* \"#utility.yul\":10922:11288   */\n    tag_117:\n        /* \"#utility.yul\":11064:11067   */\n      0x00\n        /* \"#utility.yul\":11085:11152   */\n      tag_227\n        /* \"#utility.yul\":11149:11151   */\n      0x12\n        /* \"#utility.yul\":11144:11147   */\n      dup4\n        /* \"#utility.yul\":11085:11152   */\n      tag_101\n      jump\t// in\n    tag_227:\n        /* \"#utility.yul\":11078:11152   */\n      swap2\n      pop\n        /* \"#utility.yul\":11161:11254   */\n      tag_228\n        /* \"#utility.yul\":11250:11253   */\n      dup3\n        /* \"#utility.yul\":11161:11254   */\n      tag_116\n      jump\t// in\n    tag_228:\n        /* \"#utility.yul\":11279:11281   */\n      0x20\n        /* \"#utility.yul\":11274:11277   */\n      dup3\n        /* \"#utility.yul\":11270:11282   */\n      add\n        /* \"#utility.yul\":11263:11282   */\n      swap1\n      pop\n        /* \"#utility.yul\":10922:11288   */\n      swap2\n      swap1\n      pop\n      jump\t// out\n        /* \"#utility.yul\":11294:11713   */\n    tag_58:\n        /* \"#utility.yul\":11460:11464   */\n      0x00\n        /* \"#utility.yul\":11498:11500   */\n      0x20\n        /* \"#utility.yul\":11487:11496   */\n      dup3\n        /* \"#utility.yul\":11483:11501   */\n      add\n        /* \"#utility.yul\":11475:11501   */\n      swap1\n      pop\n        /* \"#utility.yul\":11547:11556   */\n      dup2\n        /* \"#utility.yul\":11541:11545   */\n      dup2\n        /* \"#utility.yul\":11537:11557   */\n      sub\n        /* \"#utility.yul\":11533:11534   */\n      0x00\n        /* \"#utility.yul\":11522:11531   */\n      dup4\n        /* \"#utility.yul\":11518:11535   */\n      add\n        /* \"#utility.yul\":11511:11558   */\n      mstore\n        /* \"#utility.yul\":11575:11706   */\n      tag_230\n        /* \"#utility.yul\":11701:11705   */\n      dup2\n        /* \"#utility.yul\":11575:11706   */\n      tag_117\n      jump\t// in\n    tag_230:\n        /* \"#utility.yul\":11567:11706   */\n      swap1\n      pop\n        /* \"#utility.yul\":11294:11713   */\n      swap2\n      swap1\n      pop\n      jump\t// out\n        /* \"#utility.yul\":11719:11944   */\n    tag_118:\n        /* \"#utility.yul\":11859:11893   */\n      0x4f6e6c792045564d206272696467652063616e2063616c6c2074686973206675\n        /* \"#utility.yul\":11855:11856   */\n      0x00\n        /* \"#utility.yul\":11847:11853   */\n      dup3\n        /* \"#utility.yul\":11843:11857   */\n      add\n        /* \"#utility.yul\":11836:11894   */\n      mstore\n        /* \"#utility.yul\":11928:11936   */\n      0x6e6374696f6e0000000000000000000000000000000000000000000000000000\n        /* \"#utility.yul\":11923:11925   */\n      0x20\n        /* \"#utility.yul\":11915:11921   */\n      dup3\n        /* \"#utility.yul\":11911:11926   */\n      add\n        /* \"#utility.yul\":11904:11937   */\n      mstore\n        /* \"#utility.yul\":11719:11944   */\n      pop\n      jump\t// out\n        /* \"#utility.yul\":11950:12316   */\n    tag_119:\n        /* \"#utility.yul\":12092:12095   */\n      0x00\n        /* \"#utility.yul\":12113:12180   */\n      tag_233\n        /* \"#utility.yul\":12177:12179   */\n      0x26\n        /* \"#utility.yul\":12172:12175   */\n      dup4\n        /* \"#utility.yul\":12113:12180   */\n      tag_101\n      jump\t// in\n    tag_233:\n        /* \"#utility.yul\":12106:12180   */\n      swap2\n      pop\n        /* \"#utility.yul\":12189:12282   */\n      tag_234\n        /* \"#utility.yul\":12278:12281   */\n      dup3\n        /* \"#utility.yul\":12189:12282   */\n      tag_118\n      jump\t// in\n    tag_234:\n        /* \"#utility.yul\":12307:12309   */\n      0x40\n        /* \"#utility.yul\":12302:12305   */\n      dup3\n        /* \"#utility.yul\":12298:12310   */\n      add\n        /* \"#utility.yul\":12291:12310   */\n      swap1\n      pop\n        /* \"#utility.yul\":11950:12316   */\n      swap2\n      swap1\n      pop\n      jump\t// out\n        /* \"#utility.yul\":12322:12741   */\n    tag_67:\n        /* \"#utility.yul\":12488:12492   */\n      0x00\n        /* \"#utility.yul\":12526:12528   */\n      0x20\n        /* \"#utility.yul\":12515:12524   */\n      dup3\n        /* \"#utility.yul\":12511:12529   */\n      add\n        /* \"#utility.yul\":12503:12529   */\n      swap1\n      pop\n        /* \"#utility.yul\":12575:12584   */\n      dup2\n        /* \"#utility.yul\":12569:12573   */\n      dup2\n        /* \"#utility.yul\":12565:12585   */\n      sub\n        /* \"#utility.yul\":12561:12562   */\n      0x00\n        /* \"#utility.yul\":12550:12559   */\n      dup4\n        /* \"#utility.yul\":12546:12563   */\n      add\n        /* \"#utility.yul\":12539:12586   */\n      mstore\n        /* \"#utility.yul\":12603:12734   */\n      tag_236\n        /* \"#utility.yul\":12729:12733   */\n      dup2\n        /* \"#utility.yul\":12603:12734   */\n      tag_119\n      jump\t// in\n    tag_236:\n        /* \"#utility.yul\":12595:12734   */\n      swap1\n      pop\n        /* \"#utility.yul\":12322:12741   */\n      swap2\n      swap1\n      pop\n      jump\t// out\n        /* \"#utility.yul\":12747:12927   */\n    tag_120:\n        /* \"#utility.yul\":12887:12919   */\n      0x4c6f636b206576656e7420766572696669636174696f6e206661696c65640000\n        /* \"#utility.yul\":12883:12884   */\n      0x00\n        /* \"#utility.yul\":12875:12881   */\n      dup3\n        /* \"#utility.yul\":12871:12885   */\n      add\n        /* \"#utility.yul\":12864:12920   */\n      mstore\n        /* \"#utility.yul\":12747:12927   */\n      pop\n      jump\t// out\n        /* \"#utility.yul\":12933:13299   */\n    tag_121:\n        /* \"#utility.yul\":13075:13078   */\n      0x00\n        /* \"#utility.yul\":13096:13163   */\n      tag_239\n        /* \"#utility.yul\":13160:13162   */\n      0x1e\n        /* \"#utility.yul\":13155:13158   */\n      dup4\n        /* \"#utility.yul\":13096:13163   */\n      tag_101\n      jump\t// in\n    tag_239:\n        /* \"#utility.yul\":13089:13163   */\n      swap2\n      pop\n        /* \"#utility.yul\":13172:13265   */\n      tag_240\n        /* \"#utility.yul\":13261:13264   */\n      dup3\n        /* \"#utility.yul\":13172:13265   */\n      tag_120\n      jump\t// in\n    tag_240:\n        /* \"#utility.yul\":13290:13292   */\n      0x20\n        /* \"#utility.yul\":13285:13288   */\n      dup3\n        /* \"#utility.yul\":13281:13293   */\n      add\n        /* \"#utility.yul\":13274:13293   */\n      swap1\n      pop\n        /* \"#utility.yul\":12933:13299   */\n      swap2\n      swap1\n      pop\n      jump\t// out\n        /* \"#utility.yul\":13305:13724   */\n    tag_73:\n        /* \"#utility.yul\":13471:13475   */\n      0x00\n        /* \"#utility.yul\":13509:13511   */\n      0x20\n        /* \"#utility.yul\":13498:13507   */\n      dup3\n        /* \"#utility.yul\":13494:13512   */\n      add\n        /* \"#utility.yul\":13486:13512   */\n      swap1\n      pop\n        /* \"#utility.yul\":13558:13567   */\n      dup2\n        /* \"#utility.yul\":13552:13556   */\n      dup2\n        /* \"#utility.yul\":13548:13568   */\n      sub\n        /* \"#utility.yul\":13544:13545   */\n      0x00\n        /* \"#utility.yul\":13533:13542   */\n      dup4\n        /* \"#utility.yul\":13529:13546   */\n      add\n        /* \"#utility.yul\":13522:13569   */\n      mstore\n        /* \"#utility.yul\":13586:13717   */\n      tag_242\n        /* \"#utility.yul\":13712:13716   */\n      dup2\n        /* \"#utility.yul\":13586:13717   */\n      tag_121\n      jump\t// in\n    tag_242:\n        /* \"#utility.yul\":13578:13717   */\n      swap1\n      pop\n        /* \"#utility.yul\":13305:13724   */\n      swap2\n      swap1\n      pop\n      jump\t// out\n        /* \"#utility.yul\":13730:14062   */\n    tag_75:\n        /* \"#utility.yul\":13851:13855   */\n      0x00\n        /* \"#utility.yul\":13889:13891   */\n      0x40\n        /* \"#utility.yul\":13878:13887   */\n      dup3\n        /* \"#utility.yul\":13874:13892   */\n      add\n        /* \"#utility.yul\":13866:13892   */\n      swap1\n      pop\n        /* \"#utility.yul\":13902:13973   */\n      tag_244\n        /* \"#utility.yul\":13970:13971   */\n      0x00\n        /* \"#utility.yul\":13959:13968   */\n      dup4\n        /* \"#utility.yul\":13955:13972   */\n      add\n        /* \"#utility.yul\":13946:13952   */\n      dup6\n        /* \"#utility.yul\":13902:13973   */\n      tag_95\n      jump\t// in\n    tag_244:\n        /* \"#utility.yul\":13983:14055   */\n      tag_245\n        /* \"#utility.yul\":14051:14053   */\n      0x20\n        /* \"#utility.yul\":14040:14049   */\n      dup4\n        /* \"#utility.yul\":14036:14054   */\n      add\n        /* \"#utility.yul\":14027:14033   */\n      dup5\n        /* \"#utility.yul\":13983:14055   */\n      tag_110\n      jump\t// in\n    tag_245:\n        /* \"#utility.yul\":13730:14062   */\n      swap4\n      swap3\n      pop\n      pop\n      pop\n      jump\t// out\n        /* \"#utility.yul\":14068:14289   */\n    tag_122:\n        /* \"#utility.yul\":14208:14242   */\n      0x496e76616c69642072656365697665722061646472657373206f7220616d6f75\n        /* \"#utility.yul\":14204:14205   */\n      0x00\n        /* \"#utility.yul\":14196:14202   */\n      dup3\n        /* \"#utility.yul\":14192:14206   */\n      add\n        /* \"#utility.yul\":14185:14243   */\n      mstore\n        /* \"#utility.yul\":14277:14281   */\n      0x6e74000000000000000000000000000000000000000000000000000000000000\n        /* \"#utility.yul\":14272:14274   */\n      0x20\n        /* \"#utility.yul\":14264:14270   */\n      dup3\n        /* \"#utility.yul\":14260:14275   */\n      add\n        /* \"#utility.yul\":14253:14282   */\n      mstore\n        /* \"#utility.yul\":14068:14289   */\n      pop\n      jump\t// out\n        /* \"#utility.yul\":14295:14661   */\n    tag_123:\n        /* \"#utility.yul\":14437:14440   */\n      0x00\n        /* \"#utility.yul\":14458:14525   */\n      tag_248\n        /* \"#utility.yul\":14522:14524   */\n      0x22\n        /* \"#utility.yul\":14517:14520   */\n      dup4\n        /* \"#utility.yul\":14458:14525   */\n      tag_101\n      jump\t// in\n    tag_248:\n        /* \"#utility.yul\":14451:14525   */\n      swap2\n      pop\n        /* \"#utility.yul\":14534:14627   */\n      tag_249\n        /* \"#utility.yul\":14623:14626   */\n      dup3\n        /* \"#utility.yul\":14534:14627   */\n      tag_122\n      jump\t// in\n    tag_249:\n        /* \"#utility.yul\":14652:14654   */\n      0x40\n        /* \"#utility.yul\":14647:14650   */\n      dup3\n        /* \"#utility.yul\":14643:14655   */\n      add\n        /* \"#utility.yul\":14636:14655   */\n      swap1\n      pop\n        /* \"#utility.yul\":14295:14661   */\n      swap2\n      swap1\n      pop\n      jump\t// out\n        /* \"#utility.yul\":14667:15086   */\n    tag_84:\n        /* \"#utility.yul\":14833:14837   */\n      0x00\n        /* \"#utility.yul\":14871:14873   */\n      0x20\n        /* \"#utility.yul\":14860:14869   */\n      dup3\n        /* \"#utility.yul\":14856:14874   */\n      add\n        /* \"#utility.yul\":14848:14874   */\n      swap1\n      pop\n        /* \"#utility.yul\":14920:14929   */\n      dup2\n        /* \"#utility.yul\":14914:14918   */\n      dup2\n        /* \"#utility.yul\":14910:14930   */\n      sub\n        /* \"#utility.yul\":14906:14907   */\n      0x00\n        /* \"#utility.yul\":14895:14904   */\n      dup4\n        /* \"#utility.yul\":14891:14908   */\n      add\n        /* \"#utility.yul\":14884:14931   */\n      mstore\n        /* \"#utility.yul\":14948:15079   */\n      tag_251\n        /* \"#utility.yul\":15074:15078   */\n      dup2\n        /* \"#utility.yul\":14948:15079   */\n      tag_123\n      jump\t// in\n    tag_251:\n        /* \"#utility.yul\":14940:15079   */\n      swap1\n      pop\n        /* \"#utility.yul\":14667:15086   */\n      swap2\n      swap1\n      pop\n      jump\t// out\n\n    auxdata: 0xa26469706673582212205c7653e922709bc670b1a207930e1c132766a9ebbecd935e03255046c9d7691064736f6c63430008180033\n}\n",
				"bytecode": {
					"linkReferences": {},
					"object": "608060405234801562000010575f80fd5b50604051620011253803806200112583398181016040528101906200003691906200015d565b815f806101000a81548173ffffffffffffffffffffffffffffffffffffffff021916908373ffffffffffffffffffffffffffffffffffffffff1602179055508060015f6101000a81548173ffffffffffffffffffffffffffffffffffffffff021916908373ffffffffffffffffffffffffffffffffffffffff1602179055507f33c981baba081f8fd2c52ac6ad1ea95b6814b4376640f55689051f65847296888282604051620000e8929190620001b3565b60405180910390a15050620001de565b5f80fd5b5f73ffffffffffffffffffffffffffffffffffffffff82169050919050565b5f6200012782620000fc565b9050919050565b62000139816200011b565b811462000144575f80fd5b50565b5f8151905062000157816200012e565b92915050565b5f8060408385031215620001765762000175620000f8565b5b5f620001858582860162000147565b9250506020620001988582860162000147565b9150509250929050565b620001ad816200011b565b82525050565b5f604082019050620001c85f830185620001a2565b620001d76020830184620001a2565b9392505050565b610f3980620001ec5f395ff3fe608060405260043610610049575f3560e01c80631bf07ad91461004d57806320ac06421461007557806389957c8114610091578063f40d71f1146100bb578063fc0c546a146100e3575b5f80fd5b348015610058575f80fd5b50610073600480360381019061006e919061089f565b61010d565b005b61008f600480360381019061008a9190610903565b6103dc565b005b34801561009c575f80fd5b506100a561057a565b6040516100b29190610950565b60405180910390f35b3480156100c6575f80fd5b506100e160048036038101906100dc9190610969565b61059d565b005b3480156100ee575f80fd5b506100f7610763565b6040516101049190610a02565b60405180910390f35b5f73ffffffffffffffffffffffffffffffffffffffff168473ffffffffffffffffffffffffffffffffffffffff160361017b576040517f08c379a000000000000000000000000000000000000000000000000000000000815260040161017290610a75565b60405180910390fd5b5f83116101bd576040517f08c379a00000000000000000000000000000000000000000000000000000000081526004016101b490610add565b60405180910390fd5b5f73ffffffffffffffffffffffffffffffffffffffff168273ffffffffffffffffffffffffffffffffffffffff160361022b576040517f08c379a000000000000000000000000000000000000000000000000000000000815260040161022290610b45565b60405180910390fd5b5f73ffffffffffffffffffffffffffffffffffffffff168173ffffffffffffffffffffffffffffffffffffffff1603610299576040517f08c379a000000000000000000000000000000000000000000000000000000000815260040161029090610bad565b60405180910390fd5b5f8490508073ffffffffffffffffffffffffffffffffffffffff166323b872dd3330876040518463ffffffff1660e01b81526004016102da93929190610bda565b6020604051808303815f875af11580156102f6573d5f803e3d5ffd5b505050506040513d601f19601f8201168201806040525081019061031a9190610c44565b610359576040517f08c379a000000000000000000000000000000000000000000000000000000000815260040161035090610cb9565b60405180910390fd5b8173ffffffffffffffffffffffffffffffffffffffff168373ffffffffffffffffffffffffffffffffffffffff163373ffffffffffffffffffffffffffffffffffffffff167f4a060e13dfcf0a43583fc42ed986145b0b079e634722659e51d94f8ffeda8c71876040516103cd9190610cd7565b60405180910390a45050505050565b5f341161041e576040517f08c379a000000000000000000000000000000000000000000000000000000000815260040161041590610d3a565b60405180910390fd5b5f73ffffffffffffffffffffffffffffffffffffffff168273ffffffffffffffffffffffffffffffffffffffff160361048c576040517f08c379a000000000000000000000000000000000000000000000000000000000815260040161048390610b45565b60405180910390fd5b5f73ffffffffffffffffffffffffffffffffffffffff168173ffffffffffffffffffffffffffffffffffffffff16036104fa576040517f08c379a00000000000000000000000000000000000000000000000000000000081526004016104f190610bad565b60405180910390fd5b8073ffffffffffffffffffffffffffffffffffffffff168273ffffffffffffffffffffffffffffffffffffffff163373ffffffffffffffffffffffffffffffffffffffff167f4a060e13dfcf0a43583fc42ed986145b0b079e634722659e51d94f8ffeda8c713460405161056e9190610cd7565b60405180910390a45050565b5f8054906101000a900473ffffffffffffffffffffffffffffffffffffffff1681565b5f8054906101000a900473ffffffffffffffffffffffffffffffffffffffff1673ffffffffffffffffffffffffffffffffffffffff163373ffffffffffffffffffffffffffffffffffffffff161461062a576040517f08c379a000000000000000000000000000000000000000000000000000000000815260040161062190610dc8565b60405180910390fd5b610635338383610788565b610674576040517f08c379a000000000000000000000000000000000000000000000000000000000815260040161066b90610e30565b60405180910390fd5b60015f9054906101000a900473ffffffffffffffffffffffffffffffffffffffff1673ffffffffffffffffffffffffffffffffffffffff1663a9059cbb83836040518363ffffffff1660e01b81526004016106d0929190610e4e565b6020604051808303815f875af11580156106ec573d5f803e3d5ffd5b505050506040513d601f19601f820116820180604052508101906107109190610c44565b508173ffffffffffffffffffffffffffffffffffffffff167fc7798891864187665ac6dd119286e44ec13f014527aeeb2b8eb3fd413df93179826040516107579190610cd7565b60405180910390a25050565b60015f9054906101000a900473ffffffffffffffffffffffffffffffffffffffff1681565b5f8073ffffffffffffffffffffffffffffffffffffffff168373ffffffffffffffffffffffffffffffffffffffff16141580156107c457505f82115b610803576040517f08c379a00000000000000000000000000000000000000000000000000000000081526004016107fa90610ee5565b60405180910390fd5b600190509392505050565b5f80fd5b5f73ffffffffffffffffffffffffffffffffffffffff82169050919050565b5f61083b82610812565b9050919050565b61084b81610831565b8114610855575f80fd5b50565b5f8135905061086681610842565b92915050565b5f819050919050565b61087e8161086c565b8114610888575f80fd5b50565b5f8135905061089981610875565b92915050565b5f805f80608085870312156108b7576108b661080e565b5b5f6108c487828801610858565b94505060206108d58782880161088b565b93505060406108e687828801610858565b92505060606108f787828801610858565b91505092959194509250565b5f80604083850312156109195761091861080e565b5b5f61092685828601610858565b925050602061093785828601610858565b9150509250929050565b61094a81610831565b82525050565b5f6020820190506109635f830184610941565b92915050565b5f806040838503121561097f5761097e61080e565b5b5f61098c85828601610858565b925050602061099d8582860161088b565b9150509250929050565b5f819050919050565b5f6109ca6109c56109c084610812565b6109a7565b610812565b9050919050565b5f6109db826109b0565b9050919050565b5f6109ec826109d1565b9050919050565b6109fc816109e2565b82525050565b5f602082019050610a155f8301846109f3565b92915050565b5f82825260208201905092915050565b7f496e76616c696420746f6b656e206164647265737300000000000000000000005f82015250565b5f610a5f601583610a1b565b9150610a6a82610a2b565b602082019050919050565b5f6020820190508181035f830152610a8c81610a53565b9050919050565b7f496e76616c696420616d6f756e740000000000000000000000000000000000005f82015250565b5f610ac7600e83610a1b565b9150610ad282610a93565b602082019050919050565b5f6020820190508181035f830152610af481610abb565b9050919050565b7f496e76616c69642074617267657420636861696e2061646472657373000000005f82015250565b5f610b2f601c83610a1b565b9150610b3a82610afb565b602082019050919050565b5f6020820190508181035f830152610b5c81610b23565b9050919050565b7f496e76616c6964207265636569766572206164647265737300000000000000005f82015250565b5f610b97601883610a1b565b9150610ba282610b63565b602082019050919050565b5f6020820190508181035f830152610bc481610b8b565b9050919050565b610bd48161086c565b82525050565b5f606082019050610bed5f830186610941565b610bfa6020830185610941565b610c076040830184610bcb565b949350505050565b5f8115159050919050565b610c2381610c0f565b8114610c2d575f80fd5b50565b5f81519050610c3e81610c1a565b92915050565b5f60208284031215610c5957610c5861080e565b5b5f610c6684828501610c30565b91505092915050565b7f546f6b656e207472616e73666572206661696c656400000000000000000000005f82015250565b5f610ca3601583610a1b565b9150610cae82610c6f565b602082019050919050565b5f6020820190508181035f830152610cd081610c97565b9050919050565b5f602082019050610cea5f830184610bcb565b92915050565b7f496e76616c69642045544820616d6f756e7400000000000000000000000000005f82015250565b5f610d24601283610a1b565b9150610d2f82610cf0565b602082019050919050565b5f6020820190508181035f830152610d5181610d18565b9050919050565b7f4f6e6c792045564d206272696467652063616e2063616c6c20746869732066755f8201527f6e6374696f6e0000000000000000000000000000000000000000000000000000602082015250565b5f610db2602683610a1b565b9150610dbd82610d58565b604082019050919050565b5f6020820190508181035f830152610ddf81610da6565b9050919050565b7f4c6f636b206576656e7420766572696669636174696f6e206661696c656400005f82015250565b5f610e1a601e83610a1b565b9150610e2582610de6565b602082019050919050565b5f6020820190508181035f830152610e4781610e0e565b9050919050565b5f604082019050610e615f830185610941565b610e6e6020830184610bcb565b9392505050565b7f496e76616c69642072656365697665722061646472657373206f7220616d6f755f8201527f6e74000000000000000000000000000000000000000000000000000000000000602082015250565b5f610ecf602283610a1b565b9150610eda82610e75565b604082019050919050565b5f6020820190508181035f830152610efc81610ec3565b905091905056fea26469706673582212205c7653e922709bc670b1a207930e1c132766a9ebbecd935e03255046c9d7691064736f6c63430008180033",
					"opcodes": "PUSH1 0x80 PUSH1 0x40 MSTORE CALLVALUE DUP1 ISZERO PUSH3 0x10 JUMPI PUSH0 DUP1 REVERT JUMPDEST POP PUSH1 0x40 MLOAD PUSH3 0x1125 CODESIZE SUB DUP1 PUSH3 0x1125 DUP4 CODECOPY DUP2 DUP2 ADD PUSH1 0x40 MSTORE DUP2 ADD SWAP1 PUSH3 0x36 SWAP2 SWAP1 PUSH3 0x15D JUMP JUMPDEST DUP2 PUSH0 DUP1 PUSH2 0x100 EXP DUP2 SLOAD DUP2 PUSH20 0xFFFFFFFFFFFFFFFFFFFFFFFFFFFFFFFFFFFFFFFF MUL NOT AND SWAP1 DUP4 PUSH20 0xFFFFFFFFFFFFFFFFFFFFFFFFFFFFFFFFFFFFFFFF AND MUL OR SWAP1 SSTORE POP DUP1 PUSH1 0x1 PUSH0 PUSH2 0x100 EXP DUP2 SLOAD DUP2 PUSH20 0xFFFFFFFFFFFFFFFFFFFFFFFFFFFFFFFFFFFFFFFF MUL NOT AND SWAP1 DUP4 PUSH20 0xFFFFFFFFFFFFFFFFFFFFFFFFFFFFFFFFFFFFFFFF AND MUL OR SWAP1 SSTORE POP PUSH32 0x33C981BABA081F8FD2C52AC6AD1EA95B6814B4376640F55689051F6584729688 DUP3 DUP3 PUSH1 0x40 MLOAD PUSH3 0xE8 SWAP3 SWAP2 SWAP1 PUSH3 0x1B3 JUMP JUMPDEST PUSH1 0x40 MLOAD DUP1 SWAP2 SUB SWAP1 LOG1 POP POP PUSH3 0x1DE JUMP JUMPDEST PUSH0 DUP1 REVERT JUMPDEST PUSH0 PUSH20 0xFFFFFFFFFFFFFFFFFFFFFFFFFFFFFFFFFFFFFFFF DUP3 AND SWAP1 POP SWAP2 SWAP1 POP JUMP JUMPDEST PUSH0 PUSH3 0x127 DUP3 PUSH3 0xFC JUMP JUMPDEST SWAP1 POP SWAP2 SWAP1 POP JUMP JUMPDEST PUSH3 0x139 DUP2 PUSH3 0x11B JUMP JUMPDEST DUP2 EQ PUSH3 0x144 JUMPI PUSH0 DUP1 REVERT JUMPDEST POP JUMP JUMPDEST PUSH0 DUP2 MLOAD SWAP1 POP PUSH3 0x157 DUP2 PUSH3 0x12E JUMP JUMPDEST SWAP3 SWAP2 POP POP JUMP JUMPDEST PUSH0 DUP1 PUSH1 0x40 DUP4 DUP6 SUB SLT ISZERO PUSH3 0x176 JUMPI PUSH3 0x175 PUSH3 0xF8 JUMP JUMPDEST JUMPDEST PUSH0 PUSH3 0x185 DUP6 DUP3 DUP7 ADD PUSH3 0x147 JUMP JUMPDEST SWAP3 POP POP PUSH1 0x20 PUSH3 0x198 DUP6 DUP3 DUP7 ADD PUSH3 0x147 JUMP JUMPDEST SWAP2 POP POP SWAP3 POP SWAP3 SWAP1 POP JUMP JUMPDEST PUSH3 0x1AD DUP2 PUSH3 0x11B JUMP JUMPDEST DUP3 MSTORE POP POP JUMP JUMPDEST PUSH0 PUSH1 0x40 DUP3 ADD SWAP1 POP PUSH3 0x1C8 PUSH0 DUP4 ADD DUP6 PUSH3 0x1A2 JUMP JUMPDEST PUSH3 0x1D7 PUSH1 0x20 DUP4 ADD DUP5 PUSH3 0x1A2 JUMP JUMPDEST SWAP4 SWAP3 POP POP POP JUMP JUMPDEST PUSH2 0xF39 DUP1 PUSH3 0x1EC PUSH0 CODECOPY PUSH0 RETURN INVALID PUSH1 0x80 PUSH1 0x40 MSTORE PUSH1 0x4 CALLDATASIZE LT PUSH2 0x49 JUMPI PUSH0 CALLDATALOAD PUSH1 0xE0 SHR DUP1 PUSH4 0x1BF07AD9 EQ PUSH2 0x4D JUMPI DUP1 PUSH4 0x20AC0642 EQ PUSH2 0x75 JUMPI DUP1 PUSH4 0x89957C81 EQ PUSH2 0x91 JUMPI DUP1 PUSH4 0xF40D71F1 EQ PUSH2 0xBB JUMPI DUP1 PUSH4 0xFC0C546A EQ PUSH2 0xE3 JUMPI JUMPDEST PUSH0 DUP1 REVERT JUMPDEST CALLVALUE DUP1 ISZERO PUSH2 0x58 JUMPI PUSH0 DUP1 REVERT JUMPDEST POP PUSH2 0x73 PUSH1 0x4 DUP1 CALLDATASIZE SUB DUP2 ADD SWAP1 PUSH2 0x6E SWAP2 SWAP1 PUSH2 0x89F JUMP JUMPDEST PUSH2 0x10D JUMP JUMPDEST STOP JUMPDEST PUSH2 0x8F PUSH1 0x4 DUP1 CALLDATASIZE SUB DUP2 ADD SWAP1 PUSH2 0x8A SWAP2 SWAP1 PUSH2 0x903 JUMP JUMPDEST PUSH2 0x3DC JUMP JUMPDEST STOP JUMPDEST CALLVALUE DUP1 ISZERO PUSH2 0x9C JUMPI PUSH0 DUP1 REVERT JUMPDEST POP PUSH2 0xA5 PUSH2 0x57A JUMP JUMPDEST PUSH1 0x40 MLOAD PUSH2 0xB2 SWAP2 SWAP1 PUSH2 0x950 JUMP JUMPDEST PUSH1 0x40 MLOAD DUP1 SWAP2 SUB SWAP1 RETURN JUMPDEST CALLVALUE DUP1 ISZERO PUSH2 0xC6 JUMPI PUSH0 DUP1 REVERT JUMPDEST POP PUSH2 0xE1 PUSH1 0x4 DUP1 CALLDATASIZE SUB DUP2 ADD SWAP1 PUSH2 0xDC SWAP2 SWAP1 PUSH2 0x969 JUMP JUMPDEST PUSH2 0x59D JUMP JUMPDEST STOP JUMPDEST CALLVALUE DUP1 ISZERO PUSH2 0xEE JUMPI PUSH0 DUP1 REVERT JUMPDEST POP PUSH2 0xF7 PUSH2 0x763 JUMP JUMPDEST PUSH1 0x40 MLOAD PUSH2 0x104 SWAP2 SWAP1 PUSH2 0xA02 JUMP JUMPDEST PUSH1 0x40 MLOAD DUP1 SWAP2 SUB SWAP1 RETURN JUMPDEST PUSH0 PUSH20 0xFFFFFFFFFFFFFFFFFFFFFFFFFFFFFFFFFFFFFFFF AND DUP5 PUSH20 0xFFFFFFFFFFFFFFFFFFFFFFFFFFFFFFFFFFFFFFFF AND SUB PUSH2 0x17B JUMPI PUSH1 0x40 MLOAD PUSH32 0x8C379A000000000000000000000000000000000000000000000000000000000 DUP2 MSTORE PUSH1 0x4 ADD PUSH2 0x172 SWAP1 PUSH2 0xA75 JUMP JUMPDEST PUSH1 0x40 MLOAD DUP1 SWAP2 SUB SWAP1 REVERT JUMPDEST PUSH0 DUP4 GT PUSH2 0x1BD JUMPI PUSH1 0x40 MLOAD PUSH32 0x8C379A000000000000000000000000000000000000000000000000000000000 DUP2 MSTORE PUSH1 0x4 ADD PUSH2 0x1B4 SWAP1 PUSH2 0xADD JUMP JUMPDEST PUSH1 0x40 MLOAD DUP1 SWAP2 SUB SWAP1 REVERT JUMPDEST PUSH0 PUSH20 0xFFFFFFFFFFFFFFFFFFFFFFFFFFFFFFFFFFFFFFFF AND DUP3 PUSH20 0xFFFFFFFFFFFFFFFFFFFFFFFFFFFFFFFFFFFFFFFF AND SUB PUSH2 0x22B JUMPI PUSH1 0x40 MLOAD PUSH32 0x8C379A000000000000000000000000000000000000000000000000000000000 DUP2 MSTORE PUSH1 0x4 ADD PUSH2 0x222 SWAP1 PUSH2 0xB45 JUMP JUMPDEST PUSH1 0x40 MLOAD DUP1 SWAP2 SUB SWAP1 REVERT JUMPDEST PUSH0 PUSH20 0xFFFFFFFFFFFFFFFFFFFFFFFFFFFFFFFFFFFFFFFF AND DUP2 PUSH20 0xFFFFFFFFFFFFFFFFFFFFFFFFFFFFFFFFFFFFFFFF AND SUB PUSH2 0x299 JUMPI PUSH1 0x40 MLOAD PUSH32 0x8C379A000000000000000000000000000000000000000000000000000000000 DUP2 MSTORE PUSH1 0x4 ADD PUSH2 0x290 SWAP1 PUSH2 0xBAD JUMP JUMPDEST PUSH1 0x40 MLOAD DUP1 SWAP2 SUB SWAP1 REVERT JUMPDEST PUSH0 DUP5 SWAP1 POP DUP1 PUSH20 0xFFFFFFFFFFFFFFFFFFFFFFFFFFFFFFFFFFFFFFFF AND PUSH4 0x23B872DD CALLER ADDRESS DUP8 PUSH1 0x40 MLOAD DUP5 PUSH4 0xFFFFFFFF AND PUSH1 0xE0 SHL DUP2 MSTORE PUSH1 0x4 ADD PUSH2 0x2DA SWAP4 SWAP3 SWAP2 SWAP1 PUSH2 0xBDA JUMP JUMPDEST PUSH1 0x20 PUSH1 0x40 MLOAD DUP1 DUP4 SUB DUP2 PUSH0 DUP8 GAS CALL ISZERO DUP1 ISZERO PUSH2 0x2F6 JUMPI RETURNDATASIZE PUSH0 DUP1 RETURNDATACOPY RETURNDATASIZE PUSH0 REVERT JUMPDEST POP POP POP POP PUSH1 0x40 MLOAD RETURNDATASIZE PUSH1 0x1F NOT PUSH1 0x1F DUP3 ADD AND DUP3 ADD DUP1 PUSH1 0x40 MSTORE POP DUP2 ADD SWAP1 PUSH2 0x31A SWAP2 SWAP1 PUSH2 0xC44 JUMP JUMPDEST PUSH2 0x359 JUMPI PUSH1 0x40 MLOAD PUSH32 0x8C379A000000000000000000000000000000000000000000000000000000000 DUP2 MSTORE PUSH1 0x4 ADD PUSH2 0x350 SWAP1 PUSH2 0xCB9 JUMP JUMPDEST PUSH1 0x40 MLOAD DUP1 SWAP2 SUB SWAP1 REVERT JUMPDEST DUP2 PUSH20 0xFFFFFFFFFFFFFFFFFFFFFFFFFFFFFFFFFFFFFFFF AND DUP4 PUSH20 0xFFFFFFFFFFFFFFFFFFFFFFFFFFFFFFFFFFFFFFFF AND CALLER PUSH20 0xFFFFFFFFFFFFFFFFFFFFFFFFFFFFFFFFFFFFFFFF AND PUSH32 0x4A060E13DFCF0A43583FC42ED986145B0B079E634722659E51D94F8FFEDA8C71 DUP8 PUSH1 0x40 MLOAD PUSH2 0x3CD SWAP2 SWAP1 PUSH2 0xCD7 JUMP JUMPDEST PUSH1 0x40 MLOAD DUP1 SWAP2 SUB SWAP1 LOG4 POP POP POP POP POP JUMP JUMPDEST PUSH0 CALLVALUE GT PUSH2 0x41E JUMPI PUSH1 0x40 MLOAD PUSH32 0x8C379A000000000000000000000000000000000000000000000000000000000 DUP2 MSTORE PUSH1 0x4 ADD PUSH2 0x415 SWAP1 PUSH2 0xD3A JUMP JUMPDEST PUSH1 0x40 MLOAD DUP1 SWAP2 SUB SWAP1 REVERT JUMPDEST PUSH0 PUSH20 0xFFFFFFFFFFFFFFFFFFFFFFFFFFFFFFFFFFFFFFFF AND DUP3 PUSH20 0xFFFFFFFFFFFFFFFFFFFFFFFFFFFFFFFFFFFFFFFF AND SUB PUSH2 0x48C JUMPI PUSH1 0x40 MLOAD PUSH32 0x8C379A000000000000000000000000000000000000000000000000000000000 DUP2 MSTORE PUSH1 0x4 ADD PUSH2 0x483 SWAP1 PUSH2 0xB45 JUMP JUMPDEST PUSH1 0x40 MLOAD DUP1 SWAP2 SUB SWAP1 REVERT JUMPDEST PUSH0 PUSH20 0xFFFFFFFFFFFFFFFFFFFFFFFFFFFFFFFFFFFFFFFF AND DUP2 PUSH20 0xFFFFFFFFFFFFFFFFFFFFFFFFFFFFFFFFFFFFFFFF AND SUB PUSH2 0x4FA JUMPI PUSH1 0x40 MLOAD PUSH32 0x8C379A000000000000000000000000000000000000000000000000000000000 DUP2 MSTORE PUSH1 0x4 ADD PUSH2 0x4F1 SWAP1 PUSH2 0xBAD JUMP JUMPDEST PUSH1 0x40 MLOAD DUP1 SWAP2 SUB SWAP1 REVERT JUMPDEST DUP1 PUSH20 0xFFFFFFFFFFFFFFFFFFFFFFFFFFFFFFFFFFFFFFFF AND DUP3 PUSH20 0xFFFFFFFFFFFFFFFFFFFFFFFFFFFFFFFFFFFFFFFF AND CALLER PUSH20 0xFFFFFFFFFFFFFFFFFFFFFFFFFFFFFFFFFFFFFFFF AND PUSH32 0x4A060E13DFCF0A43583FC42ED986145B0B079E634722659E51D94F8FFEDA8C71 CALLVALUE PUSH1 0x40 MLOAD PUSH2 0x56E SWAP2 SWAP1 PUSH2 0xCD7 JUMP JUMPDEST PUSH1 0x40 MLOAD DUP1 SWAP2 SUB SWAP1 LOG4 POP POP JUMP JUMPDEST PUSH0 DUP1 SLOAD SWAP1 PUSH2 0x100 EXP SWAP1 DIV PUSH20 0xFFFFFFFFFFFFFFFFFFFFFFFFFFFFFFFFFFFFFFFF AND DUP2 JUMP JUMPDEST PUSH0 DUP1 SLOAD SWAP1 PUSH2 0x100 EXP SWAP1 DIV PUSH20 0xFFFFFFFFFFFFFFFFFFFFFFFFFFFFFFFFFFFFFFFF AND PUSH20 0xFFFFFFFFFFFFFFFFFFFFFFFFFFFFFFFFFFFFFFFF AND CALLER PUSH20 0xFFFFFFFFFFFFFFFFFFFFFFFFFFFFFFFFFFFFFFFF AND EQ PUSH2 0x62A JUMPI PUSH1 0x40 MLOAD PUSH32 0x8C379A000000000000000000000000000000000000000000000000000000000 DUP2 MSTORE PUSH1 0x4 ADD PUSH2 0x621 SWAP1 PUSH2 0xDC8 JUMP JUMPDEST PUSH1 0x40 MLOAD DUP1 SWAP2 SUB SWAP1 REVERT JUMPDEST PUSH2 0x635 CALLER DUP4 DUP4 PUSH2 0x788 JUMP JUMPDEST PUSH2 0x674 JUMPI PUSH1 0x40 MLOAD PUSH32 0x8C379A000000000000000000000000000000000000000000000000000000000 DUP2 MSTORE PUSH1 0x4 ADD PUSH2 0x66B SWAP1 PUSH2 0xE30 JUMP JUMPDEST PUSH1 0x40 MLOAD DUP1 SWAP2 SUB SWAP1 REVERT JUMPDEST PUSH1 0x1 PUSH0 SWAP1 SLOAD SWAP1 PUSH2 0x100 EXP SWAP1 DIV PUSH20 0xFFFFFFFFFFFFFFFFFFFFFFFFFFFFFFFFFFFFFFFF AND PUSH20 0xFFFFFFFFFFFFFFFFFFFFFFFFFFFFFFFFFFFFFFFF AND PUSH4 0xA9059CBB DUP4 DUP4 PUSH1 0x40 MLOAD DUP4 PUSH4 0xFFFFFFFF AND PUSH1 0xE0 SHL DUP2 MSTORE PUSH1 0x4 ADD PUSH2 0x6D0 SWAP3 SWAP2 SWAP1 PUSH2 0xE4E JUMP JUMPDEST PUSH1 0x20 PUSH1 0x40 MLOAD DUP1 DUP4 SUB DUP2 PUSH0 DUP8 GAS CALL ISZERO DUP1 ISZERO PUSH2 0x6EC JUMPI RETURNDATASIZE PUSH0 DUP1 RETURNDATACOPY RETURNDATASIZE PUSH0 REVERT JUMPDEST POP POP POP POP PUSH1 0x40 MLOAD RETURNDATASIZE PUSH1 0x1F NOT PUSH1 0x1F DUP3 ADD AND DUP3 ADD DUP1 PUSH1 0x40 MSTORE POP DUP2 ADD SWAP1 PUSH2 0x710 SWAP2 SWAP1 PUSH2 0xC44 JUMP JUMPDEST POP DUP2 PUSH20 0xFFFFFFFFFFFFFFFFFFFFFFFFFFFFFFFFFFFFFFFF AND PUSH32 0xC7798891864187665AC6DD119286E44EC13F014527AEEB2B8EB3FD413DF93179 DUP3 PUSH1 0x40 MLOAD PUSH2 0x757 SWAP2 SWAP1 PUSH2 0xCD7 JUMP JUMPDEST PUSH1 0x40 MLOAD DUP1 SWAP2 SUB SWAP1 LOG2 POP POP JUMP JUMPDEST PUSH1 0x1 PUSH0 SWAP1 SLOAD SWAP1 PUSH2 0x100 EXP SWAP1 DIV PUSH20 0xFFFFFFFFFFFFFFFFFFFFFFFFFFFFFFFFFFFFFFFF AND DUP2 JUMP JUMPDEST PUSH0 DUP1 PUSH20 0xFFFFFFFFFFFFFFFFFFFFFFFFFFFFFFFFFFFFFFFF AND DUP4 PUSH20 0xFFFFFFFFFFFFFFFFFFFFFFFFFFFFFFFFFFFFFFFF AND EQ ISZERO DUP1 ISZERO PUSH2 0x7C4 JUMPI POP PUSH0 DUP3 GT JUMPDEST PUSH2 0x803 JUMPI PUSH1 0x40 MLOAD PUSH32 0x8C379A000000000000000000000000000000000000000000000000000000000 DUP2 MSTORE PUSH1 0x4 ADD PUSH2 0x7FA SWAP1 PUSH2 0xEE5 JUMP JUMPDEST PUSH1 0x40 MLOAD DUP1 SWAP2 SUB SWAP1 REVERT JUMPDEST PUSH1 0x1 SWAP1 POP SWAP4 SWAP3 POP POP POP JUMP JUMPDEST PUSH0 DUP1 REVERT JUMPDEST PUSH0 PUSH20 0xFFFFFFFFFFFFFFFFFFFFFFFFFFFFFFFFFFFFFFFF DUP3 AND SWAP1 POP SWAP2 SWAP1 POP JUMP JUMPDEST PUSH0 PUSH2 0x83B DUP3 PUSH2 0x812 JUMP JUMPDEST SWAP1 POP SWAP2 SWAP1 POP JUMP JUMPDEST PUSH2 0x84B DUP2 PUSH2 0x831 JUMP JUMPDEST DUP2 EQ PUSH2 0x855 JUMPI PUSH0 DUP1 REVERT JUMPDEST POP JUMP JUMPDEST PUSH0 DUP2 CALLDATALOAD SWAP1 POP PUSH2 0x866 DUP2 PUSH2 0x842 JUMP JUMPDEST SWAP3 SWAP2 POP POP JUMP JUMPDEST PUSH0 DUP2 SWAP1 POP SWAP2 SWAP1 POP JUMP JUMPDEST PUSH2 0x87E DUP2 PUSH2 0x86C JUMP JUMPDEST DUP2 EQ PUSH2 0x888 JUMPI PUSH0 DUP1 REVERT JUMPDEST POP JUMP JUMPDEST PUSH0 DUP2 CALLDATALOAD SWAP1 POP PUSH2 0x899 DUP2 PUSH2 0x875 JUMP JUMPDEST SWAP3 SWAP2 POP POP JUMP JUMPDEST PUSH0 DUP1 PUSH0 DUP1 PUSH1 0x80 DUP6 DUP8 SUB SLT ISZERO PUSH2 0x8B7 JUMPI PUSH2 0x8B6 PUSH2 0x80E JUMP JUMPDEST JUMPDEST PUSH0 PUSH2 0x8C4 DUP8 DUP3 DUP9 ADD PUSH2 0x858 JUMP JUMPDEST SWAP5 POP POP PUSH1 0x20 PUSH2 0x8D5 DUP8 DUP3 DUP9 ADD PUSH2 0x88B JUMP JUMPDEST SWAP4 POP POP PUSH1 0x40 PUSH2 0x8E6 DUP8 DUP3 DUP9 ADD PUSH2 0x858 JUMP JUMPDEST SWAP3 POP POP PUSH1 0x60 PUSH2 0x8F7 DUP8 DUP3 DUP9 ADD PUSH2 0x858 JUMP JUMPDEST SWAP2 POP POP SWAP3 SWAP6 SWAP2 SWAP5 POP SWAP3 POP JUMP JUMPDEST PUSH0 DUP1 PUSH1 0x40 DUP4 DUP6 SUB SLT ISZERO PUSH2 0x919 JUMPI PUSH2 0x918 PUSH2 0x80E JUMP JUMPDEST JUMPDEST PUSH0 PUSH2 0x926 DUP6 DUP3 DUP7 ADD PUSH2 0x858 JUMP JUMPDEST SWAP3 POP POP PUSH1 0x20 PUSH2 0x937 DUP6 DUP3 DUP7 ADD PUSH2 0x858 JUMP JUMPDEST SWAP2 POP POP SWAP3 POP SWAP3 SWAP1 POP JUMP JUMPDEST PUSH2 0x94A DUP2 PUSH2 0x831 JUMP JUMPDEST DUP3 MSTORE POP POP JUMP JUMPDEST PUSH0 PUSH1 0x20 DUP3 ADD SWAP1 POP PUSH2 0x963 PUSH0 DUP4 ADD DUP5 PUSH2 0x941 JUMP JUMPDEST SWAP3 SWAP2 POP POP JUMP JUMPDEST PUSH0 DUP1 PUSH1 0x40 DUP4 DUP6 SUB SLT ISZERO PUSH2 0x97F JUMPI PUSH2 0x97E PUSH2 0x80E JUMP JUMPDEST JUMPDEST PUSH0 PUSH2 0x98C DUP6 DUP3 DUP7 ADD PUSH2 0x858 JUMP JUMPDEST SWAP3 POP POP PUSH1 0x20 PUSH2 0x99D DUP6 DUP3 DUP7 ADD PUSH2 0x88B JUMP JUMPDEST SWAP2 POP POP SWAP3 POP SWAP3 SWAP1 POP JUMP JUMPDEST PUSH0 DUP2 SWAP1 POP SWAP2 SWAP1 POP JUMP JUMPDEST PUSH0 PUSH2 0x9CA PUSH2 0x9C5 PUSH2 0x9C0 DUP5 PUSH2 0x812 JUMP JUMPDEST PUSH2 0x9A7 JUMP JUMPDEST PUSH2 0x812 JUMP JUMPDEST SWAP1 POP SWAP2 SWAP1 POP JUMP JUMPDEST PUSH0 PUSH2 0x9DB DUP3 PUSH2 0x9B0 JUMP JUMPDEST SWAP1 POP SWAP2 SWAP1 POP JUMP JUMPDEST PUSH0 PUSH2 0x9EC DUP3 PUSH2 0x9D1 JUMP JUMPDEST SWAP1 POP SWAP2 SWAP1 POP JUMP JUMPDEST PUSH2 0x9FC DUP2 PUSH2 0x9E2 JUMP JUMPDEST DUP3 MSTORE POP POP JUMP JUMPDEST PUSH0 PUSH1 0x20 DUP3 ADD SWAP1 POP PUSH2 0xA15 PUSH0 DUP4 ADD DUP5 PUSH2 0x9F3 JUMP JUMPDEST SWAP3 SWAP2 POP POP JUMP JUMPDEST PUSH0 DUP3 DUP3 MSTORE PUSH1 0x20 DUP3 ADD SWAP1 POP SWAP3 SWAP2 POP POP JUMP JUMPDEST PUSH32 0x496E76616C696420746F6B656E20616464726573730000000000000000000000 PUSH0 DUP3 ADD MSTORE POP JUMP JUMPDEST PUSH0 PUSH2 0xA5F PUSH1 0x15 DUP4 PUSH2 0xA1B JUMP JUMPDEST SWAP2 POP PUSH2 0xA6A DUP3 PUSH2 0xA2B JUMP JUMPDEST PUSH1 0x20 DUP3 ADD SWAP1 POP SWAP2 SWAP1 POP JUMP JUMPDEST PUSH0 PUSH1 0x20 DUP3 ADD SWAP1 POP DUP2 DUP2 SUB PUSH0 DUP4 ADD MSTORE PUSH2 0xA8C DUP2 PUSH2 0xA53 JUMP JUMPDEST SWAP1 POP SWAP2 SWAP1 POP JUMP JUMPDEST PUSH32 0x496E76616C696420616D6F756E74000000000000000000000000000000000000 PUSH0 DUP3 ADD MSTORE POP JUMP JUMPDEST PUSH0 PUSH2 0xAC7 PUSH1 0xE DUP4 PUSH2 0xA1B JUMP JUMPDEST SWAP2 POP PUSH2 0xAD2 DUP3 PUSH2 0xA93 JUMP JUMPDEST PUSH1 0x20 DUP3 ADD SWAP1 POP SWAP2 SWAP1 POP JUMP JUMPDEST PUSH0 PUSH1 0x20 DUP3 ADD SWAP1 POP DUP2 DUP2 SUB PUSH0 DUP4 ADD MSTORE PUSH2 0xAF4 DUP2 PUSH2 0xABB JUMP JUMPDEST SWAP1 POP SWAP2 SWAP1 POP JUMP JUMPDEST PUSH32 0x496E76616C69642074617267657420636861696E206164647265737300000000 PUSH0 DUP3 ADD MSTORE POP JUMP JUMPDEST PUSH0 PUSH2 0xB2F PUSH1 0x1C DUP4 PUSH2 0xA1B JUMP JUMPDEST SWAP2 POP PUSH2 0xB3A DUP3 PUSH2 0xAFB JUMP JUMPDEST PUSH1 0x20 DUP3 ADD SWAP1 POP SWAP2 SWAP1 POP JUMP JUMPDEST PUSH0 PUSH1 0x20 DUP3 ADD SWAP1 POP DUP2 DUP2 SUB PUSH0 DUP4 ADD MSTORE PUSH2 0xB5C DUP2 PUSH2 0xB23 JUMP JUMPDEST SWAP1 POP SWAP2 SWAP1 POP JUMP JUMPDEST PUSH32 0x496E76616C696420726563656976657220616464726573730000000000000000 PUSH0 DUP3 ADD MSTORE POP JUMP JUMPDEST PUSH0 PUSH2 0xB97 PUSH1 0x18 DUP4 PUSH2 0xA1B JUMP JUMPDEST SWAP2 POP PUSH2 0xBA2 DUP3 PUSH2 0xB63 JUMP JUMPDEST PUSH1 0x20 DUP3 ADD SWAP1 POP SWAP2 SWAP1 POP JUMP JUMPDEST PUSH0 PUSH1 0x20 DUP3 ADD SWAP1 POP DUP2 DUP2 SUB PUSH0 DUP4 ADD MSTORE PUSH2 0xBC4 DUP2 PUSH2 0xB8B JUMP JUMPDEST SWAP1 POP SWAP2 SWAP1 POP JUMP JUMPDEST PUSH2 0xBD4 DUP2 PUSH2 0x86C JUMP JUMPDEST DUP3 MSTORE POP POP JUMP JUMPDEST PUSH0 PUSH1 0x60 DUP3 ADD SWAP1 POP PUSH2 0xBED PUSH0 DUP4 ADD DUP7 PUSH2 0x941 JUMP JUMPDEST PUSH2 0xBFA PUSH1 0x20 DUP4 ADD DUP6 PUSH2 0x941 JUMP JUMPDEST PUSH2 0xC07 PUSH1 0x40 DUP4 ADD DUP5 PUSH2 0xBCB JUMP JUMPDEST SWAP5 SWAP4 POP POP POP POP JUMP JUMPDEST PUSH0 DUP2 ISZERO ISZERO SWAP1 POP SWAP2 SWAP1 POP JUMP JUMPDEST PUSH2 0xC23 DUP2 PUSH2 0xC0F JUMP JUMPDEST DUP2 EQ PUSH2 0xC2D JUMPI PUSH0 DUP1 REVERT JUMPDEST POP JUMP JUMPDEST PUSH0 DUP2 MLOAD SWAP1 POP PUSH2 0xC3E DUP2 PUSH2 0xC1A JUMP JUMPDEST SWAP3 SWAP2 POP POP JUMP JUMPDEST PUSH0 PUSH1 0x20 DUP3 DUP5 SUB SLT ISZERO PUSH2 0xC59 JUMPI PUSH2 0xC58 PUSH2 0x80E JUMP JUMPDEST JUMPDEST PUSH0 PUSH2 0xC66 DUP5 DUP3 DUP6 ADD PUSH2 0xC30 JUMP JUMPDEST SWAP2 POP POP SWAP3 SWAP2 POP POP JUMP JUMPDEST PUSH32 0x546F6B656E207472616E73666572206661696C65640000000000000000000000 PUSH0 DUP3 ADD MSTORE POP JUMP JUMPDEST PUSH0 PUSH2 0xCA3 PUSH1 0x15 DUP4 PUSH2 0xA1B JUMP JUMPDEST SWAP2 POP PUSH2 0xCAE DUP3 PUSH2 0xC6F JUMP JUMPDEST PUSH1 0x20 DUP3 ADD SWAP1 POP SWAP2 SWAP1 POP JUMP JUMPDEST PUSH0 PUSH1 0x20 DUP3 ADD SWAP1 POP DUP2 DUP2 SUB PUSH0 DUP4 ADD MSTORE PUSH2 0xCD0 DUP2 PUSH2 0xC97 JUMP JUMPDEST SWAP1 POP SWAP2 SWAP1 POP JUMP JUMPDEST PUSH0 PUSH1 0x20 DUP3 ADD SWAP1 POP PUSH2 0xCEA PUSH0 DUP4 ADD DUP5 PUSH2 0xBCB JUMP JUMPDEST SWAP3 SWAP2 POP POP JUMP JUMPDEST PUSH32 0x496E76616C69642045544820616D6F756E740000000000000000000000000000 PUSH0 DUP3 ADD MSTORE POP JUMP JUMPDEST PUSH0 PUSH2 0xD24 PUSH1 0x12 DUP4 PUSH2 0xA1B JUMP JUMPDEST SWAP2 POP PUSH2 0xD2F DUP3 PUSH2 0xCF0 JUMP JUMPDEST PUSH1 0x20 DUP3 ADD SWAP1 POP SWAP2 SWAP1 POP JUMP JUMPDEST PUSH0 PUSH1 0x20 DUP3 ADD SWAP1 POP DUP2 DUP2 SUB PUSH0 DUP4 ADD MSTORE PUSH2 0xD51 DUP2 PUSH2 0xD18 JUMP JUMPDEST SWAP1 POP SWAP2 SWAP1 POP JUMP JUMPDEST PUSH32 0x4F6E6C792045564D206272696467652063616E2063616C6C2074686973206675 PUSH0 DUP3 ADD MSTORE PUSH32 0x6E6374696F6E0000000000000000000000000000000000000000000000000000 PUSH1 0x20 DUP3 ADD MSTORE POP JUMP JUMPDEST PUSH0 PUSH2 0xDB2 PUSH1 0x26 DUP4 PUSH2 0xA1B JUMP JUMPDEST SWAP2 POP PUSH2 0xDBD DUP3 PUSH2 0xD58 JUMP JUMPDEST PUSH1 0x40 DUP3 ADD SWAP1 POP SWAP2 SWAP1 POP JUMP JUMPDEST PUSH0 PUSH1 0x20 DUP3 ADD SWAP1 POP DUP2 DUP2 SUB PUSH0 DUP4 ADD MSTORE PUSH2 0xDDF DUP2 PUSH2 0xDA6 JUMP JUMPDEST SWAP1 POP SWAP2 SWAP1 POP JUMP JUMPDEST PUSH32 0x4C6F636B206576656E7420766572696669636174696F6E206661696C65640000 PUSH0 DUP3 ADD MSTORE POP JUMP JUMPDEST PUSH0 PUSH2 0xE1A PUSH1 0x1E DUP4 PUSH2 0xA1B JUMP JUMPDEST SWAP2 POP PUSH2 0xE25 DUP3 PUSH2 0xDE6 JUMP JUMPDEST PUSH1 0x20 DUP3 ADD SWAP1 POP SWAP2 SWAP1 POP JUMP JUMPDEST PUSH0 PUSH1 0x20 DUP3 ADD SWAP1 POP DUP2 DUP2 SUB PUSH0 DUP4 ADD MSTORE PUSH2 0xE47 DUP2 PUSH2 0xE0E JUMP JUMPDEST SWAP1 POP SWAP2 SWAP1 POP JUMP JUMPDEST PUSH0 PUSH1 0x40 DUP3 ADD SWAP1 POP PUSH2 0xE61 PUSH0 DUP4 ADD DUP6 PUSH2 0x941 JUMP JUMPDEST PUSH2 0xE6E PUSH1 0x20 DUP4 ADD DUP5 PUSH2 0xBCB JUMP JUMPDEST SWAP4 SWAP3 POP POP POP JUMP JUMPDEST PUSH32 0x496E76616C69642072656365697665722061646472657373206F7220616D6F75 PUSH0 DUP3 ADD MSTORE PUSH32 0x6E74000000000000000000000000000000000000000000000000000000000000 PUSH1 0x20 DUP3 ADD MSTORE POP JUMP JUMPDEST PUSH0 PUSH2 0xECF PUSH1 0x22 DUP4 PUSH2 0xA1B JUMP JUMPDEST SWAP2 POP PUSH2 0xEDA DUP3 PUSH2 0xE75 JUMP JUMPDEST PUSH1 0x40 DUP3 ADD SWAP1 POP SWAP2 SWAP1 POP JUMP JUMPDEST PUSH0 PUSH1 0x20 DUP3 ADD SWAP1 POP DUP2 DUP2 SUB PUSH0 DUP4 ADD MSTORE PUSH2 0xEFC DUP2 PUSH2 0xEC3 JUMP JUMPDEST SWAP1 POP SWAP2 SWAP1 POP JUMP INVALID LOG2 PUSH5 0x6970667358 0x22 SLT KECCAK256 TLOAD PUSH23 0x53E922709BC670B1A207930E1C132766A9EBBECD935E03 0x25 POP CHAINID 0xC9 0xD7 PUSH10 0x1064736F6C6343000818 STOP CALLER "
				},
				"gasEstimates": {
					"creation": {
						"codeDepositCost": "779400",
						"executionCost": "infinite",
						"totalCost": "infinite"
					},
					"external": {
						"evmBridge()": "2527",
						"lockERC20(address,uint256,address,address)": "infinite",
						"lockETH(address,address)": "infinite",
						"releaseTokens(address,uint256)": "infinite",
						"token()": "infinite"
					},
					"internal": {
						"centralizedVerification(address,address,uint256)": "infinite"
					}
				},
				"methodIdentifiers": {
					"evmBridge()": "89957c81",
					"lockERC20(address,uint256,address,address)": "1bf07ad9",
					"lockETH(address,address)": "20ac0642",
					"releaseTokens(address,uint256)": "f40d71f1",
					"token()": "fc0c546a"
				}
			},
			"storageLayout": {
				"storage": [
					{
						"astId": 84,
						"contract": "contracts/Release.sol:NoEvmRelease",
						"label": "evmBridge",
						"offset": 0,
						"slot": "0",
						"type": "t_address"
					},
					{
						"astId": 87,
						"contract": "contracts/Release.sol:NoEvmRelease",
						"label": "token",
						"offset": 0,
						"slot": "1",
						"type": "t_contract(IERC20)77"
					}
				],
				"types": {
					"t_address": {
						"encoding": "inplace",
						"label": "address",
						"numberOfBytes": "20"
					},
					"t_contract(IERC20)77": {
						"encoding": "inplace",
						"label": "contract IERC20",
						"numberOfBytes": "20"
					}
				}
			},
			"userdoc": {
				"kind": "user",
				"methods": {
					"constructor": {
						"notice": "Constructor to set the EVM bridge address and ERC20 token contract. _evmBridge The address of the EVM bridge contract. _tokenAddress The address of the ERC20 token contract."
					},
					"lockETH(address,address)": {
						"notice": "Locks native ETH in this contract to be transferred to another chain. targetChain The address of the target chain where the ETH will be moved. receiver The address on the target chain to receive the ETH."
					},
					"releaseTokens(address,uint256)": {
						"notice": "Function to release tokens on the non-EVM chain on confirmation from the EVM side. receiver The address to receive the released tokens. amount The amount of tokens to release."
					}
				},
				"version": 1
			}
		}
	}
}