{
	"data": {
		"bytecode": {
			"linkReferences": {},
			"object": "608060405234801561000f575f80fd5b506107528061001d5f395ff3fe60806040526004361061002c575f3560e01c806320ac0642146100375780635006415b1461005357610033565b3661003357005b5f80fd5b610051600480360381019061004c9190610399565b61007b565b005b34801561005e575f80fd5b506100796004803603810190610074919061040a565b61013f565b005b5f34116100bd576040517f08c379a00000000000000000000000000000000000000000000000000000000081526004016100b4906104ee565b60405180910390fd5b8173ffffffffffffffffffffffffffffffffffffffff165f73ffffffffffffffffffffffffffffffffffffffff163373ffffffffffffffffffffffffffffffffffffffff167f3aa579a1ddd0264a32c7db142e99fc8a9f405f3e5bde5d3c68b34f19bd745d69348560405161013392919061052a565b60405180910390a45050565b828473ffffffffffffffffffffffffffffffffffffffff1663dd62ed3e33306040518363ffffffff1660e01b815260040161017b929190610551565b602060405180830381865afa158015610196573d5f803e3d5ffd5b505050506040513d601f19601f820116820180604052508101906101ba919061058c565b10156101fb576040517f08c379a00000000000000000000000000000000000000000000000000000000081526004016101f290610601565b60405180910390fd5b8373ffffffffffffffffffffffffffffffffffffffff166323b872dd3330866040518463ffffffff1660e01b81526004016102389392919061061f565b6020604051808303815f875af1158015610254573d5f803e3d5ffd5b505050506040513d601f19601f820116820180604052508101906102789190610689565b6102b7576040517f08c379a00000000000000000000000000000000000000000000000000000000081526004016102ae906106fe565b60405180910390fd5b8173ffffffffffffffffffffffffffffffffffffffff168473ffffffffffffffffffffffffffffffffffffffff163373ffffffffffffffffffffffffffffffffffffffff167f3aa579a1ddd0264a32c7db142e99fc8a9f405f3e5bde5d3c68b34f19bd745d69868560405161032d92919061052a565b60405180910390a450505050565b5f80fd5b5f73ffffffffffffffffffffffffffffffffffffffff82169050919050565b5f6103688261033f565b9050919050565b6103788161035e565b8114610382575f80fd5b50565b5f813590506103938161036f565b92915050565b5f80604083850312156103af576103ae61033b565b5b5f6103bc85828601610385565b92505060206103cd85828601610385565b9150509250929050565b5f819050919050565b6103e9816103d7565b81146103f3575f80fd5b50565b5f81359050610404816103e0565b92915050565b5f805f80608085870312156104225761042161033b565b5b5f61042f87828801610385565b9450506020610440878288016103f6565b935050604061045187828801610385565b925050606061046287828801610385565b91505092959194509250565b5f82825260208201905092915050565b7f45544820616d6f756e74206d7573742062652067726561746572207468616e205f8201527f3000000000000000000000000000000000000000000000000000000000000000602082015250565b5f6104d860218361046e565b91506104e38261047e565b604082019050919050565b5f6020820190508181035f830152610505816104cc565b9050919050565b610515816103d7565b82525050565b6105248161035e565b82525050565b5f60408201905061053d5f83018561050c565b61054a602083018461051b565b9392505050565b5f6040820190506105645f83018561051b565b610571602083018461051b565b9392505050565b5f81519050610586816103e0565b92915050565b5f602082840312156105a1576105a061033b565b5b5f6105ae84828501610578565b91505092915050565b7f546f6b656e20616c6c6f77616e636520746f6f206c6f770000000000000000005f82015250565b5f6105eb60178361046e565b91506105f6826105b7565b602082019050919050565b5f6020820190508181035f830152610618816105df565b9050919050565b5f6060820190506106325f83018661051b565b61063f602083018561051b565b61064c604083018461050c565b949350505050565b5f8115159050919050565b61066881610654565b8114610672575f80fd5b50565b5f815190506106838161065f565b92915050565b5f6020828403121561069e5761069d61033b565b5b5f6106ab84828501610675565b91505092915050565b7f546f6b656e207472616e73666572206661696c656400000000000000000000005f82015250565b5f6106e860158361046e565b91506106f3826106b4565b602082019050919050565b5f6020820190508181035f830152610715816106dc565b905091905056fea2646970667358221220d3e517a9882fa5b3ef385f91a2be0677b4298d643e5ec5e9963a5dbcc4b6cbff64736f6c63430008180033",
			"opcodes": "PUSH1 0x80 PUSH1 0x40 MSTORE CALLVALUE DUP1 ISZERO PUSH2 0xF JUMPI PUSH0 DUP1 REVERT JUMPDEST POP PUSH2 0x752 DUP1 PUSH2 0x1D PUSH0 CODECOPY PUSH0 RETURN INVALID PUSH1 0x80 PUSH1 0x40 MSTORE PUSH1 0x4 CALLDATASIZE LT PUSH2 0x2C JUMPI PUSH0 CALLDATALOAD PUSH1 0xE0 SHR DUP1 PUSH4 0x20AC0642 EQ PUSH2 0x37 JUMPI DUP1 PUSH4 0x5006415B EQ PUSH2 0x53 JUMPI PUSH2 0x33 JUMP JUMPDEST CALLDATASIZE PUSH2 0x33 JUMPI STOP JUMPDEST PUSH0 DUP1 REVERT JUMPDEST PUSH2 0x51 PUSH1 0x4 DUP1 CALLDATASIZE SUB DUP2 ADD SWAP1 PUSH2 0x4C SWAP2 SWAP1 PUSH2 0x399 JUMP JUMPDEST PUSH2 0x7B JUMP JUMPDEST STOP JUMPDEST CALLVALUE DUP1 ISZERO PUSH2 0x5E JUMPI PUSH0 DUP1 REVERT JUMPDEST POP PUSH2 0x79 PUSH1 0x4 DUP1 CALLDATASIZE SUB DUP2 ADD SWAP1 PUSH2 0x74 SWAP2 SWAP1 PUSH2 0x40A JUMP JUMPDEST PUSH2 0x13F JUMP JUMPDEST STOP JUMPDEST PUSH0 CALLVALUE GT PUSH2 0xBD JUMPI PUSH1 0x40 MLOAD PUSH32 0x8C379A000000000000000000000000000000000000000000000000000000000 DUP2 MSTORE PUSH1 0x4 ADD PUSH2 0xB4 SWAP1 PUSH2 0x4EE JUMP JUMPDEST PUSH1 0x40 MLOAD DUP1 SWAP2 SUB SWAP1 REVERT JUMPDEST DUP2 PUSH20 0xFFFFFFFFFFFFFFFFFFFFFFFFFFFFFFFFFFFFFFFF AND PUSH0 PUSH20 0xFFFFFFFFFFFFFFFFFFFFFFFFFFFFFFFFFFFFFFFF AND CALLER PUSH20 0xFFFFFFFFFFFFFFFFFFFFFFFFFFFFFFFFFFFFFFFF AND PUSH32 0x3AA579A1DDD0264A32C7DB142E99FC8A9F405F3E5BDE5D3C68B34F19BD745D69 CALLVALUE DUP6 PUSH1 0x40 MLOAD PUSH2 0x133 SWAP3 SWAP2 SWAP1 PUSH2 0x52A JUMP JUMPDEST PUSH1 0x40 MLOAD DUP1 SWAP2 SUB SWAP1 LOG4 POP POP JUMP JUMPDEST DUP3 DUP5 PUSH20 0xFFFFFFFFFFFFFFFFFFFFFFFFFFFFFFFFFFFFFFFF AND PUSH4 0xDD62ED3E CALLER ADDRESS PUSH1 0x40 MLOAD DUP4 PUSH4 0xFFFFFFFF AND PUSH1 0xE0 SHL DUP2 MSTORE PUSH1 0x4 ADD PUSH2 0x17B SWAP3 SWAP2 SWAP1 PUSH2 0x551 JUMP JUMPDEST PUSH1 0x20 PUSH1 0x40 MLOAD DUP1 DUP4 SUB DUP2 DUP7 GAS STATICCALL ISZERO DUP1 ISZERO PUSH2 0x196 JUMPI RETURNDATASIZE PUSH0 DUP1 RETURNDATACOPY RETURNDATASIZE PUSH0 REVERT JUMPDEST POP POP POP POP PUSH1 0x40 MLOAD RETURNDATASIZE PUSH1 0x1F NOT PUSH1 0x1F DUP3 ADD AND DUP3 ADD DUP1 PUSH1 0x40 MSTORE POP DUP2 ADD SWAP1 PUSH2 0x1BA SWAP2 SWAP1 PUSH2 0x58C JUMP JUMPDEST LT ISZERO PUSH2 0x1FB JUMPI PUSH1 0x40 MLOAD PUSH32 0x8C379A000000000000000000000000000000000000000000000000000000000 DUP2 MSTORE PUSH1 0x4 ADD PUSH2 0x1F2 SWAP1 PUSH2 0x601 JUMP JUMPDEST PUSH1 0x40 MLOAD DUP1 SWAP2 SUB SWAP1 REVERT JUMPDEST DUP4 PUSH20 0xFFFFFFFFFFFFFFFFFFFFFFFFFFFFFFFFFFFFFFFF AND PUSH4 0x23B872DD CALLER ADDRESS DUP7 PUSH1 0x40 MLOAD DUP5 PUSH4 0xFFFFFFFF AND PUSH1 0xE0 SHL DUP2 MSTORE PUSH1 0x4 ADD PUSH2 0x238 SWAP4 SWAP3 SWAP2 SWAP1 PUSH2 0x61F JUMP JUMPDEST PUSH1 0x20 PUSH1 0x40 MLOAD DUP1 DUP4 SUB DUP2 PUSH0 DUP8 GAS CALL ISZERO DUP1 ISZERO PUSH2 0x254 JUMPI RETURNDATASIZE PUSH0 DUP1 RETURNDATACOPY RETURNDATASIZE PUSH0 REVERT JUMPDEST POP POP POP POP PUSH1 0x40 MLOAD RETURNDATASIZE PUSH1 0x1F NOT PUSH1 0x1F DUP3 ADD AND DUP3 ADD DUP1 PUSH1 0x40 MSTORE POP DUP2 ADD SWAP1 PUSH2 0x278 SWAP2 SWAP1 PUSH2 0x689 JUMP JUMPDEST PUSH2 0x2B7 JUMPI PUSH1 0x40 MLOAD PUSH32 0x8C379A000000000000000000000000000000000000000000000000000000000 DUP2 MSTORE PUSH1 0x4 ADD PUSH2 0x2AE SWAP1 PUSH2 0x6FE JUMP JUMPDEST PUSH1 0x40 MLOAD DUP1 SWAP2 SUB SWAP1 REVERT JUMPDEST DUP2 PUSH20 0xFFFFFFFFFFFFFFFFFFFFFFFFFFFFFFFFFFFFFFFF AND DUP5 PUSH20 0xFFFFFFFFFFFFFFFFFFFFFFFFFFFFFFFFFFFFFFFF AND CALLER PUSH20 0xFFFFFFFFFFFFFFFFFFFFFFFFFFFFFFFFFFFFFFFF AND PUSH32 0x3AA579A1DDD0264A32C7DB142E99FC8A9F405F3E5BDE5D3C68B34F19BD745D69 DUP7 DUP6 PUSH1 0x40 MLOAD PUSH2 0x32D SWAP3 SWAP2 SWAP1 PUSH2 0x52A JUMP JUMPDEST PUSH1 0x40 MLOAD DUP1 SWAP2 SUB SWAP1 LOG4 POP POP POP POP JUMP JUMPDEST PUSH0 DUP1 REVERT JUMPDEST PUSH0 PUSH20 0xFFFFFFFFFFFFFFFFFFFFFFFFFFFFFFFFFFFFFFFF DUP3 AND SWAP1 POP SWAP2 SWAP1 POP JUMP JUMPDEST PUSH0 PUSH2 0x368 DUP3 PUSH2 0x33F JUMP JUMPDEST SWAP1 POP SWAP2 SWAP1 POP JUMP JUMPDEST PUSH2 0x378 DUP2 PUSH2 0x35E JUMP JUMPDEST DUP2 EQ PUSH2 0x382 JUMPI PUSH0 DUP1 REVERT JUMPDEST POP JUMP JUMPDEST PUSH0 DUP2 CALLDATALOAD SWAP1 POP PUSH2 0x393 DUP2 PUSH2 0x36F JUMP JUMPDEST SWAP3 SWAP2 POP POP JUMP JUMPDEST PUSH0 DUP1 PUSH1 0x40 DUP4 DUP6 SUB SLT ISZERO PUSH2 0x3AF JUMPI PUSH2 0x3AE PUSH2 0x33B JUMP JUMPDEST JUMPDEST PUSH0 PUSH2 0x3BC DUP6 DUP3 DUP7 ADD PUSH2 0x385 JUMP JUMPDEST SWAP3 POP POP PUSH1 0x20 PUSH2 0x3CD DUP6 DUP3 DUP7 ADD PUSH2 0x385 JUMP JUMPDEST SWAP2 POP POP SWAP3 POP SWAP3 SWAP1 POP JUMP JUMPDEST PUSH0 DUP2 SWAP1 POP SWAP2 SWAP1 POP JUMP JUMPDEST PUSH2 0x3E9 DUP2 PUSH2 0x3D7 JUMP JUMPDEST DUP2 EQ PUSH2 0x3F3 JUMPI PUSH0 DUP1 REVERT JUMPDEST POP JUMP JUMPDEST PUSH0 DUP2 CALLDATALOAD SWAP1 POP PUSH2 0x404 DUP2 PUSH2 0x3E0 JUMP JUMPDEST SWAP3 SWAP2 POP POP JUMP JUMPDEST PUSH0 DUP1 PUSH0 DUP1 PUSH1 0x80 DUP6 DUP8 SUB SLT ISZERO PUSH2 0x422 JUMPI PUSH2 0x421 PUSH2 0x33B JUMP JUMPDEST JUMPDEST PUSH0 PUSH2 0x42F DUP8 DUP3 DUP9 ADD PUSH2 0x385 JUMP JUMPDEST SWAP5 POP POP PUSH1 0x20 PUSH2 0x440 DUP8 DUP3 DUP9 ADD PUSH2 0x3F6 JUMP JUMPDEST SWAP4 POP POP PUSH1 0x40 PUSH2 0x451 DUP8 DUP3 DUP9 ADD PUSH2 0x385 JUMP JUMPDEST SWAP3 POP POP PUSH1 0x60 PUSH2 0x462 DUP8 DUP3 DUP9 ADD PUSH2 0x385 JUMP JUMPDEST SWAP2 POP POP SWAP3 SWAP6 SWAP2 SWAP5 POP SWAP3 POP JUMP JUMPDEST PUSH0 DUP3 DUP3 MSTORE PUSH1 0x20 DUP3 ADD SWAP1 POP SWAP3 SWAP2 POP POP JUMP JUMPDEST PUSH32 0x45544820616D6F756E74206D7573742062652067726561746572207468616E20 PUSH0 DUP3 ADD MSTORE PUSH32 0x3000000000000000000000000000000000000000000000000000000000000000 PUSH1 0x20 DUP3 ADD MSTORE POP JUMP JUMPDEST PUSH0 PUSH2 0x4D8 PUSH1 0x21 DUP4 PUSH2 0x46E JUMP JUMPDEST SWAP2 POP PUSH2 0x4E3 DUP3 PUSH2 0x47E JUMP JUMPDEST PUSH1 0x40 DUP3 ADD SWAP1 POP SWAP2 SWAP1 POP JUMP JUMPDEST PUSH0 PUSH1 0x20 DUP3 ADD SWAP1 POP DUP2 DUP2 SUB PUSH0 DUP4 ADD MSTORE PUSH2 0x505 DUP2 PUSH2 0x4CC JUMP JUMPDEST SWAP1 POP SWAP2 SWAP1 POP JUMP JUMPDEST PUSH2 0x515 DUP2 PUSH2 0x3D7 JUMP JUMPDEST DUP3 MSTORE POP POP JUMP JUMPDEST PUSH2 0x524 DUP2 PUSH2 0x35E JUMP JUMPDEST DUP3 MSTORE POP POP JUMP JUMPDEST PUSH0 PUSH1 0x40 DUP3 ADD SWAP1 POP PUSH2 0x53D PUSH0 DUP4 ADD DUP6 PUSH2 0x50C JUMP JUMPDEST PUSH2 0x54A PUSH1 0x20 DUP4 ADD DUP5 PUSH2 0x51B JUMP JUMPDEST SWAP4 SWAP3 POP POP POP JUMP JUMPDEST PUSH0 PUSH1 0x40 DUP3 ADD SWAP1 POP PUSH2 0x564 PUSH0 DUP4 ADD DUP6 PUSH2 0x51B JUMP JUMPDEST PUSH2 0x571 PUSH1 0x20 DUP4 ADD DUP5 PUSH2 0x51B JUMP JUMPDEST SWAP4 SWAP3 POP POP POP JUMP JUMPDEST PUSH0 DUP2 MLOAD SWAP1 POP PUSH2 0x586 DUP2 PUSH2 0x3E0 JUMP JUMPDEST SWAP3 SWAP2 POP POP JUMP JUMPDEST PUSH0 PUSH1 0x20 DUP3 DUP5 SUB SLT ISZERO PUSH2 0x5A1 JUMPI PUSH2 0x5A0 PUSH2 0x33B JUMP JUMPDEST JUMPDEST PUSH0 PUSH2 0x5AE DUP5 DUP3 DUP6 ADD PUSH2 0x578 JUMP JUMPDEST SWAP2 POP POP SWAP3 SWAP2 POP POP JUMP JUMPDEST PUSH32 0x546F6B656E20616C6C6F77616E636520746F6F206C6F77000000000000000000 PUSH0 DUP3 ADD MSTORE POP JUMP JUMPDEST PUSH0 PUSH2 0x5EB PUSH1 0x17 DUP4 PUSH2 0x46E JUMP JUMPDEST SWAP2 POP PUSH2 0x5F6 DUP3 PUSH2 0x5B7 JUMP JUMPDEST PUSH1 0x20 DUP3 ADD SWAP1 POP SWAP2 SWAP1 POP JUMP JUMPDEST PUSH0 PUSH1 0x20 DUP3 ADD SWAP1 POP DUP2 DUP2 SUB PUSH0 DUP4 ADD MSTORE PUSH2 0x618 DUP2 PUSH2 0x5DF JUMP JUMPDEST SWAP1 POP SWAP2 SWAP1 POP JUMP JUMPDEST PUSH0 PUSH1 0x60 DUP3 ADD SWAP1 POP PUSH2 0x632 PUSH0 DUP4 ADD DUP7 PUSH2 0x51B JUMP JUMPDEST PUSH2 0x63F PUSH1 0x20 DUP4 ADD DUP6 PUSH2 0x51B JUMP JUMPDEST PUSH2 0x64C PUSH1 0x40 DUP4 ADD DUP5 PUSH2 0x50C JUMP JUMPDEST SWAP5 SWAP4 POP POP POP POP JUMP JUMPDEST PUSH0 DUP2 ISZERO ISZERO SWAP1 POP SWAP2 SWAP1 POP JUMP JUMPDEST PUSH2 0x668 DUP2 PUSH2 0x654 JUMP JUMPDEST DUP2 EQ PUSH2 0x672 JUMPI PUSH0 DUP1 REVERT JUMPDEST POP JUMP JUMPDEST PUSH0 DUP2 MLOAD SWAP1 POP PUSH2 0x683 DUP2 PUSH2 0x65F JUMP JUMPDEST SWAP3 SWAP2 POP POP JUMP JUMPDEST PUSH0 PUSH1 0x20 DUP3 DUP5 SUB SLT ISZERO PUSH2 0x69E JUMPI PUSH2 0x69D PUSH2 0x33B JUMP JUMPDEST JUMPDEST PUSH0 PUSH2 0x6AB DUP5 DUP3 DUP6 ADD PUSH2 0x675 JUMP JUMPDEST SWAP2 POP POP SWAP3 SWAP2 POP POP JUMP JUMPDEST PUSH32 0x546F6B656E207472616E73666572206661696C65640000000000000000000000 PUSH0 DUP3 ADD MSTORE POP JUMP JUMPDEST PUSH0 PUSH2 0x6E8 PUSH1 0x15 DUP4 PUSH2 0x46E JUMP JUMPDEST SWAP2 POP PUSH2 0x6F3 DUP3 PUSH2 0x6B4 JUMP JUMPDEST PUSH1 0x20 DUP3 ADD SWAP1 POP SWAP2 SWAP1 POP JUMP JUMPDEST PUSH0 PUSH1 0x20 DUP3 ADD SWAP1 POP DUP2 DUP2 SUB PUSH0 DUP4 ADD MSTORE PUSH2 0x715 DUP2 PUSH2 0x6DC JUMP JUMPDEST SWAP1 POP SWAP2 SWAP1 POP JUMP INVALID LOG2 PUSH5 0x6970667358 0x22 SLT KECCAK256 0xD3 0xE5 OR 0xA9 DUP9 0x2F 0xA5 0xB3 0xEF CODESIZE PUSH0 SWAP2 LOG2 0xBE MOD PUSH24 0xB4298D643E5EC5E9963A5DBCC4B6CBFF64736F6C63430008 XOR STOP CALLER "
		},
		"gasEstimates": {
			"creation": {
				"codeDepositCost": "374800",
				"executionCost": "409",
				"totalCost": "375209"
			},
			"external": {
				"lockETH(address,address)": "infinite",
				"lockTokens(address,uint256,address,address)": "infinite"
			}
		},
		"methodIdentifiers": {
			"lockETH(address,address)": "20ac0642",
			"lockTokens(address,uint256,address,address)": "5006415b"
		}
	},
	"abi": [
		{
			"anonymous": false,
			"inputs": [
				{
					"indexed": true,
					"internalType": "address",
					"name": "sender",
					"type": "address"
				},
				{
					"indexed": true,
					"internalType": "address",
					"name": "token",
					"type": "address"
				},
				{
					"indexed": false,
					"internalType": "uint256",
					"name": "amount",
					"type": "uint256"
				},
				{
					"indexed": true,
					"internalType": "address",
					"name": "targetChain",
					"type": "address"
				},
				{
					"indexed": false,
					"internalType": "address",
					"name": "targetAddress",
					"type": "address"
				}
			],
			"name": "TokensLocked",
			"type": "event"
		},
		{
			"inputs": [
				{
					"internalType": "address",
					"name": "_targetChain",
					"type": "address"
				},
				{
					"internalType": "address",
					"name": "_targetAddress",
					"type": "address"
				}
			],
			"name": "lockETH",
			"outputs": [],
			"stateMutability": "payable",
			"type": "function"
		},
		{
			"inputs": [
				{
					"internalType": "address",
					"name": "_token",
					"type": "address"
				},
				{
					"internalType": "uint256",
					"name": "_amount",
					"type": "uint256"
				},
				{
					"internalType": "address",
					"name": "_targetChain",
					"type": "address"
				},
				{
					"internalType": "address",
					"name": "_targetAddress",
					"type": "address"
				}
			],
			"name": "lockTokens",
			"outputs": [],
			"stateMutability": "nonpayable",
			"type": "function"
		},
		{
			"stateMutability": "payable",
			"type": "receive"
		}
	]
}